{
	"contracts/Admin.sol": {
		"Admin": {
			"abi": [
				{
					"inputs": [
						{
							"internalType": "address",
							"name": "_farmerAddress",
							"type": "address"
						},
						{
							"internalType": "uint256",
							"name": "_farmerID",
							"type": "uint256"
						},
						{
							"internalType": "string",
							"name": "_farmerName",
							"type": "string"
						},
						{
							"internalType": "string",
							"name": "_estateName",
							"type": "string"
						}
					],
					"name": "addFarmer",
					"outputs": [],
					"stateMutability": "nonpayable",
					"type": "function"
				},
				{
					"inputs": [
						{
							"internalType": "uint256",
							"name": "_productID",
							"type": "uint256"
						},
						{
							"internalType": "uint256",
							"name": "_pluckingDate",
							"type": "uint256"
						},
						{
							"internalType": "enum stakeholders.CoffeeType",
							"name": "_coffeeType",
							"type": "uint8"
						},
						{
							"internalType": "uint256",
							"name": "_harvestAmtKg",
							"type": "uint256"
						},
						{
							"internalType": "enum stakeholders.ProcessingMethod",
							"name": "_processingMethod",
							"type": "uint8"
						}
					],
					"name": "addProduct",
					"outputs": [],
					"stateMutability": "nonpayable",
					"type": "function"
				},
				{
					"inputs": [],
					"name": "admin",
					"outputs": [
						{
							"internalType": "address",
							"name": "",
							"type": "address"
						}
					],
					"stateMutability": "view",
					"type": "function"
				},
				{
					"inputs": [],
					"name": "getFarmerCount",
					"outputs": [
						{
							"internalType": "uint256",
							"name": "",
							"type": "uint256"
						}
					],
					"stateMutability": "view",
					"type": "function"
				},
				{
					"inputs": [
						{
							"internalType": "address",
							"name": "_farmerAddress",
							"type": "address"
						}
					],
					"name": "getFarmerDetails",
					"outputs": [
						{
							"internalType": "address",
							"name": "__farmerAddress",
							"type": "address"
						},
						{
							"internalType": "uint256",
							"name": "_farmerID",
							"type": "uint256"
						},
						{
							"internalType": "string",
							"name": "_farmerName",
							"type": "string"
						},
						{
							"internalType": "string",
							"name": "_estateName",
							"type": "string"
						}
					],
					"stateMutability": "view",
					"type": "function"
				},
				{
					"inputs": [
						{
							"internalType": "address",
							"name": "_farmerAddress",
							"type": "address"
						}
					],
					"name": "getProductCount",
					"outputs": [
						{
							"internalType": "uint256",
							"name": "productCount",
							"type": "uint256"
						}
					],
					"stateMutability": "view",
					"type": "function"
				},
				{
					"inputs": [
						{
							"internalType": "uint256",
							"name": "_productID",
							"type": "uint256"
						}
					],
					"name": "getProductDetails",
					"outputs": [
						{
							"internalType": "uint256",
							"name": "productID",
							"type": "uint256"
						},
						{
							"internalType": "uint256",
							"name": "pluckingDate",
							"type": "uint256"
						},
						{
							"internalType": "address",
							"name": "registeredBy",
							"type": "address"
						},
						{
							"internalType": "enum stakeholders.CoffeeType",
							"name": "coffeeType",
							"type": "uint8"
						},
						{
							"internalType": "uint256",
							"name": "harvestAmtKg",
							"type": "uint256"
						},
						{
							"internalType": "enum stakeholders.ProcessingMethod",
							"name": "processingMethod",
							"type": "uint8"
						}
					],
					"stateMutability": "view",
					"type": "function"
				},
				{
					"inputs": [
						{
							"internalType": "address",
							"name": "_farmerAddress",
							"type": "address"
						}
					],
					"name": "getProductList",
					"outputs": [
						{
							"internalType": "uint256[]",
							"name": "productIDList",
							"type": "uint256[]"
						}
					],
					"stateMutability": "view",
					"type": "function"
				},
				{
					"inputs": [
						{
							"internalType": "address",
							"name": "_farmerAddress",
							"type": "address"
						}
					],
					"name": "isRegisteredFarmer",
					"outputs": [
						{
							"internalType": "bool",
							"name": "",
							"type": "bool"
						}
					],
					"stateMutability": "view",
					"type": "function"
				},
				{
					"inputs": [
						{
							"internalType": "uint256",
							"name": "_productID",
							"type": "uint256"
						}
					],
					"name": "isRegisteredProduct",
					"outputs": [
						{
							"internalType": "bool",
							"name": "",
							"type": "bool"
						}
					],
					"stateMutability": "view",
					"type": "function"
				}
			],
			"devdoc": {
				"kind": "dev",
				"methods": {},
				"version": 1
			},
			"evm": {
				"assembly": "    /* \"contracts/Admin.sol\":1582:9635  contract Admin {... */\n  mstore(0x40, 0x80)\n    /* \"contracts/Admin.sol\":1766:1767  0 */\n  0x00\n    /* \"contracts/Admin.sol\":1739:1767  uint private farmerCount = 0 */\n  dup1\n  sstore\n    /* \"contracts/Admin.sol\":2410:2420  msg.sender */\n  caller\n    /* \"contracts/Admin.sol\":2387:2420  address public admin = msg.sender */\n  0x04\n  exp(0x0100, 0x00)\n  dup2\n  sload\n  dup2\n  0xffffffffffffffffffffffffffffffffffffffff\n  mul\n  not\n  and\n  swap1\n  dup4\n  0xffffffffffffffffffffffffffffffffffffffff\n  and\n  mul\n  or\n  swap1\n  sstore\n  pop\n    /* \"contracts/Admin.sol\":1582:9635  contract Admin {... */\n  callvalue\n  dup1\n  iszero\n  tag_1\n  jumpi\n  0x00\n  dup1\n  revert\ntag_1:\n  pop\n  dataSize(sub_0)\n  dup1\n  dataOffset(sub_0)\n  0x00\n  codecopy\n  0x00\n  return\nstop\n\nsub_0: assembly {\n        /* \"contracts/Admin.sol\":1582:9635  contract Admin {... */\n      mstore(0x40, 0x80)\n      callvalue\n      dup1\n      iszero\n      tag_1\n      jumpi\n      0x00\n      dup1\n      revert\n    tag_1:\n      pop\n      jumpi(tag_2, lt(calldatasize, 0x04))\n      shr(0xe0, calldataload(0x00))\n      dup1\n      0xbc125012\n      gt\n      tag_13\n      jumpi\n      dup1\n      0xbc125012\n      eq\n      tag_8\n      jumpi\n      dup1\n      0xc4a8b5d5\n      eq\n      tag_9\n      jumpi\n      dup1\n      0xd335ccfa\n      eq\n      tag_10\n      jumpi\n      dup1\n      0xe86ce709\n      eq\n      tag_11\n      jumpi\n      dup1\n      0xf851a440\n      eq\n      tag_12\n      jumpi\n      jump(tag_2)\n    tag_13:\n      dup1\n      0x1584fd05\n      eq\n      tag_3\n      jumpi\n      dup1\n      0x4e5d37a9\n      eq\n      tag_4\n      jumpi\n      dup1\n      0x50208eee\n      eq\n      tag_5\n      jumpi\n      dup1\n      0x5524a0b7\n      eq\n      tag_6\n      jumpi\n      dup1\n      0x6813b53b\n      eq\n      tag_7\n      jumpi\n    tag_2:\n      0x00\n      dup1\n      revert\n        /* \"contracts/Admin.sol\":6848:7632  function isRegisteredProduct(uint _productID) public view returns (bool) {... */\n    tag_3:\n      tag_14\n      0x04\n      dup1\n      calldatasize\n      sub\n      dup2\n      add\n      swap1\n      tag_15\n      swap2\n      swap1\n      tag_16\n      jump\t// in\n    tag_15:\n      tag_17\n      jump\t// in\n    tag_14:\n      mload(0x40)\n      tag_18\n      swap2\n      swap1\n      tag_19\n      jump\t// in\n    tag_18:\n      mload(0x40)\n      dup1\n      swap2\n      sub\n      swap1\n      return\n        /* \"contracts/Admin.sol\":3426:4187  function isRegisteredFarmer(address _farmerAddress) public view returns (bool) {... */\n    tag_4:\n      tag_20\n      0x04\n      dup1\n      calldatasize\n      sub\n      dup2\n      add\n      swap1\n      tag_21\n      swap2\n      swap1\n      tag_22\n      jump\t// in\n    tag_21:\n      tag_23\n      jump\t// in\n    tag_20:\n      mload(0x40)\n      tag_24\n      swap2\n      swap1\n      tag_19\n      jump\t// in\n    tag_24:\n      mload(0x40)\n      dup1\n      swap2\n      sub\n      swap1\n      return\n        /* \"contracts/Admin.sol\":5900:6212  function getProductCount(address _farmerAddress) public view returns (uint productCount) {... */\n    tag_5:\n      tag_25\n      0x04\n      dup1\n      calldatasize\n      sub\n      dup2\n      add\n      swap1\n      tag_26\n      swap2\n      swap1\n      tag_22\n      jump\t// in\n    tag_26:\n      tag_27\n      jump\t// in\n    tag_25:\n      mload(0x40)\n      tag_28\n      swap2\n      swap1\n      tag_29\n      jump\t// in\n    tag_28:\n      mload(0x40)\n      dup1\n      swap2\n      sub\n      swap1\n      return\n        /* \"contracts/Admin.sol\":8699:9632  function addProduct(uint _productID,... */\n    tag_6:\n      tag_30\n      0x04\n      dup1\n      calldatasize\n      sub\n      dup2\n      add\n      swap1\n      tag_31\n      swap2\n      swap1\n      tag_32\n      jump\t// in\n    tag_31:\n      tag_33\n      jump\t// in\n    tag_30:\n      stop\n        /* \"contracts/Admin.sol\":7829:8496  function getProductDetails (uint _productID) public view returns (uint productID, uint pluckingDate, address registeredBy, stakeholders.CoffeeType coffeeType, uint harvestAmtKg, stakeholders.ProcessingMethod processingMethod) {... */\n    tag_7:\n      tag_34\n      0x04\n      dup1\n      calldatasize\n      sub\n      dup2\n      add\n      swap1\n      tag_35\n      swap2\n      swap1\n      tag_16\n      jump\t// in\n    tag_35:\n      tag_36\n      jump\t// in\n    tag_34:\n      mload(0x40)\n      tag_37\n      swap7\n      swap6\n      swap5\n      swap4\n      swap3\n      swap2\n      swap1\n      tag_38\n      jump\t// in\n    tag_37:\n      mload(0x40)\n      dup1\n      swap2\n      sub\n      swap1\n      return\n        /* \"contracts/Admin.sol\":6436:6697  function getProductList(address _farmerAddress) public view returns (uint[] memory productIDList) {... */\n    tag_8:\n      tag_39\n      0x04\n      dup1\n      calldatasize\n      sub\n      dup2\n      add\n      swap1\n      tag_40\n      swap2\n      swap1\n      tag_22\n      jump\t// in\n    tag_40:\n      tag_41\n      jump\t// in\n    tag_39:\n      mload(0x40)\n      tag_42\n      swap2\n      swap1\n      tag_43\n      jump\t// in\n    tag_42:\n      mload(0x40)\n      dup1\n      swap2\n      sub\n      swap1\n      return\n        /* \"contracts/Admin.sol\":2993:3083  function getFarmerCount() public view returns (uint) {... */\n    tag_9:\n      tag_44\n      tag_45\n      jump\t// in\n    tag_44:\n      mload(0x40)\n      tag_46\n      swap2\n      swap1\n      tag_29\n      jump\t// in\n    tag_46:\n      mload(0x40)\n      dup1\n      swap2\n      sub\n      swap1\n      return\n        /* \"contracts/Admin.sol\":4380:4873  function getFarmerDetails (address _farmerAddress) public view returns (address __farmerAddress, uint _farmerID, string memory _farmerName, string memory _estateName) {... */\n    tag_10:\n      tag_47\n      0x04\n      dup1\n      calldatasize\n      sub\n      dup2\n      add\n      swap1\n      tag_48\n      swap2\n      swap1\n      tag_22\n      jump\t// in\n    tag_48:\n      tag_49\n      jump\t// in\n    tag_47:\n      mload(0x40)\n      tag_50\n      swap5\n      swap4\n      swap3\n      swap2\n      swap1\n      tag_51\n      jump\t// in\n    tag_50:\n      mload(0x40)\n      dup1\n      swap2\n      sub\n      swap1\n      return\n        /* \"contracts/Admin.sol\":4991:5677  function addFarmer(address _farmerAddress,... */\n    tag_11:\n      tag_52\n      0x04\n      dup1\n      calldatasize\n      sub\n      dup2\n      add\n      swap1\n      tag_53\n      swap2\n      swap1\n      tag_54\n      jump\t// in\n    tag_53:\n      tag_55\n      jump\t// in\n    tag_52:\n      stop\n        /* \"contracts/Admin.sol\":2387:2420  address public admin = msg.sender */\n    tag_12:\n      tag_56\n      tag_57\n      jump\t// in\n    tag_56:\n      mload(0x40)\n      tag_58\n      swap2\n      swap1\n      tag_59\n      jump\t// in\n    tag_58:\n      mload(0x40)\n      dup1\n      swap2\n      sub\n      swap1\n      return\n        /* \"contracts/Admin.sol\":6848:7632  function isRegisteredProduct(uint _productID) public view returns (bool) {... */\n    tag_17:\n        /* \"contracts/Admin.sol\":6915:6919  bool */\n      0x00\n        /* \"contracts/Admin.sol\":7620:7621  0 */\n      dup1\n        /* \"contracts/Admin.sol\":7583:7594  productList */\n      0x02\n        /* \"contracts/Admin.sol\":7583:7606  productList[_productID] */\n      0x00\n        /* \"contracts/Admin.sol\":7595:7605  _productID */\n      dup5\n        /* \"contracts/Admin.sol\":7583:7606  productList[_productID] */\n      dup2\n      mstore\n      0x20\n      add\n      swap1\n      dup2\n      mstore\n      0x20\n      add\n      0x00\n      keccak256\n        /* \"contracts/Admin.sol\":7583:7616  productList[_productID].productID */\n      0x00\n      add\n      sload\n        /* \"contracts/Admin.sol\":7583:7621  productList[_productID].productID != 0 */\n      eq\n      iszero\n        /* \"contracts/Admin.sol\":7575:7622  return (productList[_productID].productID != 0) */\n      swap1\n      pop\n        /* \"contracts/Admin.sol\":6848:7632  function isRegisteredProduct(uint _productID) public view returns (bool) {... */\n      swap2\n      swap1\n      pop\n      jump\t// out\n        /* \"contracts/Admin.sol\":3426:4187  function isRegisteredFarmer(address _farmerAddress) public view returns (bool) {... */\n    tag_23:\n        /* \"contracts/Admin.sol\":3499:3503  bool */\n      0x00\n        /* \"contracts/Admin.sol\":4174:4175  0 */\n      dup1\n        /* \"contracts/Admin.sol\":4122:4176  farmerList[_farmerAddress].farmerAddress != address(0) */\n      0xffffffffffffffffffffffffffffffffffffffff\n      and\n        /* \"contracts/Admin.sol\":4122:4132  farmerList */\n      0x03\n        /* \"contracts/Admin.sol\":4122:4148  farmerList[_farmerAddress] */\n      0x00\n        /* \"contracts/Admin.sol\":4133:4147  _farmerAddress */\n      dup5\n        /* \"contracts/Admin.sol\":4122:4148  farmerList[_farmerAddress] */\n      0xffffffffffffffffffffffffffffffffffffffff\n      and\n      0xffffffffffffffffffffffffffffffffffffffff\n      and\n      dup2\n      mstore\n      0x20\n      add\n      swap1\n      dup2\n      mstore\n      0x20\n      add\n      0x00\n      keccak256\n        /* \"contracts/Admin.sol\":4122:4162  farmerList[_farmerAddress].farmerAddress */\n      0x00\n      add\n      0x00\n      swap1\n      sload\n      swap1\n      0x0100\n      exp\n      swap1\n      div\n      0xffffffffffffffffffffffffffffffffffffffff\n      and\n        /* \"contracts/Admin.sol\":4122:4176  farmerList[_farmerAddress].farmerAddress != address(0) */\n      0xffffffffffffffffffffffffffffffffffffffff\n      and\n      eq\n      iszero\n        /* \"contracts/Admin.sol\":4114:4177  return (farmerList[_farmerAddress].farmerAddress != address(0)) */\n      swap1\n      pop\n        /* \"contracts/Admin.sol\":3426:4187  function isRegisteredFarmer(address _farmerAddress) public view returns (bool) {... */\n      swap2\n      swap1\n      pop\n      jump\t// out\n        /* \"contracts/Admin.sol\":5900:6212  function getProductCount(address _farmerAddress) public view returns (uint productCount) {... */\n    tag_27:\n        /* \"contracts/Admin.sol\":5970:5987  uint productCount */\n      0x00\n        /* \"contracts/Admin.sol\":6008:6042  isRegisteredFarmer(_farmerAddress) */\n      tag_63\n        /* \"contracts/Admin.sol\":6027:6041  _farmerAddress */\n      dup3\n        /* \"contracts/Admin.sol\":6008:6026  isRegisteredFarmer */\n      tag_23\n        /* \"contracts/Admin.sol\":6008:6042  isRegisteredFarmer(_farmerAddress) */\n      jump\t// in\n    tag_63:\n        /* \"contracts/Admin.sol\":6000:6082  require(isRegisteredFarmer(_farmerAddress), \"Farmer not registered! Reverting...\") */\n      tag_64\n      jumpi\n      mload(0x40)\n      0x08c379a000000000000000000000000000000000000000000000000000000000\n      dup2\n      mstore\n      0x04\n      add\n      tag_65\n      swap1\n      tag_66\n      jump\t// in\n    tag_65:\n      mload(0x40)\n      dup1\n      swap2\n      sub\n      swap1\n      revert\n    tag_64:\n        /* \"contracts/Admin.sol\":6093:6120  uint[] memory productIDList */\n      0x00\n        /* \"contracts/Admin.sol\":6123:6142  farmerProductIDList */\n      0x01\n        /* \"contracts/Admin.sol\":6123:6158  farmerProductIDList[_farmerAddress] */\n      0x00\n        /* \"contracts/Admin.sol\":6143:6157  _farmerAddress */\n      dup5\n        /* \"contracts/Admin.sol\":6123:6158  farmerProductIDList[_farmerAddress] */\n      0xffffffffffffffffffffffffffffffffffffffff\n      and\n      0xffffffffffffffffffffffffffffffffffffffff\n      and\n      dup2\n      mstore\n      0x20\n      add\n      swap1\n      dup2\n      mstore\n      0x20\n      add\n      0x00\n      keccak256\n        /* \"contracts/Admin.sol\":6093:6158  uint[] memory productIDList = farmerProductIDList[_farmerAddress] */\n      dup1\n      sload\n      dup1\n      0x20\n      mul\n      0x20\n      add\n      mload(0x40)\n      swap1\n      dup2\n      add\n      0x40\n      mstore\n      dup1\n      swap3\n      swap2\n      swap1\n      dup2\n      dup2\n      mstore\n      0x20\n      add\n      dup3\n      dup1\n      sload\n      dup1\n      iszero\n      tag_67\n      jumpi\n      0x20\n      mul\n      dup3\n      add\n      swap2\n      swap1\n      0x00\n      mstore\n      keccak256(0x00, 0x20)\n      swap1\n    tag_68:\n      dup2\n      sload\n      dup2\n      mstore\n      0x20\n      add\n      swap1\n      0x01\n      add\n      swap1\n      dup1\n      dup4\n      gt\n      tag_68\n      jumpi\n    tag_67:\n      pop\n      pop\n      pop\n      pop\n      pop\n      swap1\n      pop\n        /* \"contracts/Admin.sol\":6184:6197  productIDList */\n      dup1\n        /* \"contracts/Admin.sol\":6184:6204  productIDList.length */\n      mload\n        /* \"contracts/Admin.sol\":6169:6204  productCount = productIDList.length */\n      swap2\n      pop\n        /* \"contracts/Admin.sol\":5989:6212  {... */\n      pop\n        /* \"contracts/Admin.sol\":5900:6212  function getProductCount(address _farmerAddress) public view returns (uint productCount) {... */\n      swap2\n      swap1\n      pop\n      jump\t// out\n        /* \"contracts/Admin.sol\":8699:9632  function addProduct(uint _productID,... */\n    tag_33:\n        /* \"contracts/Admin.sol\":2751:2781  isRegisteredFarmer(msg.sender) */\n      tag_70\n        /* \"contracts/Admin.sol\":2770:2780  msg.sender */\n      caller\n        /* \"contracts/Admin.sol\":2751:2769  isRegisteredFarmer */\n      tag_23\n        /* \"contracts/Admin.sol\":2751:2781  isRegisteredFarmer(msg.sender) */\n      jump\t// in\n    tag_70:\n        /* \"contracts/Admin.sol\":2743:2844  require(isRegisteredFarmer(msg.sender), \"Only the registered farmers are authorised for this action\") */\n      tag_71\n      jumpi\n      mload(0x40)\n      0x08c379a000000000000000000000000000000000000000000000000000000000\n      dup2\n      mstore\n      0x04\n      add\n      tag_72\n      swap1\n      tag_73\n      jump\t// in\n    tag_72:\n      mload(0x40)\n      dup1\n      swap2\n      sub\n      swap1\n      revert\n    tag_71:\n        /* \"contracts/Admin.sol\":9026:9057  isRegisteredProduct(_productID) */\n      tag_75\n        /* \"contracts/Admin.sol\":9046:9056  _productID */\n      dup6\n        /* \"contracts/Admin.sol\":9026:9045  isRegisteredProduct */\n      tag_17\n        /* \"contracts/Admin.sol\":9026:9057  isRegisteredProduct(_productID) */\n      jump\t// in\n    tag_75:\n        /* \"contracts/Admin.sol\":9025:9057  !isRegisteredProduct(_productID) */\n      iszero\n        /* \"contracts/Admin.sol\":9017:9102  require(!isRegisteredProduct(_productID), \"Product already registered! Reverting...\") */\n      tag_76\n      jumpi\n      mload(0x40)\n      0x08c379a000000000000000000000000000000000000000000000000000000000\n      dup2\n      mstore\n      0x04\n      add\n      tag_77\n      swap1\n      tag_78\n      jump\t// in\n    tag_77:\n      mload(0x40)\n      dup1\n      swap2\n      sub\n      swap1\n      revert\n    tag_76:\n        /* \"contracts/Admin.sol\":9113:9134  address farmerAddress */\n      0x00\n        /* \"contracts/Admin.sol\":9137:9147  msg.sender */\n      caller\n        /* \"contracts/Admin.sol\":9113:9147  address farmerAddress = msg.sender */\n      swap1\n      pop\n        /* \"contracts/Admin.sol\":9158:9177  farmerProductIDList */\n      0x01\n        /* \"contracts/Admin.sol\":9158:9192  farmerProductIDList[farmerAddress] */\n      0x00\n        /* \"contracts/Admin.sol\":9178:9191  farmerAddress */\n      dup3\n        /* \"contracts/Admin.sol\":9158:9192  farmerProductIDList[farmerAddress] */\n      0xffffffffffffffffffffffffffffffffffffffff\n      and\n      0xffffffffffffffffffffffffffffffffffffffff\n      and\n      dup2\n      mstore\n      0x20\n      add\n      swap1\n      dup2\n      mstore\n      0x20\n      add\n      0x00\n      keccak256\n        /* \"contracts/Admin.sol\":9198:9208  _productID */\n      dup7\n        /* \"contracts/Admin.sol\":9158:9209  farmerProductIDList[farmerAddress].push(_productID) */\n      swap1\n      dup1\n      0x01\n      dup2\n      sload\n      add\n      dup1\n      dup3\n      sstore\n      dup1\n      swap2\n      pop\n      pop\n      0x01\n      swap1\n      sub\n      swap1\n      0x00\n      mstore\n      keccak256(0x00, 0x20)\n      add\n      0x00\n      swap1\n      swap2\n      swap1\n      swap2\n      swap1\n      swap2\n      pop\n      sstore\n        /* \"contracts/Admin.sol\":9246:9624  stakeholders.Product(... */\n      mload(0x40)\n      dup1\n      0xc0\n      add\n      0x40\n      mstore\n      dup1\n        /* \"contracts/Admin.sol\":9305:9315  _productID */\n      dup8\n        /* \"contracts/Admin.sol\":9246:9624  stakeholders.Product(... */\n      dup2\n      mstore\n      0x20\n      add\n        /* \"contracts/Admin.sol\":9354:9367  _pluckingDate */\n      dup7\n        /* \"contracts/Admin.sol\":9246:9624  stakeholders.Product(... */\n      dup2\n      mstore\n      0x20\n      add\n        /* \"contracts/Admin.sol\":9406:9419  farmerAddress */\n      dup3\n        /* \"contracts/Admin.sol\":9246:9624  stakeholders.Product(... */\n      0xffffffffffffffffffffffffffffffffffffffff\n      and\n      dup2\n      mstore\n      0x20\n      add\n        /* \"contracts/Admin.sol\":9458:9469  _coffeeType */\n      dup6\n        /* \"contracts/Admin.sol\":9246:9624  stakeholders.Product(... */\n      0x02\n      dup2\n      gt\n      iszero\n      tag_80\n      jumpi\n      tag_81\n      tag_82\n      jump\t// in\n    tag_81:\n    tag_80:\n      dup2\n      mstore\n      0x20\n      add\n        /* \"contracts/Admin.sol\":9508:9521  _harvestAmtKg */\n      dup5\n        /* \"contracts/Admin.sol\":9246:9624  stakeholders.Product(... */\n      dup2\n      mstore\n      0x20\n      add\n        /* \"contracts/Admin.sol\":9560:9577  _processingMethod */\n      dup4\n        /* \"contracts/Admin.sol\":9246:9624  stakeholders.Product(... */\n      0x03\n      dup2\n      gt\n      iszero\n      tag_83\n      jumpi\n      tag_84\n      tag_82\n      jump\t// in\n    tag_84:\n    tag_83:\n      dup2\n      mstore\n      pop\n        /* \"contracts/Admin.sol\":9220:9231  productList */\n      0x02\n        /* \"contracts/Admin.sol\":9220:9243  productList[_productID] */\n      0x00\n        /* \"contracts/Admin.sol\":9232:9242  _productID */\n      dup9\n        /* \"contracts/Admin.sol\":9220:9243  productList[_productID] */\n      dup2\n      mstore\n      0x20\n      add\n      swap1\n      dup2\n      mstore\n      0x20\n      add\n      0x00\n      keccak256\n        /* \"contracts/Admin.sol\":9220:9624  productList[_productID] = stakeholders.Product(... */\n      0x00\n      dup3\n      add\n      mload\n      dup2\n      0x00\n      add\n      sstore\n      0x20\n      dup3\n      add\n      mload\n      dup2\n      0x01\n      add\n      sstore\n      0x40\n      dup3\n      add\n      mload\n      dup2\n      0x02\n      add\n      exp(0x0100, 0x00)\n      dup2\n      sload\n      dup2\n      0xffffffffffffffffffffffffffffffffffffffff\n      mul\n      not\n      and\n      swap1\n      dup4\n      0xffffffffffffffffffffffffffffffffffffffff\n      and\n      mul\n      or\n      swap1\n      sstore\n      pop\n      0x60\n      dup3\n      add\n      mload\n      dup2\n      0x02\n      add\n      exp(0x0100, 0x14)\n      dup2\n      sload\n      dup2\n      0xff\n      mul\n      not\n      and\n      swap1\n      dup4\n      0x02\n      dup2\n      gt\n      iszero\n      tag_85\n      jumpi\n      tag_86\n      tag_82\n      jump\t// in\n    tag_86:\n    tag_85:\n      mul\n      or\n      swap1\n      sstore\n      pop\n      0x80\n      dup3\n      add\n      mload\n      dup2\n      0x03\n      add\n      sstore\n      0xa0\n      dup3\n      add\n      mload\n      dup2\n      0x04\n      add\n      exp(0x0100, 0x00)\n      dup2\n      sload\n      dup2\n      0xff\n      mul\n      not\n      and\n      swap1\n      dup4\n      0x03\n      dup2\n      gt\n      iszero\n      tag_87\n      jumpi\n      tag_88\n      tag_82\n      jump\t// in\n    tag_88:\n    tag_87:\n      mul\n      or\n      swap1\n      sstore\n      pop\n      swap1\n      pop\n      pop\n        /* \"contracts/Admin.sol\":9006:9632  {... */\n      pop\n        /* \"contracts/Admin.sol\":8699:9632  function addProduct(uint _productID,... */\n      pop\n      pop\n      pop\n      pop\n      pop\n      jump\t// out\n        /* \"contracts/Admin.sol\":7829:8496  function getProductDetails (uint _productID) public view returns (uint productID, uint pluckingDate, address registeredBy, stakeholders.CoffeeType coffeeType, uint harvestAmtKg, stakeholders.ProcessingMethod processingMethod) {... */\n    tag_36:\n        /* \"contracts/Admin.sol\":7895:7909  uint productID */\n      0x00\n        /* \"contracts/Admin.sol\":7911:7928  uint pluckingDate */\n      dup1\n        /* \"contracts/Admin.sol\":7930:7950  address registeredBy */\n      0x00\n        /* \"contracts/Admin.sol\":7952:7986  stakeholders.CoffeeType coffeeType */\n      dup1\n        /* \"contracts/Admin.sol\":7988:8005  uint harvestAmtKg */\n      0x00\n        /* \"contracts/Admin.sol\":8007:8053  stakeholders.ProcessingMethod processingMethod */\n      dup1\n        /* \"contracts/Admin.sol\":8074:8105  isRegisteredProduct(_productID) */\n      tag_90\n        /* \"contracts/Admin.sol\":8094:8104  _productID */\n      dup8\n        /* \"contracts/Admin.sol\":8074:8093  isRegisteredProduct */\n      tag_17\n        /* \"contracts/Admin.sol\":8074:8105  isRegisteredProduct(_productID) */\n      jump\t// in\n    tag_90:\n        /* \"contracts/Admin.sol\":8066:8146  require(isRegisteredProduct(_productID), \"Product not registered! Reverting...\") */\n      tag_91\n      jumpi\n      mload(0x40)\n      0x08c379a000000000000000000000000000000000000000000000000000000000\n      dup2\n      mstore\n      0x04\n      add\n      tag_92\n      swap1\n      tag_93\n      jump\t// in\n    tag_92:\n      mload(0x40)\n      dup1\n      swap2\n      sub\n      swap1\n      revert\n    tag_91:\n        /* \"contracts/Admin.sol\":8169:8179  _productID */\n      dup7\n        /* \"contracts/Admin.sol\":8157:8179  productID = _productID */\n      swap6\n      pop\n        /* \"contracts/Admin.sol\":8205:8216  productList */\n      0x02\n        /* \"contracts/Admin.sol\":8205:8227  productList[productID] */\n      0x00\n        /* \"contracts/Admin.sol\":8217:8226  productID */\n      dup8\n        /* \"contracts/Admin.sol\":8205:8227  productList[productID] */\n      dup2\n      mstore\n      0x20\n      add\n      swap1\n      dup2\n      mstore\n      0x20\n      add\n      0x00\n      keccak256\n        /* \"contracts/Admin.sol\":8205:8240  productList[productID].pluckingDate */\n      0x01\n      add\n      sload\n        /* \"contracts/Admin.sol\":8190:8240  pluckingDate = productList[productID].pluckingDate */\n      swap5\n      pop\n        /* \"contracts/Admin.sol\":8266:8277  productList */\n      0x02\n        /* \"contracts/Admin.sol\":8266:8288  productList[productID] */\n      0x00\n        /* \"contracts/Admin.sol\":8278:8287  productID */\n      dup8\n        /* \"contracts/Admin.sol\":8266:8288  productList[productID] */\n      dup2\n      mstore\n      0x20\n      add\n      swap1\n      dup2\n      mstore\n      0x20\n      add\n      0x00\n      keccak256\n        /* \"contracts/Admin.sol\":8266:8301  productList[productID].registeredBy */\n      0x02\n      add\n      0x00\n      swap1\n      sload\n      swap1\n      0x0100\n      exp\n      swap1\n      div\n      0xffffffffffffffffffffffffffffffffffffffff\n      and\n        /* \"contracts/Admin.sol\":8251:8301  registeredBy = productList[productID].registeredBy */\n      swap4\n      pop\n        /* \"contracts/Admin.sol\":8325:8336  productList */\n      0x02\n        /* \"contracts/Admin.sol\":8325:8347  productList[productID] */\n      0x00\n        /* \"contracts/Admin.sol\":8337:8346  productID */\n      dup8\n        /* \"contracts/Admin.sol\":8325:8347  productList[productID] */\n      dup2\n      mstore\n      0x20\n      add\n      swap1\n      dup2\n      mstore\n      0x20\n      add\n      0x00\n      keccak256\n        /* \"contracts/Admin.sol\":8325:8358  productList[productID].coffeeType */\n      0x02\n      add\n      0x14\n      swap1\n      sload\n      swap1\n      0x0100\n      exp\n      swap1\n      div\n      0xff\n      and\n        /* \"contracts/Admin.sol\":8312:8358  coffeeType = productList[productID].coffeeType */\n      swap3\n      pop\n        /* \"contracts/Admin.sol\":8384:8395  productList */\n      0x02\n        /* \"contracts/Admin.sol\":8384:8406  productList[productID] */\n      0x00\n        /* \"contracts/Admin.sol\":8396:8405  productID */\n      dup8\n        /* \"contracts/Admin.sol\":8384:8406  productList[productID] */\n      dup2\n      mstore\n      0x20\n      add\n      swap1\n      dup2\n      mstore\n      0x20\n      add\n      0x00\n      keccak256\n        /* \"contracts/Admin.sol\":8384:8419  productList[productID].harvestAmtKg */\n      0x03\n      add\n      sload\n        /* \"contracts/Admin.sol\":8369:8419  harvestAmtKg = productList[productID].harvestAmtKg */\n      swap2\n      pop\n        /* \"contracts/Admin.sol\":8449:8460  productList */\n      0x02\n        /* \"contracts/Admin.sol\":8449:8471  productList[productID] */\n      0x00\n        /* \"contracts/Admin.sol\":8461:8470  productID */\n      dup8\n        /* \"contracts/Admin.sol\":8449:8471  productList[productID] */\n      dup2\n      mstore\n      0x20\n      add\n      swap1\n      dup2\n      mstore\n      0x20\n      add\n      0x00\n      keccak256\n        /* \"contracts/Admin.sol\":8449:8488  productList[productID].processingMethod */\n      0x04\n      add\n      0x00\n      swap1\n      sload\n      swap1\n      0x0100\n      exp\n      swap1\n      div\n      0xff\n      and\n        /* \"contracts/Admin.sol\":8430:8488  processingMethod = productList[productID].processingMethod */\n      swap1\n      pop\n        /* \"contracts/Admin.sol\":7829:8496  function getProductDetails (uint _productID) public view returns (uint productID, uint pluckingDate, address registeredBy, stakeholders.CoffeeType coffeeType, uint harvestAmtKg, stakeholders.ProcessingMethod processingMethod) {... */\n      swap2\n      swap4\n      swap6\n      pop\n      swap2\n      swap4\n      swap6\n      jump\t// out\n        /* \"contracts/Admin.sol\":6436:6697  function getProductList(address _farmerAddress) public view returns (uint[] memory productIDList) {... */\n    tag_41:\n        /* \"contracts/Admin.sol\":6505:6532  uint[] memory productIDList */\n      0x60\n        /* \"contracts/Admin.sol\":6553:6587  isRegisteredFarmer(_farmerAddress) */\n      tag_95\n        /* \"contracts/Admin.sol\":6572:6586  _farmerAddress */\n      dup3\n        /* \"contracts/Admin.sol\":6553:6571  isRegisteredFarmer */\n      tag_23\n        /* \"contracts/Admin.sol\":6553:6587  isRegisteredFarmer(_farmerAddress) */\n      jump\t// in\n    tag_95:\n        /* \"contracts/Admin.sol\":6545:6627  require(isRegisteredFarmer(_farmerAddress), \"Farmer not registered! Reverting...\") */\n      tag_96\n      jumpi\n      mload(0x40)\n      0x08c379a000000000000000000000000000000000000000000000000000000000\n      dup2\n      mstore\n      0x04\n      add\n      tag_97\n      swap1\n      tag_66\n      jump\t// in\n    tag_97:\n      mload(0x40)\n      dup1\n      swap2\n      sub\n      swap1\n      revert\n    tag_96:\n        /* \"contracts/Admin.sol\":6654:6673  farmerProductIDList */\n      0x01\n        /* \"contracts/Admin.sol\":6654:6689  farmerProductIDList[_farmerAddress] */\n      0x00\n        /* \"contracts/Admin.sol\":6674:6688  _farmerAddress */\n      dup4\n        /* \"contracts/Admin.sol\":6654:6689  farmerProductIDList[_farmerAddress] */\n      0xffffffffffffffffffffffffffffffffffffffff\n      and\n      0xffffffffffffffffffffffffffffffffffffffff\n      and\n      dup2\n      mstore\n      0x20\n      add\n      swap1\n      dup2\n      mstore\n      0x20\n      add\n      0x00\n      keccak256\n        /* \"contracts/Admin.sol\":6638:6689  productIDList = farmerProductIDList[_farmerAddress] */\n      dup1\n      sload\n      dup1\n      0x20\n      mul\n      0x20\n      add\n      mload(0x40)\n      swap1\n      dup2\n      add\n      0x40\n      mstore\n      dup1\n      swap3\n      swap2\n      swap1\n      dup2\n      dup2\n      mstore\n      0x20\n      add\n      dup3\n      dup1\n      sload\n      dup1\n      iszero\n      tag_98\n      jumpi\n      0x20\n      mul\n      dup3\n      add\n      swap2\n      swap1\n      0x00\n      mstore\n      keccak256(0x00, 0x20)\n      swap1\n    tag_99:\n      dup2\n      sload\n      dup2\n      mstore\n      0x20\n      add\n      swap1\n      0x01\n      add\n      swap1\n      dup1\n      dup4\n      gt\n      tag_99\n      jumpi\n    tag_98:\n      pop\n      pop\n      pop\n      pop\n      pop\n      swap1\n      pop\n        /* \"contracts/Admin.sol\":6436:6697  function getProductList(address _farmerAddress) public view returns (uint[] memory productIDList) {... */\n      swap2\n      swap1\n      pop\n      jump\t// out\n        /* \"contracts/Admin.sol\":2993:3083  function getFarmerCount() public view returns (uint) {... */\n    tag_45:\n        /* \"contracts/Admin.sol\":3040:3044  uint */\n      0x00\n        /* \"contracts/Admin.sol\":3064:3075  farmerCount */\n      dup1\n      sload\n        /* \"contracts/Admin.sol\":3057:3075  return farmerCount */\n      swap1\n      pop\n        /* \"contracts/Admin.sol\":2993:3083  function getFarmerCount() public view returns (uint) {... */\n      swap1\n      jump\t// out\n        /* \"contracts/Admin.sol\":4380:4873  function getFarmerDetails (address _farmerAddress) public view returns (address __farmerAddress, uint _farmerID, string memory _farmerName, string memory _estateName) {... */\n    tag_49:\n        /* \"contracts/Admin.sol\":4452:4475  address __farmerAddress */\n      0x00\n        /* \"contracts/Admin.sol\":4477:4491  uint _farmerID */\n      dup1\n        /* \"contracts/Admin.sol\":4493:4518  string memory _farmerName */\n      0x60\n        /* \"contracts/Admin.sol\":4520:4545  string memory _estateName */\n      dup1\n        /* \"contracts/Admin.sol\":4566:4600  isRegisteredFarmer(_farmerAddress) */\n      tag_102\n        /* \"contracts/Admin.sol\":4585:4599  _farmerAddress */\n      dup6\n        /* \"contracts/Admin.sol\":4566:4584  isRegisteredFarmer */\n      tag_23\n        /* \"contracts/Admin.sol\":4566:4600  isRegisteredFarmer(_farmerAddress) */\n      jump\t// in\n    tag_102:\n        /* \"contracts/Admin.sol\":4558:4640  require(isRegisteredFarmer(_farmerAddress), \"Farmer not registered! Reverting...\") */\n      tag_103\n      jumpi\n      mload(0x40)\n      0x08c379a000000000000000000000000000000000000000000000000000000000\n      dup2\n      mstore\n      0x04\n      add\n      tag_104\n      swap1\n      tag_66\n      jump\t// in\n    tag_104:\n      mload(0x40)\n      dup1\n      swap2\n      sub\n      swap1\n      revert\n    tag_103:\n        /* \"contracts/Admin.sol\":4669:4683  _farmerAddress */\n      dup5\n        /* \"contracts/Admin.sol\":4651:4683  __farmerAddress = _farmerAddress */\n      swap4\n      pop\n        /* \"contracts/Admin.sol\":4706:4716  farmerList */\n      0x03\n        /* \"contracts/Admin.sol\":4706:4732  farmerList[_farmerAddress] */\n      0x00\n        /* \"contracts/Admin.sol\":4717:4731  _farmerAddress */\n      dup7\n        /* \"contracts/Admin.sol\":4706:4732  farmerList[_farmerAddress] */\n      0xffffffffffffffffffffffffffffffffffffffff\n      and\n      0xffffffffffffffffffffffffffffffffffffffff\n      and\n      dup2\n      mstore\n      0x20\n      add\n      swap1\n      dup2\n      mstore\n      0x20\n      add\n      0x00\n      keccak256\n        /* \"contracts/Admin.sol\":4706:4741  farmerList[_farmerAddress].farmerID */\n      0x01\n      add\n      sload\n        /* \"contracts/Admin.sol\":4694:4741  _farmerID = farmerList[_farmerAddress].farmerID */\n      swap3\n      pop\n        /* \"contracts/Admin.sol\":4766:4776  farmerList */\n      0x03\n        /* \"contracts/Admin.sol\":4766:4792  farmerList[_farmerAddress] */\n      0x00\n        /* \"contracts/Admin.sol\":4777:4791  _farmerAddress */\n      dup7\n        /* \"contracts/Admin.sol\":4766:4792  farmerList[_farmerAddress] */\n      0xffffffffffffffffffffffffffffffffffffffff\n      and\n      0xffffffffffffffffffffffffffffffffffffffff\n      and\n      dup2\n      mstore\n      0x20\n      add\n      swap1\n      dup2\n      mstore\n      0x20\n      add\n      0x00\n      keccak256\n        /* \"contracts/Admin.sol\":4766:4803  farmerList[_farmerAddress].farmerName */\n      0x02\n      add\n        /* \"contracts/Admin.sol\":4752:4803  _farmerName = farmerList[_farmerAddress].farmerName */\n      dup1\n      sload\n      tag_105\n      swap1\n      tag_106\n      jump\t// in\n    tag_105:\n      dup1\n      0x1f\n      add\n      0x20\n      dup1\n      swap2\n      div\n      mul\n      0x20\n      add\n      mload(0x40)\n      swap1\n      dup2\n      add\n      0x40\n      mstore\n      dup1\n      swap3\n      swap2\n      swap1\n      dup2\n      dup2\n      mstore\n      0x20\n      add\n      dup3\n      dup1\n      sload\n      tag_107\n      swap1\n      tag_106\n      jump\t// in\n    tag_107:\n      dup1\n      iszero\n      tag_108\n      jumpi\n      dup1\n      0x1f\n      lt\n      tag_109\n      jumpi\n      0x0100\n      dup1\n      dup4\n      sload\n      div\n      mul\n      dup4\n      mstore\n      swap2\n      0x20\n      add\n      swap2\n      jump(tag_108)\n    tag_109:\n      dup3\n      add\n      swap2\n      swap1\n      0x00\n      mstore\n      keccak256(0x00, 0x20)\n      swap1\n    tag_110:\n      dup2\n      sload\n      dup2\n      mstore\n      swap1\n      0x01\n      add\n      swap1\n      0x20\n      add\n      dup1\n      dup4\n      gt\n      tag_110\n      jumpi\n      dup3\n      swap1\n      sub\n      0x1f\n      and\n      dup3\n      add\n      swap2\n    tag_108:\n      pop\n      pop\n      pop\n      pop\n      pop\n      swap2\n      pop\n        /* \"contracts/Admin.sol\":4828:4838  farmerList */\n      0x03\n        /* \"contracts/Admin.sol\":4828:4854  farmerList[_farmerAddress] */\n      0x00\n        /* \"contracts/Admin.sol\":4839:4853  _farmerAddress */\n      dup7\n        /* \"contracts/Admin.sol\":4828:4854  farmerList[_farmerAddress] */\n      0xffffffffffffffffffffffffffffffffffffffff\n      and\n      0xffffffffffffffffffffffffffffffffffffffff\n      and\n      dup2\n      mstore\n      0x20\n      add\n      swap1\n      dup2\n      mstore\n      0x20\n      add\n      0x00\n      keccak256\n        /* \"contracts/Admin.sol\":4828:4865  farmerList[_farmerAddress].estateName */\n      0x03\n      add\n        /* \"contracts/Admin.sol\":4814:4865  _estateName = farmerList[_farmerAddress].estateName */\n      dup1\n      sload\n      tag_111\n      swap1\n      tag_106\n      jump\t// in\n    tag_111:\n      dup1\n      0x1f\n      add\n      0x20\n      dup1\n      swap2\n      div\n      mul\n      0x20\n      add\n      mload(0x40)\n      swap1\n      dup2\n      add\n      0x40\n      mstore\n      dup1\n      swap3\n      swap2\n      swap1\n      dup2\n      dup2\n      mstore\n      0x20\n      add\n      dup3\n      dup1\n      sload\n      tag_112\n      swap1\n      tag_106\n      jump\t// in\n    tag_112:\n      dup1\n      iszero\n      tag_113\n      jumpi\n      dup1\n      0x1f\n      lt\n      tag_114\n      jumpi\n      0x0100\n      dup1\n      dup4\n      sload\n      div\n      mul\n      dup4\n      mstore\n      swap2\n      0x20\n      add\n      swap2\n      jump(tag_113)\n    tag_114:\n      dup3\n      add\n      swap2\n      swap1\n      0x00\n      mstore\n      keccak256(0x00, 0x20)\n      swap1\n    tag_115:\n      dup2\n      sload\n      dup2\n      mstore\n      swap1\n      0x01\n      add\n      swap1\n      0x20\n      add\n      dup1\n      dup4\n      gt\n      tag_115\n      jumpi\n      dup3\n      swap1\n      sub\n      0x1f\n      and\n      dup3\n      add\n      swap2\n    tag_113:\n      pop\n      pop\n      pop\n      pop\n      pop\n      swap1\n      pop\n        /* \"contracts/Admin.sol\":4380:4873  function getFarmerDetails (address _farmerAddress) public view returns (address __farmerAddress, uint _farmerID, string memory _farmerName, string memory _estateName) {... */\n      swap2\n      swap4\n      pop\n      swap2\n      swap4\n      jump\t// out\n        /* \"contracts/Admin.sol\":4991:5677  function addFarmer(address _farmerAddress,... */\n    tag_55:\n        /* \"contracts/Admin.sol\":2545:2550  admin */\n      0x04\n      0x00\n      swap1\n      sload\n      swap1\n      0x0100\n      exp\n      swap1\n      div\n      0xffffffffffffffffffffffffffffffffffffffff\n      and\n        /* \"contracts/Admin.sol\":2531:2550  msg.sender == admin */\n      0xffffffffffffffffffffffffffffffffffffffff\n      and\n        /* \"contracts/Admin.sol\":2531:2541  msg.sender */\n      caller\n        /* \"contracts/Admin.sol\":2531:2550  msg.sender == admin */\n      0xffffffffffffffffffffffffffffffffffffffff\n      and\n      eq\n        /* \"contracts/Admin.sol\":2523:2606  require(msg.sender == admin, \"Only the System Admin is authorised for this action\") */\n      tag_117\n      jumpi\n      mload(0x40)\n      0x08c379a000000000000000000000000000000000000000000000000000000000\n      dup2\n      mstore\n      0x04\n      add\n      tag_118\n      swap1\n      tag_119\n      jump\t// in\n    tag_118:\n      mload(0x40)\n      dup1\n      swap2\n      sub\n      swap1\n      revert\n    tag_117:\n        /* \"contracts/Admin.sol\":5242:5276  isRegisteredFarmer(_farmerAddress) */\n      tag_121\n        /* \"contracts/Admin.sol\":5261:5275  _farmerAddress */\n      dup7\n        /* \"contracts/Admin.sol\":5242:5260  isRegisteredFarmer */\n      tag_23\n        /* \"contracts/Admin.sol\":5242:5276  isRegisteredFarmer(_farmerAddress) */\n      jump\t// in\n    tag_121:\n        /* \"contracts/Admin.sol\":5241:5276  !isRegisteredFarmer(_farmerAddress) */\n      iszero\n        /* \"contracts/Admin.sol\":5233:5320  require(!isRegisteredFarmer(_farmerAddress), \"Farmer already registered! Reverting...\") */\n      tag_122\n      jumpi\n      mload(0x40)\n      0x08c379a000000000000000000000000000000000000000000000000000000000\n      dup2\n      mstore\n      0x04\n      add\n      tag_123\n      swap1\n      tag_124\n      jump\t// in\n    tag_123:\n      mload(0x40)\n      dup1\n      swap2\n      sub\n      swap1\n      revert\n    tag_122:\n        /* \"contracts/Admin.sol\":5360:5639  stakeholders.Farmer(... */\n      mload(0x40)\n      dup1\n      0x80\n      add\n      0x40\n      mstore\n      dup1\n        /* \"contracts/Admin.sol\":5422:5436  _farmerAddress */\n      dup8\n        /* \"contracts/Admin.sol\":5360:5639  stakeholders.Farmer(... */\n      0xffffffffffffffffffffffffffffffffffffffff\n      and\n      dup2\n      mstore\n      0x20\n      add\n        /* \"contracts/Admin.sol\":5479:5488  _farmerID */\n      dup7\n        /* \"contracts/Admin.sol\":5360:5639  stakeholders.Farmer(... */\n      dup2\n      mstore\n      0x20\n      add\n        /* \"contracts/Admin.sol\":5531:5542  _farmerName */\n      dup6\n      dup6\n        /* \"contracts/Admin.sol\":5360:5639  stakeholders.Farmer(... */\n      dup1\n      dup1\n      0x1f\n      add\n      0x20\n      dup1\n      swap2\n      div\n      mul\n      0x20\n      add\n      mload(0x40)\n      swap1\n      dup2\n      add\n      0x40\n      mstore\n      dup1\n      swap4\n      swap3\n      swap2\n      swap1\n      dup2\n      dup2\n      mstore\n      0x20\n      add\n      dup4\n      dup4\n      dup1\n      dup3\n      dup5\n      calldatacopy\n      0x00\n      dup2\n      dup5\n      add\n      mstore\n      not(0x1f)\n      0x1f\n      dup3\n      add\n      and\n      swap1\n      pop\n      dup1\n      dup4\n      add\n      swap3\n      pop\n      pop\n      pop\n      pop\n      pop\n      pop\n      pop\n      dup2\n      mstore\n      0x20\n      add\n        /* \"contracts/Admin.sol\":5585:5596  _estateName */\n      dup4\n      dup4\n        /* \"contracts/Admin.sol\":5360:5639  stakeholders.Farmer(... */\n      dup1\n      dup1\n      0x1f\n      add\n      0x20\n      dup1\n      swap2\n      div\n      mul\n      0x20\n      add\n      mload(0x40)\n      swap1\n      dup2\n      add\n      0x40\n      mstore\n      dup1\n      swap4\n      swap3\n      swap2\n      swap1\n      dup2\n      dup2\n      mstore\n      0x20\n      add\n      dup4\n      dup4\n      dup1\n      dup3\n      dup5\n      calldatacopy\n      0x00\n      dup2\n      dup5\n      add\n      mstore\n      not(0x1f)\n      0x1f\n      dup3\n      add\n      and\n      swap1\n      pop\n      dup1\n      dup4\n      add\n      swap3\n      pop\n      pop\n      pop\n      pop\n      pop\n      pop\n      pop\n      dup2\n      mstore\n      pop\n        /* \"contracts/Admin.sol\":5331:5341  farmerList */\n      0x03\n        /* \"contracts/Admin.sol\":5331:5357  farmerList[_farmerAddress] */\n      0x00\n        /* \"contracts/Admin.sol\":5342:5356  _farmerAddress */\n      dup9\n        /* \"contracts/Admin.sol\":5331:5357  farmerList[_farmerAddress] */\n      0xffffffffffffffffffffffffffffffffffffffff\n      and\n      0xffffffffffffffffffffffffffffffffffffffff\n      and\n      dup2\n      mstore\n      0x20\n      add\n      swap1\n      dup2\n      mstore\n      0x20\n      add\n      0x00\n      keccak256\n        /* \"contracts/Admin.sol\":5331:5639  farmerList[_farmerAddress] = stakeholders.Farmer(... */\n      0x00\n      dup3\n      add\n      mload\n      dup2\n      0x00\n      add\n      exp(0x0100, 0x00)\n      dup2\n      sload\n      dup2\n      0xffffffffffffffffffffffffffffffffffffffff\n      mul\n      not\n      and\n      swap1\n      dup4\n      0xffffffffffffffffffffffffffffffffffffffff\n      and\n      mul\n      or\n      swap1\n      sstore\n      pop\n      0x20\n      dup3\n      add\n      mload\n      dup2\n      0x01\n      add\n      sstore\n      0x40\n      dup3\n      add\n      mload\n      dup2\n      0x02\n      add\n      swap1\n      dup2\n      tag_125\n      swap2\n      swap1\n      tag_126\n      jump\t// in\n    tag_125:\n      pop\n      0x60\n      dup3\n      add\n      mload\n      dup2\n      0x03\n      add\n      swap1\n      dup2\n      tag_127\n      swap2\n      swap1\n      tag_126\n      jump\t// in\n    tag_127:\n      pop\n      swap1\n      pop\n      pop\n        /* \"contracts/Admin.sol\":5650:5669  updateFarmerCount() */\n      tag_128\n        /* \"contracts/Admin.sol\":5650:5667  updateFarmerCount */\n      tag_129\n        /* \"contracts/Admin.sol\":5650:5669  updateFarmerCount() */\n      jump\t// in\n    tag_128:\n        /* \"contracts/Admin.sol\":4991:5677  function addFarmer(address _farmerAddress,... */\n      pop\n      pop\n      pop\n      pop\n      pop\n      pop\n      jump\t// out\n        /* \"contracts/Admin.sol\":2387:2420  address public admin = msg.sender */\n    tag_57:\n      0x04\n      0x00\n      swap1\n      sload\n      swap1\n      0x0100\n      exp\n      swap1\n      div\n      0xffffffffffffffffffffffffffffffffffffffff\n      and\n      dup2\n      jump\t// out\n        /* \"contracts/Admin.sol\":3192:3274  function updateFarmerCount() onlyAdmin private {... */\n    tag_129:\n        /* \"contracts/Admin.sol\":2545:2550  admin */\n      0x04\n      0x00\n      swap1\n      sload\n      swap1\n      0x0100\n      exp\n      swap1\n      div\n      0xffffffffffffffffffffffffffffffffffffffff\n      and\n        /* \"contracts/Admin.sol\":2531:2550  msg.sender == admin */\n      0xffffffffffffffffffffffffffffffffffffffff\n      and\n        /* \"contracts/Admin.sol\":2531:2541  msg.sender */\n      caller\n        /* \"contracts/Admin.sol\":2531:2550  msg.sender == admin */\n      0xffffffffffffffffffffffffffffffffffffffff\n      and\n      eq\n        /* \"contracts/Admin.sol\":2523:2606  require(msg.sender == admin, \"Only the System Admin is authorised for this action\") */\n      tag_131\n      jumpi\n      mload(0x40)\n      0x08c379a000000000000000000000000000000000000000000000000000000000\n      dup2\n      mstore\n      0x04\n      add\n      tag_132\n      swap1\n      tag_119\n      jump\t// in\n    tag_132:\n      mload(0x40)\n      dup1\n      swap2\n      sub\n      swap1\n      revert\n    tag_131:\n        /* \"contracts/Admin.sol\":3265:3266  1 */\n      0x01\n        /* \"contracts/Admin.sol\":3250:3261  farmerCount */\n      0x00\n      dup1\n        /* \"contracts/Admin.sol\":3250:3266  farmerCount += 1 */\n      dup3\n      dup3\n      sload\n      tag_134\n      swap2\n      swap1\n      tag_135\n      jump\t// in\n    tag_134:\n      swap3\n      pop\n      pop\n      dup2\n      swap1\n      sstore\n      pop\n        /* \"contracts/Admin.sol\":3192:3274  function updateFarmerCount() onlyAdmin private {... */\n      jump\t// out\n        /* \"#utility.yul\":88:205   */\n    tag_137:\n        /* \"#utility.yul\":197:198   */\n      0x00\n        /* \"#utility.yul\":194:195   */\n      dup1\n        /* \"#utility.yul\":187:199   */\n      revert\n        /* \"#utility.yul\":211:328   */\n    tag_138:\n        /* \"#utility.yul\":320:321   */\n      0x00\n        /* \"#utility.yul\":317:318   */\n      dup1\n        /* \"#utility.yul\":310:322   */\n      revert\n        /* \"#utility.yul\":334:411   */\n    tag_139:\n        /* \"#utility.yul\":371:378   */\n      0x00\n        /* \"#utility.yul\":400:405   */\n      dup2\n        /* \"#utility.yul\":389:405   */\n      swap1\n      pop\n        /* \"#utility.yul\":334:411   */\n      swap2\n      swap1\n      pop\n      jump\t// out\n        /* \"#utility.yul\":417:539   */\n    tag_140:\n        /* \"#utility.yul\":490:514   */\n      tag_214\n        /* \"#utility.yul\":508:513   */\n      dup2\n        /* \"#utility.yul\":490:514   */\n      tag_139\n      jump\t// in\n    tag_214:\n        /* \"#utility.yul\":483:488   */\n      dup2\n        /* \"#utility.yul\":480:515   */\n      eq\n        /* \"#utility.yul\":470:533   */\n      tag_215\n      jumpi\n        /* \"#utility.yul\":529:530   */\n      0x00\n        /* \"#utility.yul\":526:527   */\n      dup1\n        /* \"#utility.yul\":519:531   */\n      revert\n        /* \"#utility.yul\":470:533   */\n    tag_215:\n        /* \"#utility.yul\":417:539   */\n      pop\n      jump\t// out\n        /* \"#utility.yul\":545:684   */\n    tag_141:\n        /* \"#utility.yul\":591:596   */\n      0x00\n        /* \"#utility.yul\":629:635   */\n      dup2\n        /* \"#utility.yul\":616:636   */\n      calldataload\n        /* \"#utility.yul\":607:636   */\n      swap1\n      pop\n        /* \"#utility.yul\":645:678   */\n      tag_217\n        /* \"#utility.yul\":672:677   */\n      dup2\n        /* \"#utility.yul\":645:678   */\n      tag_140\n      jump\t// in\n    tag_217:\n        /* \"#utility.yul\":545:684   */\n      swap3\n      swap2\n      pop\n      pop\n      jump\t// out\n        /* \"#utility.yul\":690:1019   */\n    tag_16:\n        /* \"#utility.yul\":749:755   */\n      0x00\n        /* \"#utility.yul\":798:800   */\n      0x20\n        /* \"#utility.yul\":786:795   */\n      dup3\n        /* \"#utility.yul\":777:784   */\n      dup5\n        /* \"#utility.yul\":773:796   */\n      sub\n        /* \"#utility.yul\":769:801   */\n      slt\n        /* \"#utility.yul\":766:885   */\n      iszero\n      tag_219\n      jumpi\n        /* \"#utility.yul\":804:883   */\n      tag_220\n      tag_137\n      jump\t// in\n    tag_220:\n        /* \"#utility.yul\":766:885   */\n    tag_219:\n        /* \"#utility.yul\":924:925   */\n      0x00\n        /* \"#utility.yul\":949:1002   */\n      tag_221\n        /* \"#utility.yul\":994:1001   */\n      dup5\n        /* \"#utility.yul\":985:991   */\n      dup3\n        /* \"#utility.yul\":974:983   */\n      dup6\n        /* \"#utility.yul\":970:992   */\n      add\n        /* \"#utility.yul\":949:1002   */\n      tag_141\n      jump\t// in\n    tag_221:\n        /* \"#utility.yul\":939:1002   */\n      swap2\n      pop\n        /* \"#utility.yul\":895:1012   */\n      pop\n        /* \"#utility.yul\":690:1019   */\n      swap3\n      swap2\n      pop\n      pop\n      jump\t// out\n        /* \"#utility.yul\":1025:1115   */\n    tag_142:\n        /* \"#utility.yul\":1059:1066   */\n      0x00\n        /* \"#utility.yul\":1102:1107   */\n      dup2\n        /* \"#utility.yul\":1095:1108   */\n      iszero\n        /* \"#utility.yul\":1088:1109   */\n      iszero\n        /* \"#utility.yul\":1077:1109   */\n      swap1\n      pop\n        /* \"#utility.yul\":1025:1115   */\n      swap2\n      swap1\n      pop\n      jump\t// out\n        /* \"#utility.yul\":1121:1230   */\n    tag_143:\n        /* \"#utility.yul\":1202:1223   */\n      tag_224\n        /* \"#utility.yul\":1217:1222   */\n      dup2\n        /* \"#utility.yul\":1202:1223   */\n      tag_142\n      jump\t// in\n    tag_224:\n        /* \"#utility.yul\":1197:1200   */\n      dup3\n        /* \"#utility.yul\":1190:1224   */\n      mstore\n        /* \"#utility.yul\":1121:1230   */\n      pop\n      pop\n      jump\t// out\n        /* \"#utility.yul\":1236:1446   */\n    tag_19:\n        /* \"#utility.yul\":1323:1327   */\n      0x00\n        /* \"#utility.yul\":1361:1363   */\n      0x20\n        /* \"#utility.yul\":1350:1359   */\n      dup3\n        /* \"#utility.yul\":1346:1364   */\n      add\n        /* \"#utility.yul\":1338:1364   */\n      swap1\n      pop\n        /* \"#utility.yul\":1374:1439   */\n      tag_226\n        /* \"#utility.yul\":1436:1437   */\n      0x00\n        /* \"#utility.yul\":1425:1434   */\n      dup4\n        /* \"#utility.yul\":1421:1438   */\n      add\n        /* \"#utility.yul\":1412:1418   */\n      dup5\n        /* \"#utility.yul\":1374:1439   */\n      tag_143\n      jump\t// in\n    tag_226:\n        /* \"#utility.yul\":1236:1446   */\n      swap3\n      swap2\n      pop\n      pop\n      jump\t// out\n        /* \"#utility.yul\":1452:1578   */\n    tag_144:\n        /* \"#utility.yul\":1489:1496   */\n      0x00\n        /* \"#utility.yul\":1529:1571   */\n      0xffffffffffffffffffffffffffffffffffffffff\n        /* \"#utility.yul\":1522:1527   */\n      dup3\n        /* \"#utility.yul\":1518:1572   */\n      and\n        /* \"#utility.yul\":1507:1572   */\n      swap1\n      pop\n        /* \"#utility.yul\":1452:1578   */\n      swap2\n      swap1\n      pop\n      jump\t// out\n        /* \"#utility.yul\":1584:1680   */\n    tag_145:\n        /* \"#utility.yul\":1621:1628   */\n      0x00\n        /* \"#utility.yul\":1650:1674   */\n      tag_229\n        /* \"#utility.yul\":1668:1673   */\n      dup3\n        /* \"#utility.yul\":1650:1674   */\n      tag_144\n      jump\t// in\n    tag_229:\n        /* \"#utility.yul\":1639:1674   */\n      swap1\n      pop\n        /* \"#utility.yul\":1584:1680   */\n      swap2\n      swap1\n      pop\n      jump\t// out\n        /* \"#utility.yul\":1686:1808   */\n    tag_146:\n        /* \"#utility.yul\":1759:1783   */\n      tag_231\n        /* \"#utility.yul\":1777:1782   */\n      dup2\n        /* \"#utility.yul\":1759:1783   */\n      tag_145\n      jump\t// in\n    tag_231:\n        /* \"#utility.yul\":1752:1757   */\n      dup2\n        /* \"#utility.yul\":1749:1784   */\n      eq\n        /* \"#utility.yul\":1739:1802   */\n      tag_232\n      jumpi\n        /* \"#utility.yul\":1798:1799   */\n      0x00\n        /* \"#utility.yul\":1795:1796   */\n      dup1\n        /* \"#utility.yul\":1788:1800   */\n      revert\n        /* \"#utility.yul\":1739:1802   */\n    tag_232:\n        /* \"#utility.yul\":1686:1808   */\n      pop\n      jump\t// out\n        /* \"#utility.yul\":1814:1953   */\n    tag_147:\n        /* \"#utility.yul\":1860:1865   */\n      0x00\n        /* \"#utility.yul\":1898:1904   */\n      dup2\n        /* \"#utility.yul\":1885:1905   */\n      calldataload\n        /* \"#utility.yul\":1876:1905   */\n      swap1\n      pop\n        /* \"#utility.yul\":1914:1947   */\n      tag_234\n        /* \"#utility.yul\":1941:1946   */\n      dup2\n        /* \"#utility.yul\":1914:1947   */\n      tag_146\n      jump\t// in\n    tag_234:\n        /* \"#utility.yul\":1814:1953   */\n      swap3\n      swap2\n      pop\n      pop\n      jump\t// out\n        /* \"#utility.yul\":1959:2288   */\n    tag_22:\n        /* \"#utility.yul\":2018:2024   */\n      0x00\n        /* \"#utility.yul\":2067:2069   */\n      0x20\n        /* \"#utility.yul\":2055:2064   */\n      dup3\n        /* \"#utility.yul\":2046:2053   */\n      dup5\n        /* \"#utility.yul\":2042:2065   */\n      sub\n        /* \"#utility.yul\":2038:2070   */\n      slt\n        /* \"#utility.yul\":2035:2154   */\n      iszero\n      tag_236\n      jumpi\n        /* \"#utility.yul\":2073:2152   */\n      tag_237\n      tag_137\n      jump\t// in\n    tag_237:\n        /* \"#utility.yul\":2035:2154   */\n    tag_236:\n        /* \"#utility.yul\":2193:2194   */\n      0x00\n        /* \"#utility.yul\":2218:2271   */\n      tag_238\n        /* \"#utility.yul\":2263:2270   */\n      dup5\n        /* \"#utility.yul\":2254:2260   */\n      dup3\n        /* \"#utility.yul\":2243:2252   */\n      dup6\n        /* \"#utility.yul\":2239:2261   */\n      add\n        /* \"#utility.yul\":2218:2271   */\n      tag_147\n      jump\t// in\n    tag_238:\n        /* \"#utility.yul\":2208:2271   */\n      swap2\n      pop\n        /* \"#utility.yul\":2164:2281   */\n      pop\n        /* \"#utility.yul\":1959:2288   */\n      swap3\n      swap2\n      pop\n      pop\n      jump\t// out\n        /* \"#utility.yul\":2294:2412   */\n    tag_148:\n        /* \"#utility.yul\":2381:2405   */\n      tag_240\n        /* \"#utility.yul\":2399:2404   */\n      dup2\n        /* \"#utility.yul\":2381:2405   */\n      tag_139\n      jump\t// in\n    tag_240:\n        /* \"#utility.yul\":2376:2379   */\n      dup3\n        /* \"#utility.yul\":2369:2406   */\n      mstore\n        /* \"#utility.yul\":2294:2412   */\n      pop\n      pop\n      jump\t// out\n        /* \"#utility.yul\":2418:2640   */\n    tag_29:\n        /* \"#utility.yul\":2511:2515   */\n      0x00\n        /* \"#utility.yul\":2549:2551   */\n      0x20\n        /* \"#utility.yul\":2538:2547   */\n      dup3\n        /* \"#utility.yul\":2534:2552   */\n      add\n        /* \"#utility.yul\":2526:2552   */\n      swap1\n      pop\n        /* \"#utility.yul\":2562:2633   */\n      tag_242\n        /* \"#utility.yul\":2630:2631   */\n      0x00\n        /* \"#utility.yul\":2619:2628   */\n      dup4\n        /* \"#utility.yul\":2615:2632   */\n      add\n        /* \"#utility.yul\":2606:2612   */\n      dup5\n        /* \"#utility.yul\":2562:2633   */\n      tag_148\n      jump\t// in\n    tag_242:\n        /* \"#utility.yul\":2418:2640   */\n      swap3\n      swap2\n      pop\n      pop\n      jump\t// out\n        /* \"#utility.yul\":2646:2758   */\n    tag_149:\n        /* \"#utility.yul\":2732:2733   */\n      0x03\n        /* \"#utility.yul\":2725:2730   */\n      dup2\n        /* \"#utility.yul\":2722:2734   */\n      lt\n        /* \"#utility.yul\":2712:2752   */\n      tag_244\n      jumpi\n        /* \"#utility.yul\":2748:2749   */\n      0x00\n        /* \"#utility.yul\":2745:2746   */\n      dup1\n        /* \"#utility.yul\":2738:2750   */\n      revert\n        /* \"#utility.yul\":2712:2752   */\n    tag_244:\n        /* \"#utility.yul\":2646:2758   */\n      pop\n      jump\t// out\n        /* \"#utility.yul\":2764:2929   */\n    tag_150:\n        /* \"#utility.yul\":2823:2828   */\n      0x00\n        /* \"#utility.yul\":2861:2867   */\n      dup2\n        /* \"#utility.yul\":2848:2868   */\n      calldataload\n        /* \"#utility.yul\":2839:2868   */\n      swap1\n      pop\n        /* \"#utility.yul\":2877:2923   */\n      tag_246\n        /* \"#utility.yul\":2917:2922   */\n      dup2\n        /* \"#utility.yul\":2877:2923   */\n      tag_149\n      jump\t// in\n    tag_246:\n        /* \"#utility.yul\":2764:2929   */\n      swap3\n      swap2\n      pop\n      pop\n      jump\t// out\n        /* \"#utility.yul\":2935:3053   */\n    tag_151:\n        /* \"#utility.yul\":3027:3028   */\n      0x04\n        /* \"#utility.yul\":3020:3025   */\n      dup2\n        /* \"#utility.yul\":3017:3029   */\n      lt\n        /* \"#utility.yul\":3007:3047   */\n      tag_248\n      jumpi\n        /* \"#utility.yul\":3043:3044   */\n      0x00\n        /* \"#utility.yul\":3040:3041   */\n      dup1\n        /* \"#utility.yul\":3033:3045   */\n      revert\n        /* \"#utility.yul\":3007:3047   */\n    tag_248:\n        /* \"#utility.yul\":2935:3053   */\n      pop\n      jump\t// out\n        /* \"#utility.yul\":3059:3236   */\n    tag_152:\n        /* \"#utility.yul\":3124:3129   */\n      0x00\n        /* \"#utility.yul\":3162:3168   */\n      dup2\n        /* \"#utility.yul\":3149:3169   */\n      calldataload\n        /* \"#utility.yul\":3140:3169   */\n      swap1\n      pop\n        /* \"#utility.yul\":3178:3230   */\n      tag_250\n        /* \"#utility.yul\":3224:3229   */\n      dup2\n        /* \"#utility.yul\":3178:3230   */\n      tag_151\n      jump\t// in\n    tag_250:\n        /* \"#utility.yul\":3059:3236   */\n      swap3\n      swap2\n      pop\n      pop\n      jump\t// out\n        /* \"#utility.yul\":3242:4217   */\n    tag_32:\n        /* \"#utility.yul\":3369:3375   */\n      0x00\n        /* \"#utility.yul\":3377:3383   */\n      dup1\n        /* \"#utility.yul\":3385:3391   */\n      0x00\n        /* \"#utility.yul\":3393:3399   */\n      dup1\n        /* \"#utility.yul\":3401:3407   */\n      0x00\n        /* \"#utility.yul\":3450:3453   */\n      0xa0\n        /* \"#utility.yul\":3438:3447   */\n      dup7\n        /* \"#utility.yul\":3429:3436   */\n      dup9\n        /* \"#utility.yul\":3425:3448   */\n      sub\n        /* \"#utility.yul\":3421:3454   */\n      slt\n        /* \"#utility.yul\":3418:3538   */\n      iszero\n      tag_252\n      jumpi\n        /* \"#utility.yul\":3457:3536   */\n      tag_253\n      tag_137\n      jump\t// in\n    tag_253:\n        /* \"#utility.yul\":3418:3538   */\n    tag_252:\n        /* \"#utility.yul\":3577:3578   */\n      0x00\n        /* \"#utility.yul\":3602:3655   */\n      tag_254\n        /* \"#utility.yul\":3647:3654   */\n      dup9\n        /* \"#utility.yul\":3638:3644   */\n      dup3\n        /* \"#utility.yul\":3627:3636   */\n      dup10\n        /* \"#utility.yul\":3623:3645   */\n      add\n        /* \"#utility.yul\":3602:3655   */\n      tag_141\n      jump\t// in\n    tag_254:\n        /* \"#utility.yul\":3592:3655   */\n      swap6\n      pop\n        /* \"#utility.yul\":3548:3665   */\n      pop\n        /* \"#utility.yul\":3704:3706   */\n      0x20\n        /* \"#utility.yul\":3730:3783   */\n      tag_255\n        /* \"#utility.yul\":3775:3782   */\n      dup9\n        /* \"#utility.yul\":3766:3772   */\n      dup3\n        /* \"#utility.yul\":3755:3764   */\n      dup10\n        /* \"#utility.yul\":3751:3773   */\n      add\n        /* \"#utility.yul\":3730:3783   */\n      tag_141\n      jump\t// in\n    tag_255:\n        /* \"#utility.yul\":3720:3783   */\n      swap5\n      pop\n        /* \"#utility.yul\":3675:3793   */\n      pop\n        /* \"#utility.yul\":3832:3834   */\n      0x40\n        /* \"#utility.yul\":3858:3924   */\n      tag_256\n        /* \"#utility.yul\":3916:3923   */\n      dup9\n        /* \"#utility.yul\":3907:3913   */\n      dup3\n        /* \"#utility.yul\":3896:3905   */\n      dup10\n        /* \"#utility.yul\":3892:3914   */\n      add\n        /* \"#utility.yul\":3858:3924   */\n      tag_150\n      jump\t// in\n    tag_256:\n        /* \"#utility.yul\":3848:3924   */\n      swap4\n      pop\n        /* \"#utility.yul\":3803:3934   */\n      pop\n        /* \"#utility.yul\":3973:3975   */\n      0x60\n        /* \"#utility.yul\":3999:4052   */\n      tag_257\n        /* \"#utility.yul\":4044:4051   */\n      dup9\n        /* \"#utility.yul\":4035:4041   */\n      dup3\n        /* \"#utility.yul\":4024:4033   */\n      dup10\n        /* \"#utility.yul\":4020:4042   */\n      add\n        /* \"#utility.yul\":3999:4052   */\n      tag_141\n      jump\t// in\n    tag_257:\n        /* \"#utility.yul\":3989:4052   */\n      swap3\n      pop\n        /* \"#utility.yul\":3944:4062   */\n      pop\n        /* \"#utility.yul\":4101:4104   */\n      0x80\n        /* \"#utility.yul\":4128:4200   */\n      tag_258\n        /* \"#utility.yul\":4192:4199   */\n      dup9\n        /* \"#utility.yul\":4183:4189   */\n      dup3\n        /* \"#utility.yul\":4172:4181   */\n      dup10\n        /* \"#utility.yul\":4168:4190   */\n      add\n        /* \"#utility.yul\":4128:4200   */\n      tag_152\n      jump\t// in\n    tag_258:\n        /* \"#utility.yul\":4118:4200   */\n      swap2\n      pop\n        /* \"#utility.yul\":4072:4210   */\n      pop\n        /* \"#utility.yul\":3242:4217   */\n      swap3\n      swap6\n      pop\n      swap3\n      swap6\n      swap1\n      swap4\n      pop\n      jump\t// out\n        /* \"#utility.yul\":4223:4341   */\n    tag_153:\n        /* \"#utility.yul\":4310:4334   */\n      tag_260\n        /* \"#utility.yul\":4328:4333   */\n      dup2\n        /* \"#utility.yul\":4310:4334   */\n      tag_145\n      jump\t// in\n    tag_260:\n        /* \"#utility.yul\":4305:4308   */\n      dup3\n        /* \"#utility.yul\":4298:4335   */\n      mstore\n        /* \"#utility.yul\":4223:4341   */\n      pop\n      pop\n      jump\t// out\n        /* \"#utility.yul\":4347:4527   */\n    tag_82:\n        /* \"#utility.yul\":4395:4472   */\n      0x4e487b7100000000000000000000000000000000000000000000000000000000\n        /* \"#utility.yul\":4392:4393   */\n      0x00\n        /* \"#utility.yul\":4385:4473   */\n      mstore\n        /* \"#utility.yul\":4492:4496   */\n      0x21\n        /* \"#utility.yul\":4489:4490   */\n      0x04\n        /* \"#utility.yul\":4482:4497   */\n      mstore\n        /* \"#utility.yul\":4516:4520   */\n      0x24\n        /* \"#utility.yul\":4513:4514   */\n      0x00\n        /* \"#utility.yul\":4506:4521   */\n      revert\n        /* \"#utility.yul\":4533:4651   */\n    tag_154:\n        /* \"#utility.yul\":4619:4620   */\n      0x03\n        /* \"#utility.yul\":4612:4617   */\n      dup2\n        /* \"#utility.yul\":4609:4621   */\n      lt\n        /* \"#utility.yul\":4599:4645   */\n      tag_263\n      jumpi\n        /* \"#utility.yul\":4625:4643   */\n      tag_264\n      tag_82\n      jump\t// in\n    tag_264:\n        /* \"#utility.yul\":4599:4645   */\n    tag_263:\n        /* \"#utility.yul\":4533:4651   */\n      pop\n      jump\t// out\n        /* \"#utility.yul\":4657:4794   */\n    tag_155:\n        /* \"#utility.yul\":4707:4714   */\n      0x00\n        /* \"#utility.yul\":4736:4741   */\n      dup2\n        /* \"#utility.yul\":4725:4741   */\n      swap1\n      pop\n        /* \"#utility.yul\":4742:4788   */\n      tag_266\n        /* \"#utility.yul\":4782:4787   */\n      dup3\n        /* \"#utility.yul\":4742:4788   */\n      tag_154\n      jump\t// in\n    tag_266:\n        /* \"#utility.yul\":4657:4794   */\n      swap2\n      swap1\n      pop\n      jump\t// out\n        /* \"#utility.yul\":4800:4937   */\n    tag_156:\n        /* \"#utility.yul\":4861:4870   */\n      0x00\n        /* \"#utility.yul\":4894:4931   */\n      tag_268\n        /* \"#utility.yul\":4925:4930   */\n      dup3\n        /* \"#utility.yul\":4894:4931   */\n      tag_155\n      jump\t// in\n    tag_268:\n        /* \"#utility.yul\":4881:4931   */\n      swap1\n      pop\n        /* \"#utility.yul\":4800:4937   */\n      swap2\n      swap1\n      pop\n      jump\t// out\n        /* \"#utility.yul\":4943:5096   */\n    tag_157:\n        /* \"#utility.yul\":5041:5089   */\n      tag_270\n        /* \"#utility.yul\":5083:5088   */\n      dup2\n        /* \"#utility.yul\":5041:5089   */\n      tag_156\n      jump\t// in\n    tag_270:\n        /* \"#utility.yul\":5036:5039   */\n      dup3\n        /* \"#utility.yul\":5029:5090   */\n      mstore\n        /* \"#utility.yul\":4943:5096   */\n      pop\n      pop\n      jump\t// out\n        /* \"#utility.yul\":5102:5226   */\n    tag_158:\n        /* \"#utility.yul\":5194:5195   */\n      0x04\n        /* \"#utility.yul\":5187:5192   */\n      dup2\n        /* \"#utility.yul\":5184:5196   */\n      lt\n        /* \"#utility.yul\":5174:5220   */\n      tag_272\n      jumpi\n        /* \"#utility.yul\":5200:5218   */\n      tag_273\n      tag_82\n      jump\t// in\n    tag_273:\n        /* \"#utility.yul\":5174:5220   */\n    tag_272:\n        /* \"#utility.yul\":5102:5226   */\n      pop\n      jump\t// out\n        /* \"#utility.yul\":5232:5381   */\n    tag_159:\n        /* \"#utility.yul\":5288:5295   */\n      0x00\n        /* \"#utility.yul\":5317:5322   */\n      dup2\n        /* \"#utility.yul\":5306:5322   */\n      swap1\n      pop\n        /* \"#utility.yul\":5323:5375   */\n      tag_275\n        /* \"#utility.yul\":5369:5374   */\n      dup3\n        /* \"#utility.yul\":5323:5375   */\n      tag_158\n      jump\t// in\n    tag_275:\n        /* \"#utility.yul\":5232:5381   */\n      swap2\n      swap1\n      pop\n      jump\t// out\n        /* \"#utility.yul\":5387:5536   */\n    tag_160:\n        /* \"#utility.yul\":5454:5463   */\n      0x00\n        /* \"#utility.yul\":5487:5530   */\n      tag_277\n        /* \"#utility.yul\":5524:5529   */\n      dup3\n        /* \"#utility.yul\":5487:5530   */\n      tag_159\n      jump\t// in\n    tag_277:\n        /* \"#utility.yul\":5474:5530   */\n      swap1\n      pop\n        /* \"#utility.yul\":5387:5536   */\n      swap2\n      swap1\n      pop\n      jump\t// out\n        /* \"#utility.yul\":5542:5707   */\n    tag_161:\n        /* \"#utility.yul\":5646:5700   */\n      tag_279\n        /* \"#utility.yul\":5694:5699   */\n      dup2\n        /* \"#utility.yul\":5646:5700   */\n      tag_160\n      jump\t// in\n    tag_279:\n        /* \"#utility.yul\":5641:5644   */\n      dup3\n        /* \"#utility.yul\":5634:5701   */\n      mstore\n        /* \"#utility.yul\":5542:5707   */\n      pop\n      pop\n      jump\t// out\n        /* \"#utility.yul\":5713:6544   */\n    tag_38:\n        /* \"#utility.yul\":5974:5978   */\n      0x00\n        /* \"#utility.yul\":6012:6015   */\n      0xc0\n        /* \"#utility.yul\":6001:6010   */\n      dup3\n        /* \"#utility.yul\":5997:6016   */\n      add\n        /* \"#utility.yul\":5989:6016   */\n      swap1\n      pop\n        /* \"#utility.yul\":6026:6097   */\n      tag_281\n        /* \"#utility.yul\":6094:6095   */\n      0x00\n        /* \"#utility.yul\":6083:6092   */\n      dup4\n        /* \"#utility.yul\":6079:6096   */\n      add\n        /* \"#utility.yul\":6070:6076   */\n      dup10\n        /* \"#utility.yul\":6026:6097   */\n      tag_148\n      jump\t// in\n    tag_281:\n        /* \"#utility.yul\":6107:6179   */\n      tag_282\n        /* \"#utility.yul\":6175:6177   */\n      0x20\n        /* \"#utility.yul\":6164:6173   */\n      dup4\n        /* \"#utility.yul\":6160:6178   */\n      add\n        /* \"#utility.yul\":6151:6157   */\n      dup9\n        /* \"#utility.yul\":6107:6179   */\n      tag_148\n      jump\t// in\n    tag_282:\n        /* \"#utility.yul\":6189:6261   */\n      tag_283\n        /* \"#utility.yul\":6257:6259   */\n      0x40\n        /* \"#utility.yul\":6246:6255   */\n      dup4\n        /* \"#utility.yul\":6242:6260   */\n      add\n        /* \"#utility.yul\":6233:6239   */\n      dup8\n        /* \"#utility.yul\":6189:6261   */\n      tag_153\n      jump\t// in\n    tag_283:\n        /* \"#utility.yul\":6271:6354   */\n      tag_284\n        /* \"#utility.yul\":6350:6352   */\n      0x60\n        /* \"#utility.yul\":6339:6348   */\n      dup4\n        /* \"#utility.yul\":6335:6353   */\n      add\n        /* \"#utility.yul\":6326:6332   */\n      dup7\n        /* \"#utility.yul\":6271:6354   */\n      tag_157\n      jump\t// in\n    tag_284:\n        /* \"#utility.yul\":6364:6437   */\n      tag_285\n        /* \"#utility.yul\":6432:6435   */\n      0x80\n        /* \"#utility.yul\":6421:6430   */\n      dup4\n        /* \"#utility.yul\":6417:6436   */\n      add\n        /* \"#utility.yul\":6408:6414   */\n      dup6\n        /* \"#utility.yul\":6364:6437   */\n      tag_148\n      jump\t// in\n    tag_285:\n        /* \"#utility.yul\":6447:6537   */\n      tag_286\n        /* \"#utility.yul\":6532:6535   */\n      0xa0\n        /* \"#utility.yul\":6521:6530   */\n      dup4\n        /* \"#utility.yul\":6517:6536   */\n      add\n        /* \"#utility.yul\":6508:6514   */\n      dup5\n        /* \"#utility.yul\":6447:6537   */\n      tag_161\n      jump\t// in\n    tag_286:\n        /* \"#utility.yul\":5713:6544   */\n      swap8\n      swap7\n      pop\n      pop\n      pop\n      pop\n      pop\n      pop\n      pop\n      jump\t// out\n        /* \"#utility.yul\":6550:6664   */\n    tag_162:\n        /* \"#utility.yul\":6617:6623   */\n      0x00\n        /* \"#utility.yul\":6651:6656   */\n      dup2\n        /* \"#utility.yul\":6645:6657   */\n      mload\n        /* \"#utility.yul\":6635:6657   */\n      swap1\n      pop\n        /* \"#utility.yul\":6550:6664   */\n      swap2\n      swap1\n      pop\n      jump\t// out\n        /* \"#utility.yul\":6670:6854   */\n    tag_163:\n        /* \"#utility.yul\":6769:6780   */\n      0x00\n        /* \"#utility.yul\":6803:6809   */\n      dup3\n        /* \"#utility.yul\":6798:6801   */\n      dup3\n        /* \"#utility.yul\":6791:6810   */\n      mstore\n        /* \"#utility.yul\":6843:6847   */\n      0x20\n        /* \"#utility.yul\":6838:6841   */\n      dup3\n        /* \"#utility.yul\":6834:6848   */\n      add\n        /* \"#utility.yul\":6819:6848   */\n      swap1\n      pop\n        /* \"#utility.yul\":6670:6854   */\n      swap3\n      swap2\n      pop\n      pop\n      jump\t// out\n        /* \"#utility.yul\":6860:6992   */\n    tag_164:\n        /* \"#utility.yul\":6927:6931   */\n      0x00\n        /* \"#utility.yul\":6950:6953   */\n      dup2\n        /* \"#utility.yul\":6942:6953   */\n      swap1\n      pop\n        /* \"#utility.yul\":6980:6984   */\n      0x20\n        /* \"#utility.yul\":6975:6978   */\n      dup3\n        /* \"#utility.yul\":6971:6985   */\n      add\n        /* \"#utility.yul\":6963:6985   */\n      swap1\n      pop\n        /* \"#utility.yul\":6860:6992   */\n      swap2\n      swap1\n      pop\n      jump\t// out\n        /* \"#utility.yul\":6998:7106   */\n    tag_165:\n        /* \"#utility.yul\":7075:7099   */\n      tag_291\n        /* \"#utility.yul\":7093:7098   */\n      dup2\n        /* \"#utility.yul\":7075:7099   */\n      tag_139\n      jump\t// in\n    tag_291:\n        /* \"#utility.yul\":7070:7073   */\n      dup3\n        /* \"#utility.yul\":7063:7100   */\n      mstore\n        /* \"#utility.yul\":6998:7106   */\n      pop\n      pop\n      jump\t// out\n        /* \"#utility.yul\":7112:7291   */\n    tag_166:\n        /* \"#utility.yul\":7181:7191   */\n      0x00\n        /* \"#utility.yul\":7202:7248   */\n      tag_293\n        /* \"#utility.yul\":7244:7247   */\n      dup4\n        /* \"#utility.yul\":7236:7242   */\n      dup4\n        /* \"#utility.yul\":7202:7248   */\n      tag_165\n      jump\t// in\n    tag_293:\n        /* \"#utility.yul\":7280:7284   */\n      0x20\n        /* \"#utility.yul\":7275:7278   */\n      dup4\n        /* \"#utility.yul\":7271:7285   */\n      add\n        /* \"#utility.yul\":7257:7285   */\n      swap1\n      pop\n        /* \"#utility.yul\":7112:7291   */\n      swap3\n      swap2\n      pop\n      pop\n      jump\t// out\n        /* \"#utility.yul\":7297:7410   */\n    tag_167:\n        /* \"#utility.yul\":7367:7371   */\n      0x00\n        /* \"#utility.yul\":7399:7403   */\n      0x20\n        /* \"#utility.yul\":7394:7397   */\n      dup3\n        /* \"#utility.yul\":7390:7404   */\n      add\n        /* \"#utility.yul\":7382:7404   */\n      swap1\n      pop\n        /* \"#utility.yul\":7297:7410   */\n      swap2\n      swap1\n      pop\n      jump\t// out\n        /* \"#utility.yul\":7446:8178   */\n    tag_168:\n        /* \"#utility.yul\":7565:7568   */\n      0x00\n        /* \"#utility.yul\":7594:7648   */\n      tag_296\n        /* \"#utility.yul\":7642:7647   */\n      dup3\n        /* \"#utility.yul\":7594:7648   */\n      tag_162\n      jump\t// in\n    tag_296:\n        /* \"#utility.yul\":7664:7750   */\n      tag_297\n        /* \"#utility.yul\":7743:7749   */\n      dup2\n        /* \"#utility.yul\":7738:7741   */\n      dup6\n        /* \"#utility.yul\":7664:7750   */\n      tag_163\n      jump\t// in\n    tag_297:\n        /* \"#utility.yul\":7657:7750   */\n      swap4\n      pop\n        /* \"#utility.yul\":7774:7830   */\n      tag_298\n        /* \"#utility.yul\":7824:7829   */\n      dup4\n        /* \"#utility.yul\":7774:7830   */\n      tag_164\n      jump\t// in\n    tag_298:\n        /* \"#utility.yul\":7853:7860   */\n      dup1\n        /* \"#utility.yul\":7884:7885   */\n      0x00\n        /* \"#utility.yul\":7869:8153   */\n    tag_299:\n        /* \"#utility.yul\":7894:7900   */\n      dup4\n        /* \"#utility.yul\":7891:7892   */\n      dup2\n        /* \"#utility.yul\":7888:7901   */\n      lt\n        /* \"#utility.yul\":7869:8153   */\n      iszero\n      tag_301\n      jumpi\n        /* \"#utility.yul\":7970:7976   */\n      dup2\n        /* \"#utility.yul\":7964:7977   */\n      mload\n        /* \"#utility.yul\":7997:8060   */\n      tag_302\n        /* \"#utility.yul\":8056:8059   */\n      dup9\n        /* \"#utility.yul\":8041:8054   */\n      dup3\n        /* \"#utility.yul\":7997:8060   */\n      tag_166\n      jump\t// in\n    tag_302:\n        /* \"#utility.yul\":7990:8060   */\n      swap8\n      pop\n        /* \"#utility.yul\":8083:8143   */\n      tag_303\n        /* \"#utility.yul\":8136:8142   */\n      dup4\n        /* \"#utility.yul\":8083:8143   */\n      tag_167\n      jump\t// in\n    tag_303:\n        /* \"#utility.yul\":8073:8143   */\n      swap3\n      pop\n        /* \"#utility.yul\":7929:8153   */\n      pop\n        /* \"#utility.yul\":7916:7917   */\n      0x01\n        /* \"#utility.yul\":7913:7914   */\n      dup2\n        /* \"#utility.yul\":7909:7918   */\n      add\n        /* \"#utility.yul\":7904:7918   */\n      swap1\n      pop\n        /* \"#utility.yul\":7869:8153   */\n      jump(tag_299)\n    tag_301:\n        /* \"#utility.yul\":7873:7887   */\n      pop\n        /* \"#utility.yul\":8169:8172   */\n      dup6\n        /* \"#utility.yul\":8162:8172   */\n      swap4\n      pop\n        /* \"#utility.yul\":7570:8178   */\n      pop\n      pop\n      pop\n        /* \"#utility.yul\":7446:8178   */\n      swap3\n      swap2\n      pop\n      pop\n      jump\t// out\n        /* \"#utility.yul\":8184:8557   */\n    tag_43:\n        /* \"#utility.yul\":8327:8331   */\n      0x00\n        /* \"#utility.yul\":8365:8367   */\n      0x20\n        /* \"#utility.yul\":8354:8363   */\n      dup3\n        /* \"#utility.yul\":8350:8368   */\n      add\n        /* \"#utility.yul\":8342:8368   */\n      swap1\n      pop\n        /* \"#utility.yul\":8414:8423   */\n      dup2\n        /* \"#utility.yul\":8408:8412   */\n      dup2\n        /* \"#utility.yul\":8404:8424   */\n      sub\n        /* \"#utility.yul\":8400:8401   */\n      0x00\n        /* \"#utility.yul\":8389:8398   */\n      dup4\n        /* \"#utility.yul\":8385:8402   */\n      add\n        /* \"#utility.yul\":8378:8425   */\n      mstore\n        /* \"#utility.yul\":8442:8550   */\n      tag_305\n        /* \"#utility.yul\":8545:8549   */\n      dup2\n        /* \"#utility.yul\":8536:8542   */\n      dup5\n        /* \"#utility.yul\":8442:8550   */\n      tag_168\n      jump\t// in\n    tag_305:\n        /* \"#utility.yul\":8434:8550   */\n      swap1\n      pop\n        /* \"#utility.yul\":8184:8557   */\n      swap3\n      swap2\n      pop\n      pop\n      jump\t// out\n        /* \"#utility.yul\":8563:8662   */\n    tag_169:\n        /* \"#utility.yul\":8615:8621   */\n      0x00\n        /* \"#utility.yul\":8649:8654   */\n      dup2\n        /* \"#utility.yul\":8643:8655   */\n      mload\n        /* \"#utility.yul\":8633:8655   */\n      swap1\n      pop\n        /* \"#utility.yul\":8563:8662   */\n      swap2\n      swap1\n      pop\n      jump\t// out\n        /* \"#utility.yul\":8668:8837   */\n    tag_170:\n        /* \"#utility.yul\":8752:8763   */\n      0x00\n        /* \"#utility.yul\":8786:8792   */\n      dup3\n        /* \"#utility.yul\":8781:8784   */\n      dup3\n        /* \"#utility.yul\":8774:8793   */\n      mstore\n        /* \"#utility.yul\":8826:8830   */\n      0x20\n        /* \"#utility.yul\":8821:8824   */\n      dup3\n        /* \"#utility.yul\":8817:8831   */\n      add\n        /* \"#utility.yul\":8802:8831   */\n      swap1\n      pop\n        /* \"#utility.yul\":8668:8837   */\n      swap3\n      swap2\n      pop\n      pop\n      jump\t// out\n        /* \"#utility.yul\":8843:8982   */\n    tag_171:\n        /* \"#utility.yul\":8932:8938   */\n      dup3\n        /* \"#utility.yul\":8927:8930   */\n      dup2\n        /* \"#utility.yul\":8922:8925   */\n      dup4\n        /* \"#utility.yul\":8916:8939   */\n      mcopy\n        /* \"#utility.yul\":8973:8974   */\n      0x00\n        /* \"#utility.yul\":8964:8970   */\n      dup4\n        /* \"#utility.yul\":8959:8962   */\n      dup4\n        /* \"#utility.yul\":8955:8971   */\n      add\n        /* \"#utility.yul\":8948:8975   */\n      mstore\n        /* \"#utility.yul\":8843:8982   */\n      pop\n      pop\n      pop\n      jump\t// out\n        /* \"#utility.yul\":8988:9090   */\n    tag_172:\n        /* \"#utility.yul\":9029:9035   */\n      0x00\n        /* \"#utility.yul\":9080:9082   */\n      0x1f\n        /* \"#utility.yul\":9076:9083   */\n      not\n        /* \"#utility.yul\":9071:9073   */\n      0x1f\n        /* \"#utility.yul\":9064:9069   */\n      dup4\n        /* \"#utility.yul\":9060:9074   */\n      add\n        /* \"#utility.yul\":9056:9084   */\n      and\n        /* \"#utility.yul\":9046:9084   */\n      swap1\n      pop\n        /* \"#utility.yul\":8988:9090   */\n      swap2\n      swap1\n      pop\n      jump\t// out\n        /* \"#utility.yul\":9096:9473   */\n    tag_173:\n        /* \"#utility.yul\":9184:9187   */\n      0x00\n        /* \"#utility.yul\":9212:9251   */\n      tag_311\n        /* \"#utility.yul\":9245:9250   */\n      dup3\n        /* \"#utility.yul\":9212:9251   */\n      tag_169\n      jump\t// in\n    tag_311:\n        /* \"#utility.yul\":9267:9338   */\n      tag_312\n        /* \"#utility.yul\":9331:9337   */\n      dup2\n        /* \"#utility.yul\":9326:9329   */\n      dup6\n        /* \"#utility.yul\":9267:9338   */\n      tag_170\n      jump\t// in\n    tag_312:\n        /* \"#utility.yul\":9260:9338   */\n      swap4\n      pop\n        /* \"#utility.yul\":9347:9412   */\n      tag_313\n        /* \"#utility.yul\":9405:9411   */\n      dup2\n        /* \"#utility.yul\":9400:9403   */\n      dup6\n        /* \"#utility.yul\":9393:9397   */\n      0x20\n        /* \"#utility.yul\":9386:9391   */\n      dup7\n        /* \"#utility.yul\":9382:9398   */\n      add\n        /* \"#utility.yul\":9347:9412   */\n      tag_171\n      jump\t// in\n    tag_313:\n        /* \"#utility.yul\":9437:9466   */\n      tag_314\n        /* \"#utility.yul\":9459:9465   */\n      dup2\n        /* \"#utility.yul\":9437:9466   */\n      tag_172\n      jump\t// in\n    tag_314:\n        /* \"#utility.yul\":9432:9435   */\n      dup5\n        /* \"#utility.yul\":9428:9467   */\n      add\n        /* \"#utility.yul\":9421:9467   */\n      swap2\n      pop\n        /* \"#utility.yul\":9188:9473   */\n      pop\n        /* \"#utility.yul\":9096:9473   */\n      swap3\n      swap2\n      pop\n      pop\n      jump\t// out\n        /* \"#utility.yul\":9479:10214   */\n    tag_51:\n        /* \"#utility.yul\":9696:9700   */\n      0x00\n        /* \"#utility.yul\":9734:9737   */\n      0x80\n        /* \"#utility.yul\":9723:9732   */\n      dup3\n        /* \"#utility.yul\":9719:9738   */\n      add\n        /* \"#utility.yul\":9711:9738   */\n      swap1\n      pop\n        /* \"#utility.yul\":9748:9819   */\n      tag_316\n        /* \"#utility.yul\":9816:9817   */\n      0x00\n        /* \"#utility.yul\":9805:9814   */\n      dup4\n        /* \"#utility.yul\":9801:9818   */\n      add\n        /* \"#utility.yul\":9792:9798   */\n      dup8\n        /* \"#utility.yul\":9748:9819   */\n      tag_153\n      jump\t// in\n    tag_316:\n        /* \"#utility.yul\":9829:9901   */\n      tag_317\n        /* \"#utility.yul\":9897:9899   */\n      0x20\n        /* \"#utility.yul\":9886:9895   */\n      dup4\n        /* \"#utility.yul\":9882:9900   */\n      add\n        /* \"#utility.yul\":9873:9879   */\n      dup7\n        /* \"#utility.yul\":9829:9901   */\n      tag_148\n      jump\t// in\n    tag_317:\n        /* \"#utility.yul\":9948:9957   */\n      dup2\n        /* \"#utility.yul\":9942:9946   */\n      dup2\n        /* \"#utility.yul\":9938:9958   */\n      sub\n        /* \"#utility.yul\":9933:9935   */\n      0x40\n        /* \"#utility.yul\":9922:9931   */\n      dup4\n        /* \"#utility.yul\":9918:9936   */\n      add\n        /* \"#utility.yul\":9911:9959   */\n      mstore\n        /* \"#utility.yul\":9976:10054   */\n      tag_318\n        /* \"#utility.yul\":10049:10053   */\n      dup2\n        /* \"#utility.yul\":10040:10046   */\n      dup6\n        /* \"#utility.yul\":9976:10054   */\n      tag_173\n      jump\t// in\n    tag_318:\n        /* \"#utility.yul\":9968:10054   */\n      swap1\n      pop\n        /* \"#utility.yul\":10101:10110   */\n      dup2\n        /* \"#utility.yul\":10095:10099   */\n      dup2\n        /* \"#utility.yul\":10091:10111   */\n      sub\n        /* \"#utility.yul\":10086:10088   */\n      0x60\n        /* \"#utility.yul\":10075:10084   */\n      dup4\n        /* \"#utility.yul\":10071:10089   */\n      add\n        /* \"#utility.yul\":10064:10112   */\n      mstore\n        /* \"#utility.yul\":10129:10207   */\n      tag_319\n        /* \"#utility.yul\":10202:10206   */\n      dup2\n        /* \"#utility.yul\":10193:10199   */\n      dup5\n        /* \"#utility.yul\":10129:10207   */\n      tag_173\n      jump\t// in\n    tag_319:\n        /* \"#utility.yul\":10121:10207   */\n      swap1\n      pop\n        /* \"#utility.yul\":9479:10214   */\n      swap6\n      swap5\n      pop\n      pop\n      pop\n      pop\n      pop\n      jump\t// out\n        /* \"#utility.yul\":10220:10337   */\n    tag_174:\n        /* \"#utility.yul\":10329:10330   */\n      0x00\n        /* \"#utility.yul\":10326:10327   */\n      dup1\n        /* \"#utility.yul\":10319:10331   */\n      revert\n        /* \"#utility.yul\":10343:10460   */\n    tag_175:\n        /* \"#utility.yul\":10452:10453   */\n      0x00\n        /* \"#utility.yul\":10449:10450   */\n      dup1\n        /* \"#utility.yul\":10442:10454   */\n      revert\n        /* \"#utility.yul\":10466:10583   */\n    tag_176:\n        /* \"#utility.yul\":10575:10576   */\n      0x00\n        /* \"#utility.yul\":10572:10573   */\n      dup1\n        /* \"#utility.yul\":10565:10577   */\n      revert\n        /* \"#utility.yul\":10603:11156   */\n    tag_177:\n        /* \"#utility.yul\":10661:10669   */\n      0x00\n        /* \"#utility.yul\":10671:10677   */\n      dup1\n        /* \"#utility.yul\":10721:10724   */\n      dup4\n        /* \"#utility.yul\":10714:10718   */\n      0x1f\n        /* \"#utility.yul\":10706:10712   */\n      dup5\n        /* \"#utility.yul\":10702:10719   */\n      add\n        /* \"#utility.yul\":10698:10725   */\n      slt\n        /* \"#utility.yul\":10688:10810   */\n      tag_324\n      jumpi\n        /* \"#utility.yul\":10729:10808   */\n      tag_325\n      tag_174\n      jump\t// in\n    tag_325:\n        /* \"#utility.yul\":10688:10810   */\n    tag_324:\n        /* \"#utility.yul\":10842:10848   */\n      dup3\n        /* \"#utility.yul\":10829:10849   */\n      calldataload\n        /* \"#utility.yul\":10819:10849   */\n      swap1\n      pop\n        /* \"#utility.yul\":10872:10890   */\n      0xffffffffffffffff\n        /* \"#utility.yul\":10864:10870   */\n      dup2\n        /* \"#utility.yul\":10861:10891   */\n      gt\n        /* \"#utility.yul\":10858:10975   */\n      iszero\n      tag_326\n      jumpi\n        /* \"#utility.yul\":10894:10973   */\n      tag_327\n      tag_175\n      jump\t// in\n    tag_327:\n        /* \"#utility.yul\":10858:10975   */\n    tag_326:\n        /* \"#utility.yul\":11008:11012   */\n      0x20\n        /* \"#utility.yul\":11000:11006   */\n      dup4\n        /* \"#utility.yul\":10996:11013   */\n      add\n        /* \"#utility.yul\":10984:11013   */\n      swap2\n      pop\n        /* \"#utility.yul\":11062:11065   */\n      dup4\n        /* \"#utility.yul\":11054:11058   */\n      0x01\n        /* \"#utility.yul\":11046:11052   */\n      dup3\n        /* \"#utility.yul\":11042:11059   */\n      mul\n        /* \"#utility.yul\":11032:11040   */\n      dup4\n        /* \"#utility.yul\":11028:11060   */\n      add\n        /* \"#utility.yul\":11025:11066   */\n      gt\n        /* \"#utility.yul\":11022:11150   */\n      iszero\n      tag_328\n      jumpi\n        /* \"#utility.yul\":11069:11148   */\n      tag_329\n      tag_176\n      jump\t// in\n    tag_329:\n        /* \"#utility.yul\":11022:11150   */\n    tag_328:\n        /* \"#utility.yul\":10603:11156   */\n      swap3\n      pop\n      swap3\n      swap1\n      pop\n      jump\t// out\n        /* \"#utility.yul\":11162:12327   */\n    tag_54:\n        /* \"#utility.yul\":11272:11278   */\n      0x00\n        /* \"#utility.yul\":11280:11286   */\n      dup1\n        /* \"#utility.yul\":11288:11294   */\n      0x00\n        /* \"#utility.yul\":11296:11302   */\n      dup1\n        /* \"#utility.yul\":11304:11310   */\n      0x00\n        /* \"#utility.yul\":11312:11318   */\n      dup1\n        /* \"#utility.yul\":11361:11364   */\n      0x80\n        /* \"#utility.yul\":11349:11358   */\n      dup8\n        /* \"#utility.yul\":11340:11347   */\n      dup10\n        /* \"#utility.yul\":11336:11359   */\n      sub\n        /* \"#utility.yul\":11332:11365   */\n      slt\n        /* \"#utility.yul\":11329:11449   */\n      iszero\n      tag_331\n      jumpi\n        /* \"#utility.yul\":11368:11447   */\n      tag_332\n      tag_137\n      jump\t// in\n    tag_332:\n        /* \"#utility.yul\":11329:11449   */\n    tag_331:\n        /* \"#utility.yul\":11488:11489   */\n      0x00\n        /* \"#utility.yul\":11513:11566   */\n      tag_333\n        /* \"#utility.yul\":11558:11565   */\n      dup10\n        /* \"#utility.yul\":11549:11555   */\n      dup3\n        /* \"#utility.yul\":11538:11547   */\n      dup11\n        /* \"#utility.yul\":11534:11556   */\n      add\n        /* \"#utility.yul\":11513:11566   */\n      tag_147\n      jump\t// in\n    tag_333:\n        /* \"#utility.yul\":11503:11566   */\n      swap7\n      pop\n        /* \"#utility.yul\":11459:11576   */\n      pop\n        /* \"#utility.yul\":11615:11617   */\n      0x20\n        /* \"#utility.yul\":11641:11694   */\n      tag_334\n        /* \"#utility.yul\":11686:11693   */\n      dup10\n        /* \"#utility.yul\":11677:11683   */\n      dup3\n        /* \"#utility.yul\":11666:11675   */\n      dup11\n        /* \"#utility.yul\":11662:11684   */\n      add\n        /* \"#utility.yul\":11641:11694   */\n      tag_141\n      jump\t// in\n    tag_334:\n        /* \"#utility.yul\":11631:11694   */\n      swap6\n      pop\n        /* \"#utility.yul\":11586:11704   */\n      pop\n        /* \"#utility.yul\":11771:11773   */\n      0x40\n        /* \"#utility.yul\":11760:11769   */\n      dup8\n        /* \"#utility.yul\":11756:11774   */\n      add\n        /* \"#utility.yul\":11743:11775   */\n      calldataload\n        /* \"#utility.yul\":11802:11820   */\n      0xffffffffffffffff\n        /* \"#utility.yul\":11794:11800   */\n      dup2\n        /* \"#utility.yul\":11791:11821   */\n      gt\n        /* \"#utility.yul\":11788:11905   */\n      iszero\n      tag_335\n      jumpi\n        /* \"#utility.yul\":11824:11903   */\n      tag_336\n      tag_138\n      jump\t// in\n    tag_336:\n        /* \"#utility.yul\":11788:11905   */\n    tag_335:\n        /* \"#utility.yul\":11937:12002   */\n      tag_337\n        /* \"#utility.yul\":11994:12001   */\n      dup10\n        /* \"#utility.yul\":11985:11991   */\n      dup3\n        /* \"#utility.yul\":11974:11983   */\n      dup11\n        /* \"#utility.yul\":11970:11992   */\n      add\n        /* \"#utility.yul\":11937:12002   */\n      tag_177\n      jump\t// in\n    tag_337:\n        /* \"#utility.yul\":11919:12002   */\n      swap5\n      pop\n      swap5\n      pop\n        /* \"#utility.yul\":11714:12012   */\n      pop\n        /* \"#utility.yul\":12079:12081   */\n      0x60\n        /* \"#utility.yul\":12068:12077   */\n      dup8\n        /* \"#utility.yul\":12064:12082   */\n      add\n        /* \"#utility.yul\":12051:12083   */\n      calldataload\n        /* \"#utility.yul\":12110:12128   */\n      0xffffffffffffffff\n        /* \"#utility.yul\":12102:12108   */\n      dup2\n        /* \"#utility.yul\":12099:12129   */\n      gt\n        /* \"#utility.yul\":12096:12213   */\n      iszero\n      tag_338\n      jumpi\n        /* \"#utility.yul\":12132:12211   */\n      tag_339\n      tag_138\n      jump\t// in\n    tag_339:\n        /* \"#utility.yul\":12096:12213   */\n    tag_338:\n        /* \"#utility.yul\":12245:12310   */\n      tag_340\n        /* \"#utility.yul\":12302:12309   */\n      dup10\n        /* \"#utility.yul\":12293:12299   */\n      dup3\n        /* \"#utility.yul\":12282:12291   */\n      dup11\n        /* \"#utility.yul\":12278:12300   */\n      add\n        /* \"#utility.yul\":12245:12310   */\n      tag_177\n      jump\t// in\n    tag_340:\n        /* \"#utility.yul\":12227:12310   */\n      swap3\n      pop\n      swap3\n      pop\n        /* \"#utility.yul\":12022:12320   */\n      pop\n        /* \"#utility.yul\":11162:12327   */\n      swap3\n      swap6\n      pop\n      swap3\n      swap6\n      pop\n      swap3\n      swap6\n      jump\t// out\n        /* \"#utility.yul\":12333:12555   */\n    tag_59:\n        /* \"#utility.yul\":12426:12430   */\n      0x00\n        /* \"#utility.yul\":12464:12466   */\n      0x20\n        /* \"#utility.yul\":12453:12462   */\n      dup3\n        /* \"#utility.yul\":12449:12467   */\n      add\n        /* \"#utility.yul\":12441:12467   */\n      swap1\n      pop\n        /* \"#utility.yul\":12477:12548   */\n      tag_342\n        /* \"#utility.yul\":12545:12546   */\n      0x00\n        /* \"#utility.yul\":12534:12543   */\n      dup4\n        /* \"#utility.yul\":12530:12547   */\n      add\n        /* \"#utility.yul\":12521:12527   */\n      dup5\n        /* \"#utility.yul\":12477:12548   */\n      tag_153\n      jump\t// in\n    tag_342:\n        /* \"#utility.yul\":12333:12555   */\n      swap3\n      swap2\n      pop\n      pop\n      jump\t// out\n        /* \"#utility.yul\":12561:12783   */\n    tag_178:\n        /* \"#utility.yul\":12701:12735   */\n      0x4661726d6572206e6f7420726567697374657265642120526576657274696e67\n        /* \"#utility.yul\":12697:12698   */\n      0x00\n        /* \"#utility.yul\":12689:12695   */\n      dup3\n        /* \"#utility.yul\":12685:12699   */\n      add\n        /* \"#utility.yul\":12678:12736   */\n      mstore\n        /* \"#utility.yul\":12770:12775   */\n      0x2e2e2e0000000000000000000000000000000000000000000000000000000000\n        /* \"#utility.yul\":12765:12767   */\n      0x20\n        /* \"#utility.yul\":12757:12763   */\n      dup3\n        /* \"#utility.yul\":12753:12768   */\n      add\n        /* \"#utility.yul\":12746:12776   */\n      mstore\n        /* \"#utility.yul\":12561:12783   */\n      pop\n      jump\t// out\n        /* \"#utility.yul\":12789:13155   */\n    tag_179:\n        /* \"#utility.yul\":12931:12934   */\n      0x00\n        /* \"#utility.yul\":12952:13019   */\n      tag_345\n        /* \"#utility.yul\":13016:13018   */\n      0x23\n        /* \"#utility.yul\":13011:13014   */\n      dup4\n        /* \"#utility.yul\":12952:13019   */\n      tag_170\n      jump\t// in\n    tag_345:\n        /* \"#utility.yul\":12945:13019   */\n      swap2\n      pop\n        /* \"#utility.yul\":13028:13121   */\n      tag_346\n        /* \"#utility.yul\":13117:13120   */\n      dup3\n        /* \"#utility.yul\":13028:13121   */\n      tag_178\n      jump\t// in\n    tag_346:\n        /* \"#utility.yul\":13146:13148   */\n      0x40\n        /* \"#utility.yul\":13141:13144   */\n      dup3\n        /* \"#utility.yul\":13137:13149   */\n      add\n        /* \"#utility.yul\":13130:13149   */\n      swap1\n      pop\n        /* \"#utility.yul\":12789:13155   */\n      swap2\n      swap1\n      pop\n      jump\t// out\n        /* \"#utility.yul\":13161:13580   */\n    tag_66:\n        /* \"#utility.yul\":13327:13331   */\n      0x00\n        /* \"#utility.yul\":13365:13367   */\n      0x20\n        /* \"#utility.yul\":13354:13363   */\n      dup3\n        /* \"#utility.yul\":13350:13368   */\n      add\n        /* \"#utility.yul\":13342:13368   */\n      swap1\n      pop\n        /* \"#utility.yul\":13414:13423   */\n      dup2\n        /* \"#utility.yul\":13408:13412   */\n      dup2\n        /* \"#utility.yul\":13404:13424   */\n      sub\n        /* \"#utility.yul\":13400:13401   */\n      0x00\n        /* \"#utility.yul\":13389:13398   */\n      dup4\n        /* \"#utility.yul\":13385:13402   */\n      add\n        /* \"#utility.yul\":13378:13425   */\n      mstore\n        /* \"#utility.yul\":13442:13573   */\n      tag_348\n        /* \"#utility.yul\":13568:13572   */\n      dup2\n        /* \"#utility.yul\":13442:13573   */\n      tag_179\n      jump\t// in\n    tag_348:\n        /* \"#utility.yul\":13434:13573   */\n      swap1\n      pop\n        /* \"#utility.yul\":13161:13580   */\n      swap2\n      swap1\n      pop\n      jump\t// out\n        /* \"#utility.yul\":13586:13831   */\n    tag_180:\n        /* \"#utility.yul\":13726:13760   */\n      0x4f6e6c79207468652072656769737465726564206661726d6572732061726520\n        /* \"#utility.yul\":13722:13723   */\n      0x00\n        /* \"#utility.yul\":13714:13720   */\n      dup3\n        /* \"#utility.yul\":13710:13724   */\n      add\n        /* \"#utility.yul\":13703:13761   */\n      mstore\n        /* \"#utility.yul\":13795:13823   */\n      0x617574686f726973656420666f72207468697320616374696f6e000000000000\n        /* \"#utility.yul\":13790:13792   */\n      0x20\n        /* \"#utility.yul\":13782:13788   */\n      dup3\n        /* \"#utility.yul\":13778:13793   */\n      add\n        /* \"#utility.yul\":13771:13824   */\n      mstore\n        /* \"#utility.yul\":13586:13831   */\n      pop\n      jump\t// out\n        /* \"#utility.yul\":13837:14203   */\n    tag_181:\n        /* \"#utility.yul\":13979:13982   */\n      0x00\n        /* \"#utility.yul\":14000:14067   */\n      tag_351\n        /* \"#utility.yul\":14064:14066   */\n      0x3a\n        /* \"#utility.yul\":14059:14062   */\n      dup4\n        /* \"#utility.yul\":14000:14067   */\n      tag_170\n      jump\t// in\n    tag_351:\n        /* \"#utility.yul\":13993:14067   */\n      swap2\n      pop\n        /* \"#utility.yul\":14076:14169   */\n      tag_352\n        /* \"#utility.yul\":14165:14168   */\n      dup3\n        /* \"#utility.yul\":14076:14169   */\n      tag_180\n      jump\t// in\n    tag_352:\n        /* \"#utility.yul\":14194:14196   */\n      0x40\n        /* \"#utility.yul\":14189:14192   */\n      dup3\n        /* \"#utility.yul\":14185:14197   */\n      add\n        /* \"#utility.yul\":14178:14197   */\n      swap1\n      pop\n        /* \"#utility.yul\":13837:14203   */\n      swap2\n      swap1\n      pop\n      jump\t// out\n        /* \"#utility.yul\":14209:14628   */\n    tag_73:\n        /* \"#utility.yul\":14375:14379   */\n      0x00\n        /* \"#utility.yul\":14413:14415   */\n      0x20\n        /* \"#utility.yul\":14402:14411   */\n      dup3\n        /* \"#utility.yul\":14398:14416   */\n      add\n        /* \"#utility.yul\":14390:14416   */\n      swap1\n      pop\n        /* \"#utility.yul\":14462:14471   */\n      dup2\n        /* \"#utility.yul\":14456:14460   */\n      dup2\n        /* \"#utility.yul\":14452:14472   */\n      sub\n        /* \"#utility.yul\":14448:14449   */\n      0x00\n        /* \"#utility.yul\":14437:14446   */\n      dup4\n        /* \"#utility.yul\":14433:14450   */\n      add\n        /* \"#utility.yul\":14426:14473   */\n      mstore\n        /* \"#utility.yul\":14490:14621   */\n      tag_354\n        /* \"#utility.yul\":14616:14620   */\n      dup2\n        /* \"#utility.yul\":14490:14621   */\n      tag_181\n      jump\t// in\n    tag_354:\n        /* \"#utility.yul\":14482:14621   */\n      swap1\n      pop\n        /* \"#utility.yul\":14209:14628   */\n      swap2\n      swap1\n      pop\n      jump\t// out\n        /* \"#utility.yul\":14634:14861   */\n    tag_182:\n        /* \"#utility.yul\":14774:14808   */\n      0x50726f6475637420616c72656164792072656769737465726564212052657665\n        /* \"#utility.yul\":14770:14771   */\n      0x00\n        /* \"#utility.yul\":14762:14768   */\n      dup3\n        /* \"#utility.yul\":14758:14772   */\n      add\n        /* \"#utility.yul\":14751:14809   */\n      mstore\n        /* \"#utility.yul\":14843:14853   */\n      0x7274696e672e2e2e000000000000000000000000000000000000000000000000\n        /* \"#utility.yul\":14838:14840   */\n      0x20\n        /* \"#utility.yul\":14830:14836   */\n      dup3\n        /* \"#utility.yul\":14826:14841   */\n      add\n        /* \"#utility.yul\":14819:14854   */\n      mstore\n        /* \"#utility.yul\":14634:14861   */\n      pop\n      jump\t// out\n        /* \"#utility.yul\":14867:15233   */\n    tag_183:\n        /* \"#utility.yul\":15009:15012   */\n      0x00\n        /* \"#utility.yul\":15030:15097   */\n      tag_357\n        /* \"#utility.yul\":15094:15096   */\n      0x28\n        /* \"#utility.yul\":15089:15092   */\n      dup4\n        /* \"#utility.yul\":15030:15097   */\n      tag_170\n      jump\t// in\n    tag_357:\n        /* \"#utility.yul\":15023:15097   */\n      swap2\n      pop\n        /* \"#utility.yul\":15106:15199   */\n      tag_358\n        /* \"#utility.yul\":15195:15198   */\n      dup3\n        /* \"#utility.yul\":15106:15199   */\n      tag_182\n      jump\t// in\n    tag_358:\n        /* \"#utility.yul\":15224:15226   */\n      0x40\n        /* \"#utility.yul\":15219:15222   */\n      dup3\n        /* \"#utility.yul\":15215:15227   */\n      add\n        /* \"#utility.yul\":15208:15227   */\n      swap1\n      pop\n        /* \"#utility.yul\":14867:15233   */\n      swap2\n      swap1\n      pop\n      jump\t// out\n        /* \"#utility.yul\":15239:15658   */\n    tag_78:\n        /* \"#utility.yul\":15405:15409   */\n      0x00\n        /* \"#utility.yul\":15443:15445   */\n      0x20\n        /* \"#utility.yul\":15432:15441   */\n      dup3\n        /* \"#utility.yul\":15428:15446   */\n      add\n        /* \"#utility.yul\":15420:15446   */\n      swap1\n      pop\n        /* \"#utility.yul\":15492:15501   */\n      dup2\n        /* \"#utility.yul\":15486:15490   */\n      dup2\n        /* \"#utility.yul\":15482:15502   */\n      sub\n        /* \"#utility.yul\":15478:15479   */\n      0x00\n        /* \"#utility.yul\":15467:15476   */\n      dup4\n        /* \"#utility.yul\":15463:15480   */\n      add\n        /* \"#utility.yul\":15456:15503   */\n      mstore\n        /* \"#utility.yul\":15520:15651   */\n      tag_360\n        /* \"#utility.yul\":15646:15650   */\n      dup2\n        /* \"#utility.yul\":15520:15651   */\n      tag_183\n      jump\t// in\n    tag_360:\n        /* \"#utility.yul\":15512:15651   */\n      swap1\n      pop\n        /* \"#utility.yul\":15239:15658   */\n      swap2\n      swap1\n      pop\n      jump\t// out\n        /* \"#utility.yul\":15664:15887   */\n    tag_184:\n        /* \"#utility.yul\":15804:15838   */\n      0x50726f64756374206e6f7420726567697374657265642120526576657274696e\n        /* \"#utility.yul\":15800:15801   */\n      0x00\n        /* \"#utility.yul\":15792:15798   */\n      dup3\n        /* \"#utility.yul\":15788:15802   */\n      add\n        /* \"#utility.yul\":15781:15839   */\n      mstore\n        /* \"#utility.yul\":15873:15879   */\n      0x672e2e2e00000000000000000000000000000000000000000000000000000000\n        /* \"#utility.yul\":15868:15870   */\n      0x20\n        /* \"#utility.yul\":15860:15866   */\n      dup3\n        /* \"#utility.yul\":15856:15871   */\n      add\n        /* \"#utility.yul\":15849:15880   */\n      mstore\n        /* \"#utility.yul\":15664:15887   */\n      pop\n      jump\t// out\n        /* \"#utility.yul\":15893:16259   */\n    tag_185:\n        /* \"#utility.yul\":16035:16038   */\n      0x00\n        /* \"#utility.yul\":16056:16123   */\n      tag_363\n        /* \"#utility.yul\":16120:16122   */\n      0x24\n        /* \"#utility.yul\":16115:16118   */\n      dup4\n        /* \"#utility.yul\":16056:16123   */\n      tag_170\n      jump\t// in\n    tag_363:\n        /* \"#utility.yul\":16049:16123   */\n      swap2\n      pop\n        /* \"#utility.yul\":16132:16225   */\n      tag_364\n        /* \"#utility.yul\":16221:16224   */\n      dup3\n        /* \"#utility.yul\":16132:16225   */\n      tag_184\n      jump\t// in\n    tag_364:\n        /* \"#utility.yul\":16250:16252   */\n      0x40\n        /* \"#utility.yul\":16245:16248   */\n      dup3\n        /* \"#utility.yul\":16241:16253   */\n      add\n        /* \"#utility.yul\":16234:16253   */\n      swap1\n      pop\n        /* \"#utility.yul\":15893:16259   */\n      swap2\n      swap1\n      pop\n      jump\t// out\n        /* \"#utility.yul\":16265:16684   */\n    tag_93:\n        /* \"#utility.yul\":16431:16435   */\n      0x00\n        /* \"#utility.yul\":16469:16471   */\n      0x20\n        /* \"#utility.yul\":16458:16467   */\n      dup3\n        /* \"#utility.yul\":16454:16472   */\n      add\n        /* \"#utility.yul\":16446:16472   */\n      swap1\n      pop\n        /* \"#utility.yul\":16518:16527   */\n      dup2\n        /* \"#utility.yul\":16512:16516   */\n      dup2\n        /* \"#utility.yul\":16508:16528   */\n      sub\n        /* \"#utility.yul\":16504:16505   */\n      0x00\n        /* \"#utility.yul\":16493:16502   */\n      dup4\n        /* \"#utility.yul\":16489:16506   */\n      add\n        /* \"#utility.yul\":16482:16529   */\n      mstore\n        /* \"#utility.yul\":16546:16677   */\n      tag_366\n        /* \"#utility.yul\":16672:16676   */\n      dup2\n        /* \"#utility.yul\":16546:16677   */\n      tag_185\n      jump\t// in\n    tag_366:\n        /* \"#utility.yul\":16538:16677   */\n      swap1\n      pop\n        /* \"#utility.yul\":16265:16684   */\n      swap2\n      swap1\n      pop\n      jump\t// out\n        /* \"#utility.yul\":16690:16870   */\n    tag_186:\n        /* \"#utility.yul\":16738:16815   */\n      0x4e487b7100000000000000000000000000000000000000000000000000000000\n        /* \"#utility.yul\":16735:16736   */\n      0x00\n        /* \"#utility.yul\":16728:16816   */\n      mstore\n        /* \"#utility.yul\":16835:16839   */\n      0x22\n        /* \"#utility.yul\":16832:16833   */\n      0x04\n        /* \"#utility.yul\":16825:16840   */\n      mstore\n        /* \"#utility.yul\":16859:16863   */\n      0x24\n        /* \"#utility.yul\":16856:16857   */\n      0x00\n        /* \"#utility.yul\":16849:16864   */\n      revert\n        /* \"#utility.yul\":16876:17196   */\n    tag_106:\n        /* \"#utility.yul\":16920:16926   */\n      0x00\n        /* \"#utility.yul\":16957:16958   */\n      0x02\n        /* \"#utility.yul\":16951:16955   */\n      dup3\n        /* \"#utility.yul\":16947:16959   */\n      div\n        /* \"#utility.yul\":16937:16959   */\n      swap1\n      pop\n        /* \"#utility.yul\":17004:17005   */\n      0x01\n        /* \"#utility.yul\":16998:17002   */\n      dup3\n        /* \"#utility.yul\":16994:17006   */\n      and\n        /* \"#utility.yul\":17025:17043   */\n      dup1\n        /* \"#utility.yul\":17015:17096   */\n      tag_369\n      jumpi\n        /* \"#utility.yul\":17081:17085   */\n      0x7f\n        /* \"#utility.yul\":17073:17079   */\n      dup3\n        /* \"#utility.yul\":17069:17086   */\n      and\n        /* \"#utility.yul\":17059:17086   */\n      swap2\n      pop\n        /* \"#utility.yul\":17015:17096   */\n    tag_369:\n        /* \"#utility.yul\":17143:17145   */\n      0x20\n        /* \"#utility.yul\":17135:17141   */\n      dup3\n        /* \"#utility.yul\":17132:17146   */\n      lt\n        /* \"#utility.yul\":17112:17130   */\n      dup2\n        /* \"#utility.yul\":17109:17147   */\n      sub\n        /* \"#utility.yul\":17106:17190   */\n      tag_370\n      jumpi\n        /* \"#utility.yul\":17162:17180   */\n      tag_371\n      tag_186\n      jump\t// in\n    tag_371:\n        /* \"#utility.yul\":17106:17190   */\n    tag_370:\n        /* \"#utility.yul\":16927:17196   */\n      pop\n        /* \"#utility.yul\":16876:17196   */\n      swap2\n      swap1\n      pop\n      jump\t// out\n        /* \"#utility.yul\":17202:17440   */\n    tag_187:\n        /* \"#utility.yul\":17342:17376   */\n      0x4f6e6c79207468652053797374656d2041646d696e20697320617574686f7269\n        /* \"#utility.yul\":17338:17339   */\n      0x00\n        /* \"#utility.yul\":17330:17336   */\n      dup3\n        /* \"#utility.yul\":17326:17340   */\n      add\n        /* \"#utility.yul\":17319:17377   */\n      mstore\n        /* \"#utility.yul\":17411:17432   */\n      0x73656420666f72207468697320616374696f6e00000000000000000000000000\n        /* \"#utility.yul\":17406:17408   */\n      0x20\n        /* \"#utility.yul\":17398:17404   */\n      dup3\n        /* \"#utility.yul\":17394:17409   */\n      add\n        /* \"#utility.yul\":17387:17433   */\n      mstore\n        /* \"#utility.yul\":17202:17440   */\n      pop\n      jump\t// out\n        /* \"#utility.yul\":17446:17812   */\n    tag_188:\n        /* \"#utility.yul\":17588:17591   */\n      0x00\n        /* \"#utility.yul\":17609:17676   */\n      tag_374\n        /* \"#utility.yul\":17673:17675   */\n      0x33\n        /* \"#utility.yul\":17668:17671   */\n      dup4\n        /* \"#utility.yul\":17609:17676   */\n      tag_170\n      jump\t// in\n    tag_374:\n        /* \"#utility.yul\":17602:17676   */\n      swap2\n      pop\n        /* \"#utility.yul\":17685:17778   */\n      tag_375\n        /* \"#utility.yul\":17774:17777   */\n      dup3\n        /* \"#utility.yul\":17685:17778   */\n      tag_187\n      jump\t// in\n    tag_375:\n        /* \"#utility.yul\":17803:17805   */\n      0x40\n        /* \"#utility.yul\":17798:17801   */\n      dup3\n        /* \"#utility.yul\":17794:17806   */\n      add\n        /* \"#utility.yul\":17787:17806   */\n      swap1\n      pop\n        /* \"#utility.yul\":17446:17812   */\n      swap2\n      swap1\n      pop\n      jump\t// out\n        /* \"#utility.yul\":17818:18237   */\n    tag_119:\n        /* \"#utility.yul\":17984:17988   */\n      0x00\n        /* \"#utility.yul\":18022:18024   */\n      0x20\n        /* \"#utility.yul\":18011:18020   */\n      dup3\n        /* \"#utility.yul\":18007:18025   */\n      add\n        /* \"#utility.yul\":17999:18025   */\n      swap1\n      pop\n        /* \"#utility.yul\":18071:18080   */\n      dup2\n        /* \"#utility.yul\":18065:18069   */\n      dup2\n        /* \"#utility.yul\":18061:18081   */\n      sub\n        /* \"#utility.yul\":18057:18058   */\n      0x00\n        /* \"#utility.yul\":18046:18055   */\n      dup4\n        /* \"#utility.yul\":18042:18059   */\n      add\n        /* \"#utility.yul\":18035:18082   */\n      mstore\n        /* \"#utility.yul\":18099:18230   */\n      tag_377\n        /* \"#utility.yul\":18225:18229   */\n      dup2\n        /* \"#utility.yul\":18099:18230   */\n      tag_188\n      jump\t// in\n    tag_377:\n        /* \"#utility.yul\":18091:18230   */\n      swap1\n      pop\n        /* \"#utility.yul\":17818:18237   */\n      swap2\n      swap1\n      pop\n      jump\t// out\n        /* \"#utility.yul\":18243:18469   */\n    tag_189:\n        /* \"#utility.yul\":18383:18417   */\n      0x4661726d657220616c7265616479207265676973746572656421205265766572\n        /* \"#utility.yul\":18379:18380   */\n      0x00\n        /* \"#utility.yul\":18371:18377   */\n      dup3\n        /* \"#utility.yul\":18367:18381   */\n      add\n        /* \"#utility.yul\":18360:18418   */\n      mstore\n        /* \"#utility.yul\":18452:18461   */\n      0x74696e672e2e2e00000000000000000000000000000000000000000000000000\n        /* \"#utility.yul\":18447:18449   */\n      0x20\n        /* \"#utility.yul\":18439:18445   */\n      dup3\n        /* \"#utility.yul\":18435:18450   */\n      add\n        /* \"#utility.yul\":18428:18462   */\n      mstore\n        /* \"#utility.yul\":18243:18469   */\n      pop\n      jump\t// out\n        /* \"#utility.yul\":18475:18841   */\n    tag_190:\n        /* \"#utility.yul\":18617:18620   */\n      0x00\n        /* \"#utility.yul\":18638:18705   */\n      tag_380\n        /* \"#utility.yul\":18702:18704   */\n      0x27\n        /* \"#utility.yul\":18697:18700   */\n      dup4\n        /* \"#utility.yul\":18638:18705   */\n      tag_170\n      jump\t// in\n    tag_380:\n        /* \"#utility.yul\":18631:18705   */\n      swap2\n      pop\n        /* \"#utility.yul\":18714:18807   */\n      tag_381\n        /* \"#utility.yul\":18803:18806   */\n      dup3\n        /* \"#utility.yul\":18714:18807   */\n      tag_189\n      jump\t// in\n    tag_381:\n        /* \"#utility.yul\":18832:18834   */\n      0x40\n        /* \"#utility.yul\":18827:18830   */\n      dup3\n        /* \"#utility.yul\":18823:18835   */\n      add\n        /* \"#utility.yul\":18816:18835   */\n      swap1\n      pop\n        /* \"#utility.yul\":18475:18841   */\n      swap2\n      swap1\n      pop\n      jump\t// out\n        /* \"#utility.yul\":18847:19266   */\n    tag_124:\n        /* \"#utility.yul\":19013:19017   */\n      0x00\n        /* \"#utility.yul\":19051:19053   */\n      0x20\n        /* \"#utility.yul\":19040:19049   */\n      dup3\n        /* \"#utility.yul\":19036:19054   */\n      add\n        /* \"#utility.yul\":19028:19054   */\n      swap1\n      pop\n        /* \"#utility.yul\":19100:19109   */\n      dup2\n        /* \"#utility.yul\":19094:19098   */\n      dup2\n        /* \"#utility.yul\":19090:19110   */\n      sub\n        /* \"#utility.yul\":19086:19087   */\n      0x00\n        /* \"#utility.yul\":19075:19084   */\n      dup4\n        /* \"#utility.yul\":19071:19088   */\n      add\n        /* \"#utility.yul\":19064:19111   */\n      mstore\n        /* \"#utility.yul\":19128:19259   */\n      tag_383\n        /* \"#utility.yul\":19254:19258   */\n      dup2\n        /* \"#utility.yul\":19128:19259   */\n      tag_190\n      jump\t// in\n    tag_383:\n        /* \"#utility.yul\":19120:19259   */\n      swap1\n      pop\n        /* \"#utility.yul\":18847:19266   */\n      swap2\n      swap1\n      pop\n      jump\t// out\n        /* \"#utility.yul\":19272:19452   */\n    tag_191:\n        /* \"#utility.yul\":19320:19397   */\n      0x4e487b7100000000000000000000000000000000000000000000000000000000\n        /* \"#utility.yul\":19317:19318   */\n      0x00\n        /* \"#utility.yul\":19310:19398   */\n      mstore\n        /* \"#utility.yul\":19417:19421   */\n      0x41\n        /* \"#utility.yul\":19414:19415   */\n      0x04\n        /* \"#utility.yul\":19407:19422   */\n      mstore\n        /* \"#utility.yul\":19441:19445   */\n      0x24\n        /* \"#utility.yul\":19438:19439   */\n      0x00\n        /* \"#utility.yul\":19431:19446   */\n      revert\n        /* \"#utility.yul\":19458:19599   */\n    tag_192:\n        /* \"#utility.yul\":19507:19511   */\n      0x00\n        /* \"#utility.yul\":19530:19533   */\n      dup2\n        /* \"#utility.yul\":19522:19533   */\n      swap1\n      pop\n        /* \"#utility.yul\":19553:19556   */\n      dup2\n        /* \"#utility.yul\":19550:19551   */\n      0x00\n        /* \"#utility.yul\":19543:19557   */\n      mstore\n        /* \"#utility.yul\":19587:19591   */\n      0x20\n        /* \"#utility.yul\":19584:19585   */\n      0x00\n        /* \"#utility.yul\":19574:19592   */\n      keccak256\n        /* \"#utility.yul\":19566:19592   */\n      swap1\n      pop\n        /* \"#utility.yul\":19458:19599   */\n      swap2\n      swap1\n      pop\n      jump\t// out\n        /* \"#utility.yul\":19605:19698   */\n    tag_193:\n        /* \"#utility.yul\":19642:19648   */\n      0x00\n        /* \"#utility.yul\":19689:19691   */\n      0x20\n        /* \"#utility.yul\":19684:19686   */\n      0x1f\n        /* \"#utility.yul\":19677:19682   */\n      dup4\n        /* \"#utility.yul\":19673:19687   */\n      add\n        /* \"#utility.yul\":19669:19692   */\n      div\n        /* \"#utility.yul\":19659:19692   */\n      swap1\n      pop\n        /* \"#utility.yul\":19605:19698   */\n      swap2\n      swap1\n      pop\n      jump\t// out\n        /* \"#utility.yul\":19704:19811   */\n    tag_194:\n        /* \"#utility.yul\":19748:19756   */\n      0x00\n        /* \"#utility.yul\":19798:19803   */\n      dup3\n        /* \"#utility.yul\":19792:19796   */\n      dup3\n        /* \"#utility.yul\":19788:19804   */\n      shl\n        /* \"#utility.yul\":19767:19804   */\n      swap1\n      pop\n        /* \"#utility.yul\":19704:19811   */\n      swap3\n      swap2\n      pop\n      pop\n      jump\t// out\n        /* \"#utility.yul\":19817:20210   */\n    tag_195:\n        /* \"#utility.yul\":19886:19892   */\n      0x00\n        /* \"#utility.yul\":19936:19937   */\n      0x08\n        /* \"#utility.yul\":19924:19934   */\n      dup4\n        /* \"#utility.yul\":19920:19938   */\n      mul\n        /* \"#utility.yul\":19959:20056   */\n      tag_389\n        /* \"#utility.yul\":19989:20055   */\n      0xffffffffffffffffffffffffffffffffffffffffffffffffffffffffffffffff\n        /* \"#utility.yul\":19978:19987   */\n      dup3\n        /* \"#utility.yul\":19959:20056   */\n      tag_194\n      jump\t// in\n    tag_389:\n        /* \"#utility.yul\":20077:20116   */\n      tag_390\n        /* \"#utility.yul\":20107:20115   */\n      dup7\n        /* \"#utility.yul\":20096:20105   */\n      dup4\n        /* \"#utility.yul\":20077:20116   */\n      tag_194\n      jump\t// in\n    tag_390:\n        /* \"#utility.yul\":20065:20116   */\n      swap6\n      pop\n        /* \"#utility.yul\":20149:20153   */\n      dup1\n        /* \"#utility.yul\":20145:20154   */\n      not\n        /* \"#utility.yul\":20138:20143   */\n      dup5\n        /* \"#utility.yul\":20134:20155   */\n      and\n        /* \"#utility.yul\":20125:20155   */\n      swap4\n      pop\n        /* \"#utility.yul\":20198:20202   */\n      dup1\n        /* \"#utility.yul\":20188:20196   */\n      dup7\n        /* \"#utility.yul\":20184:20203   */\n      and\n        /* \"#utility.yul\":20177:20182   */\n      dup5\n        /* \"#utility.yul\":20174:20204   */\n      or\n        /* \"#utility.yul\":20164:20204   */\n      swap3\n      pop\n        /* \"#utility.yul\":19893:20210   */\n      pop\n      pop\n        /* \"#utility.yul\":19817:20210   */\n      swap4\n      swap3\n      pop\n      pop\n      pop\n      jump\t// out\n        /* \"#utility.yul\":20216:20276   */\n    tag_196:\n        /* \"#utility.yul\":20244:20247   */\n      0x00\n        /* \"#utility.yul\":20265:20270   */\n      dup2\n        /* \"#utility.yul\":20258:20270   */\n      swap1\n      pop\n        /* \"#utility.yul\":20216:20276   */\n      swap2\n      swap1\n      pop\n      jump\t// out\n        /* \"#utility.yul\":20282:20424   */\n    tag_197:\n        /* \"#utility.yul\":20332:20341   */\n      0x00\n        /* \"#utility.yul\":20365:20418   */\n      tag_393\n        /* \"#utility.yul\":20383:20417   */\n      tag_394\n        /* \"#utility.yul\":20392:20416   */\n      tag_395\n        /* \"#utility.yul\":20410:20415   */\n      dup5\n        /* \"#utility.yul\":20392:20416   */\n      tag_139\n      jump\t// in\n    tag_395:\n        /* \"#utility.yul\":20383:20417   */\n      tag_196\n      jump\t// in\n    tag_394:\n        /* \"#utility.yul\":20365:20418   */\n      tag_139\n      jump\t// in\n    tag_393:\n        /* \"#utility.yul\":20352:20418   */\n      swap1\n      pop\n        /* \"#utility.yul\":20282:20424   */\n      swap2\n      swap1\n      pop\n      jump\t// out\n        /* \"#utility.yul\":20430:20505   */\n    tag_198:\n        /* \"#utility.yul\":20473:20476   */\n      0x00\n        /* \"#utility.yul\":20494:20499   */\n      dup2\n        /* \"#utility.yul\":20487:20499   */\n      swap1\n      pop\n        /* \"#utility.yul\":20430:20505   */\n      swap2\n      swap1\n      pop\n      jump\t// out\n        /* \"#utility.yul\":20511:20780   */\n    tag_199:\n        /* \"#utility.yul\":20621:20660   */\n      tag_398\n        /* \"#utility.yul\":20652:20659   */\n      dup4\n        /* \"#utility.yul\":20621:20660   */\n      tag_197\n      jump\t// in\n    tag_398:\n        /* \"#utility.yul\":20682:20773   */\n      tag_399\n        /* \"#utility.yul\":20731:20772   */\n      tag_400\n        /* \"#utility.yul\":20755:20771   */\n      dup3\n        /* \"#utility.yul\":20731:20772   */\n      tag_198\n      jump\t// in\n    tag_400:\n        /* \"#utility.yul\":20723:20729   */\n      dup5\n        /* \"#utility.yul\":20716:20720   */\n      dup5\n        /* \"#utility.yul\":20710:20721   */\n      sload\n        /* \"#utility.yul\":20682:20773   */\n      tag_195\n      jump\t// in\n    tag_399:\n        /* \"#utility.yul\":20676:20680   */\n      dup3\n        /* \"#utility.yul\":20669:20774   */\n      sstore\n        /* \"#utility.yul\":20587:20780   */\n      pop\n        /* \"#utility.yul\":20511:20780   */\n      pop\n      pop\n      pop\n      jump\t// out\n        /* \"#utility.yul\":20786:20859   */\n    tag_200:\n        /* \"#utility.yul\":20831:20834   */\n      0x00\n        /* \"#utility.yul\":20786:20859   */\n      swap1\n      jump\t// out\n        /* \"#utility.yul\":20865:21054   */\n    tag_201:\n        /* \"#utility.yul\":20942:20974   */\n      tag_403\n      tag_200\n      jump\t// in\n    tag_403:\n        /* \"#utility.yul\":20983:21048   */\n      tag_404\n        /* \"#utility.yul\":21041:21047   */\n      dup2\n        /* \"#utility.yul\":21033:21039   */\n      dup5\n        /* \"#utility.yul\":21027:21031   */\n      dup5\n        /* \"#utility.yul\":20983:21048   */\n      tag_199\n      jump\t// in\n    tag_404:\n        /* \"#utility.yul\":20918:21054   */\n      pop\n        /* \"#utility.yul\":20865:21054   */\n      pop\n      pop\n      jump\t// out\n        /* \"#utility.yul\":21060:21246   */\n    tag_202:\n        /* \"#utility.yul\":21120:21240   */\n    tag_406:\n        /* \"#utility.yul\":21137:21140   */\n      dup2\n        /* \"#utility.yul\":21130:21135   */\n      dup2\n        /* \"#utility.yul\":21127:21141   */\n      lt\n        /* \"#utility.yul\":21120:21240   */\n      iszero\n      tag_408\n      jumpi\n        /* \"#utility.yul\":21191:21230   */\n      tag_409\n        /* \"#utility.yul\":21228:21229   */\n      0x00\n        /* \"#utility.yul\":21221:21226   */\n      dup3\n        /* \"#utility.yul\":21191:21230   */\n      tag_201\n      jump\t// in\n    tag_409:\n        /* \"#utility.yul\":21164:21165   */\n      0x01\n        /* \"#utility.yul\":21157:21162   */\n      dup2\n        /* \"#utility.yul\":21153:21166   */\n      add\n        /* \"#utility.yul\":21144:21166   */\n      swap1\n      pop\n        /* \"#utility.yul\":21120:21240   */\n      jump(tag_406)\n    tag_408:\n        /* \"#utility.yul\":21060:21246   */\n      pop\n      pop\n      jump\t// out\n        /* \"#utility.yul\":21252:21795   */\n    tag_203:\n        /* \"#utility.yul\":21353:21355   */\n      0x1f\n        /* \"#utility.yul\":21348:21351   */\n      dup3\n        /* \"#utility.yul\":21345:21356   */\n      gt\n        /* \"#utility.yul\":21342:21788   */\n      iszero\n      tag_411\n      jumpi\n        /* \"#utility.yul\":21387:21425   */\n      tag_412\n        /* \"#utility.yul\":21419:21424   */\n      dup2\n        /* \"#utility.yul\":21387:21425   */\n      tag_192\n      jump\t// in\n    tag_412:\n        /* \"#utility.yul\":21471:21500   */\n      tag_413\n        /* \"#utility.yul\":21489:21499   */\n      dup5\n        /* \"#utility.yul\":21471:21500   */\n      tag_193\n      jump\t// in\n    tag_413:\n        /* \"#utility.yul\":21461:21469   */\n      dup2\n        /* \"#utility.yul\":21457:21501   */\n      add\n        /* \"#utility.yul\":21654:21656   */\n      0x20\n        /* \"#utility.yul\":21642:21652   */\n      dup6\n        /* \"#utility.yul\":21639:21657   */\n      lt\n        /* \"#utility.yul\":21636:21685   */\n      iszero\n      tag_414\n      jumpi\n        /* \"#utility.yul\":21675:21683   */\n      dup2\n        /* \"#utility.yul\":21660:21683   */\n      swap1\n      pop\n        /* \"#utility.yul\":21636:21685   */\n    tag_414:\n        /* \"#utility.yul\":21698:21778   */\n      tag_415\n        /* \"#utility.yul\":21754:21776   */\n      tag_416\n        /* \"#utility.yul\":21772:21775   */\n      dup6\n        /* \"#utility.yul\":21754:21776   */\n      tag_193\n      jump\t// in\n    tag_416:\n        /* \"#utility.yul\":21744:21752   */\n      dup4\n        /* \"#utility.yul\":21740:21777   */\n      add\n        /* \"#utility.yul\":21727:21738   */\n      dup3\n        /* \"#utility.yul\":21698:21778   */\n      tag_202\n      jump\t// in\n    tag_415:\n        /* \"#utility.yul\":21357:21788   */\n      pop\n      pop\n        /* \"#utility.yul\":21342:21788   */\n    tag_411:\n        /* \"#utility.yul\":21252:21795   */\n      pop\n      pop\n      pop\n      jump\t// out\n        /* \"#utility.yul\":21801:21918   */\n    tag_204:\n        /* \"#utility.yul\":21855:21863   */\n      0x00\n        /* \"#utility.yul\":21905:21910   */\n      dup3\n        /* \"#utility.yul\":21899:21903   */\n      dup3\n        /* \"#utility.yul\":21895:21911   */\n      shr\n        /* \"#utility.yul\":21874:21911   */\n      swap1\n      pop\n        /* \"#utility.yul\":21801:21918   */\n      swap3\n      swap2\n      pop\n      pop\n      jump\t// out\n        /* \"#utility.yul\":21924:22093   */\n    tag_205:\n        /* \"#utility.yul\":21968:21974   */\n      0x00\n        /* \"#utility.yul\":22001:22052   */\n      tag_419\n        /* \"#utility.yul\":22049:22050   */\n      0x00\n        /* \"#utility.yul\":22045:22051   */\n      not\n        /* \"#utility.yul\":22037:22042   */\n      dup5\n        /* \"#utility.yul\":22034:22035   */\n      0x08\n        /* \"#utility.yul\":22030:22043   */\n      mul\n        /* \"#utility.yul\":22001:22052   */\n      tag_204\n      jump\t// in\n    tag_419:\n        /* \"#utility.yul\":21997:22053   */\n      not\n        /* \"#utility.yul\":22082:22086   */\n      dup1\n        /* \"#utility.yul\":22076:22080   */\n      dup4\n        /* \"#utility.yul\":22072:22087   */\n      and\n        /* \"#utility.yul\":22062:22087   */\n      swap2\n      pop\n        /* \"#utility.yul\":21975:22093   */\n      pop\n        /* \"#utility.yul\":21924:22093   */\n      swap3\n      swap2\n      pop\n      pop\n      jump\t// out\n        /* \"#utility.yul\":22098:22393   */\n    tag_206:\n        /* \"#utility.yul\":22174:22178   */\n      0x00\n        /* \"#utility.yul\":22320:22349   */\n      tag_421\n        /* \"#utility.yul\":22345:22348   */\n      dup4\n        /* \"#utility.yul\":22339:22343   */\n      dup4\n        /* \"#utility.yul\":22320:22349   */\n      tag_205\n      jump\t// in\n    tag_421:\n        /* \"#utility.yul\":22312:22349   */\n      swap2\n      pop\n        /* \"#utility.yul\":22382:22385   */\n      dup3\n        /* \"#utility.yul\":22379:22380   */\n      0x02\n        /* \"#utility.yul\":22375:22386   */\n      mul\n        /* \"#utility.yul\":22369:22373   */\n      dup3\n        /* \"#utility.yul\":22366:22387   */\n      or\n        /* \"#utility.yul\":22358:22387   */\n      swap1\n      pop\n        /* \"#utility.yul\":22098:22393   */\n      swap3\n      swap2\n      pop\n      pop\n      jump\t// out\n        /* \"#utility.yul\":22398:23793   */\n    tag_126:\n        /* \"#utility.yul\":22515:22552   */\n      tag_423\n        /* \"#utility.yul\":22548:22551   */\n      dup3\n        /* \"#utility.yul\":22515:22552   */\n      tag_169\n      jump\t// in\n    tag_423:\n        /* \"#utility.yul\":22617:22635   */\n      0xffffffffffffffff\n        /* \"#utility.yul\":22609:22615   */\n      dup2\n        /* \"#utility.yul\":22606:22636   */\n      gt\n        /* \"#utility.yul\":22603:22659   */\n      iszero\n      tag_424\n      jumpi\n        /* \"#utility.yul\":22639:22657   */\n      tag_425\n      tag_191\n      jump\t// in\n    tag_425:\n        /* \"#utility.yul\":22603:22659   */\n    tag_424:\n        /* \"#utility.yul\":22683:22721   */\n      tag_426\n        /* \"#utility.yul\":22715:22719   */\n      dup3\n        /* \"#utility.yul\":22709:22720   */\n      sload\n        /* \"#utility.yul\":22683:22721   */\n      tag_106\n      jump\t// in\n    tag_426:\n        /* \"#utility.yul\":22768:22835   */\n      tag_427\n        /* \"#utility.yul\":22828:22834   */\n      dup3\n        /* \"#utility.yul\":22820:22826   */\n      dup3\n        /* \"#utility.yul\":22814:22818   */\n      dup6\n        /* \"#utility.yul\":22768:22835   */\n      tag_203\n      jump\t// in\n    tag_427:\n        /* \"#utility.yul\":22862:22863   */\n      0x00\n        /* \"#utility.yul\":22886:22890   */\n      0x20\n        /* \"#utility.yul\":22873:22890   */\n      swap1\n      pop\n        /* \"#utility.yul\":22918:22920   */\n      0x1f\n        /* \"#utility.yul\":22910:22916   */\n      dup4\n        /* \"#utility.yul\":22907:22921   */\n      gt\n        /* \"#utility.yul\":22935:22936   */\n      0x01\n        /* \"#utility.yul\":22930:23548   */\n      dup2\n      eq\n      tag_429\n      jumpi\n        /* \"#utility.yul\":23592:23593   */\n      0x00\n        /* \"#utility.yul\":23609:23615   */\n      dup5\n        /* \"#utility.yul\":23606:23683   */\n      iszero\n      tag_430\n      jumpi\n        /* \"#utility.yul\":23658:23667   */\n      dup3\n        /* \"#utility.yul\":23653:23656   */\n      dup8\n        /* \"#utility.yul\":23649:23668   */\n      add\n        /* \"#utility.yul\":23643:23669   */\n      mload\n        /* \"#utility.yul\":23634:23669   */\n      swap1\n      pop\n        /* \"#utility.yul\":23606:23683   */\n    tag_430:\n        /* \"#utility.yul\":23709:23776   */\n      tag_431\n        /* \"#utility.yul\":23769:23775   */\n      dup6\n        /* \"#utility.yul\":23762:23767   */\n      dup3\n        /* \"#utility.yul\":23709:23776   */\n      tag_206\n      jump\t// in\n    tag_431:\n        /* \"#utility.yul\":23703:23707   */\n      dup7\n        /* \"#utility.yul\":23696:23777   */\n      sstore\n        /* \"#utility.yul\":23565:23787   */\n      pop\n        /* \"#utility.yul\":22900:23787   */\n      jump(tag_428)\n        /* \"#utility.yul\":22930:23548   */\n    tag_429:\n        /* \"#utility.yul\":22982:22986   */\n      0x1f\n        /* \"#utility.yul\":22978:22987   */\n      not\n        /* \"#utility.yul\":22970:22976   */\n      dup5\n        /* \"#utility.yul\":22966:22988   */\n      and\n        /* \"#utility.yul\":23016:23053   */\n      tag_432\n        /* \"#utility.yul\":23048:23052   */\n      dup7\n        /* \"#utility.yul\":23016:23053   */\n      tag_192\n      jump\t// in\n    tag_432:\n        /* \"#utility.yul\":23075:23076   */\n      0x00\n        /* \"#utility.yul\":23089:23297   */\n    tag_433:\n        /* \"#utility.yul\":23103:23110   */\n      dup3\n        /* \"#utility.yul\":23100:23101   */\n      dup2\n        /* \"#utility.yul\":23097:23111   */\n      lt\n        /* \"#utility.yul\":23089:23297   */\n      iszero\n      tag_435\n      jumpi\n        /* \"#utility.yul\":23182:23191   */\n      dup5\n        /* \"#utility.yul\":23177:23180   */\n      dup10\n        /* \"#utility.yul\":23173:23192   */\n      add\n        /* \"#utility.yul\":23167:23193   */\n      mload\n        /* \"#utility.yul\":23159:23165   */\n      dup3\n        /* \"#utility.yul\":23152:23194   */\n      sstore\n        /* \"#utility.yul\":23233:23234   */\n      0x01\n        /* \"#utility.yul\":23225:23231   */\n      dup3\n        /* \"#utility.yul\":23221:23235   */\n      add\n        /* \"#utility.yul\":23211:23235   */\n      swap2\n      pop\n        /* \"#utility.yul\":23280:23282   */\n      0x20\n        /* \"#utility.yul\":23269:23278   */\n      dup6\n        /* \"#utility.yul\":23265:23283   */\n      add\n        /* \"#utility.yul\":23252:23283   */\n      swap5\n      pop\n        /* \"#utility.yul\":23126:23130   */\n      0x20\n        /* \"#utility.yul\":23123:23124   */\n      dup2\n        /* \"#utility.yul\":23119:23131   */\n      add\n        /* \"#utility.yul\":23114:23131   */\n      swap1\n      pop\n        /* \"#utility.yul\":23089:23297   */\n      jump(tag_433)\n    tag_435:\n        /* \"#utility.yul\":23325:23331   */\n      dup7\n        /* \"#utility.yul\":23316:23323   */\n      dup4\n        /* \"#utility.yul\":23313:23332   */\n      lt\n        /* \"#utility.yul\":23310:23489   */\n      iszero\n      tag_436\n      jumpi\n        /* \"#utility.yul\":23383:23392   */\n      dup5\n        /* \"#utility.yul\":23378:23381   */\n      dup10\n        /* \"#utility.yul\":23374:23393   */\n      add\n        /* \"#utility.yul\":23368:23394   */\n      mload\n        /* \"#utility.yul\":23426:23474   */\n      tag_437\n        /* \"#utility.yul\":23468:23472   */\n      0x1f\n        /* \"#utility.yul\":23460:23466   */\n      dup10\n        /* \"#utility.yul\":23456:23473   */\n      and\n        /* \"#utility.yul\":23445:23454   */\n      dup3\n        /* \"#utility.yul\":23426:23474   */\n      tag_205\n      jump\t// in\n    tag_437:\n        /* \"#utility.yul\":23418:23424   */\n      dup4\n        /* \"#utility.yul\":23411:23475   */\n      sstore\n        /* \"#utility.yul\":23333:23489   */\n      pop\n        /* \"#utility.yul\":23310:23489   */\n    tag_436:\n        /* \"#utility.yul\":23535:23536   */\n      0x01\n        /* \"#utility.yul\":23531:23532   */\n      0x02\n        /* \"#utility.yul\":23523:23529   */\n      dup9\n        /* \"#utility.yul\":23519:23533   */\n      mul\n        /* \"#utility.yul\":23515:23537   */\n      add\n        /* \"#utility.yul\":23509:23513   */\n      dup9\n        /* \"#utility.yul\":23502:23538   */\n      sstore\n        /* \"#utility.yul\":22937:23548   */\n      pop\n      pop\n      pop\n        /* \"#utility.yul\":22900:23787   */\n    tag_428:\n      pop\n        /* \"#utility.yul\":22490:23793   */\n      pop\n      pop\n      pop\n        /* \"#utility.yul\":22398:23793   */\n      pop\n      pop\n      jump\t// out\n        /* \"#utility.yul\":23799:23979   */\n    tag_207:\n        /* \"#utility.yul\":23847:23924   */\n      0x4e487b7100000000000000000000000000000000000000000000000000000000\n        /* \"#utility.yul\":23844:23845   */\n      0x00\n        /* \"#utility.yul\":23837:23925   */\n      mstore\n        /* \"#utility.yul\":23944:23948   */\n      0x11\n        /* \"#utility.yul\":23941:23942   */\n      0x04\n        /* \"#utility.yul\":23934:23949   */\n      mstore\n        /* \"#utility.yul\":23968:23972   */\n      0x24\n        /* \"#utility.yul\":23965:23966   */\n      0x00\n        /* \"#utility.yul\":23958:23973   */\n      revert\n        /* \"#utility.yul\":23985:24176   */\n    tag_135:\n        /* \"#utility.yul\":24025:24028   */\n      0x00\n        /* \"#utility.yul\":24044:24064   */\n      tag_440\n        /* \"#utility.yul\":24062:24063   */\n      dup3\n        /* \"#utility.yul\":24044:24064   */\n      tag_139\n      jump\t// in\n    tag_440:\n        /* \"#utility.yul\":24039:24064   */\n      swap2\n      pop\n        /* \"#utility.yul\":24078:24098   */\n      tag_441\n        /* \"#utility.yul\":24096:24097   */\n      dup4\n        /* \"#utility.yul\":24078:24098   */\n      tag_139\n      jump\t// in\n    tag_441:\n        /* \"#utility.yul\":24073:24098   */\n      swap3\n      pop\n        /* \"#utility.yul\":24121:24122   */\n      dup3\n        /* \"#utility.yul\":24118:24119   */\n      dup3\n        /* \"#utility.yul\":24114:24123   */\n      add\n        /* \"#utility.yul\":24107:24123   */\n      swap1\n      pop\n        /* \"#utility.yul\":24142:24145   */\n      dup1\n        /* \"#utility.yul\":24139:24140   */\n      dup3\n        /* \"#utility.yul\":24136:24146   */\n      gt\n        /* \"#utility.yul\":24133:24169   */\n      iszero\n      tag_442\n      jumpi\n        /* \"#utility.yul\":24149:24167   */\n      tag_443\n      tag_207\n      jump\t// in\n    tag_443:\n        /* \"#utility.yul\":24133:24169   */\n    tag_442:\n        /* \"#utility.yul\":23985:24176   */\n      swap3\n      swap2\n      pop\n      pop\n      jump\t// out\n\n    auxdata: 0xa2646970667358221220f5f731f13f3fb660f6db4ba9c276bed53c008337c46393bce162198d98794d3864736f6c634300081a0033\n}\n",
				"bytecode": {
					"linkReferences": {},
					"object": "60806040525f80553360045f6101000a81548173ffffffffffffffffffffffffffffffffffffffff021916908373ffffffffffffffffffffffffffffffffffffffff1602179055503480156051575f80fd5b50611a0b8061005f5f395ff3fe608060405234801561000f575f80fd5b506004361061009c575f3560e01c8063bc12501211610064578063bc12501214610181578063c4a8b5d5146101b1578063d335ccfa146101cf578063e86ce70914610202578063f851a4401461021e5761009c565b80631584fd05146100a05780634e5d37a9146100d057806350208eee146101005780635524a0b7146101305780636813b53b1461014c575b5f80fd5b6100ba60048036038101906100b59190610d87565b61023c565b6040516100c79190610dcc565b60405180910390f35b6100ea60048036038101906100e59190610e3f565b61025b565b6040516100f79190610dcc565b60405180910390f35b61011a60048036038101906101159190610e3f565b6102f1565b6040516101279190610e79565b60405180910390f35b61014a60048036038101906101459190610ed8565b6103d1565b005b61016660048036038101906101619190610d87565b61060b565b60405161017896959493929190611017565b60405180910390f35b61019b60048036038101906101969190610e3f565b610710565b6040516101a8919061112d565b60405180910390f35b6101b96107eb565b6040516101c69190610e79565b60405180910390f35b6101e960048036038101906101e49190610e3f565b6107f3565b6040516101f994939291906111bd565b60405180910390f35b61021c6004803603810190610217919061126f565b610a1f565b005b610226610c7e565b6040516102339190611312565b60405180910390f35b5f8060025f8481526020019081526020015f205f015414159050919050565b5f8073ffffffffffffffffffffffffffffffffffffffff1660035f8473ffffffffffffffffffffffffffffffffffffffff1673ffffffffffffffffffffffffffffffffffffffff1681526020019081526020015f205f015f9054906101000a900473ffffffffffffffffffffffffffffffffffffffff1673ffffffffffffffffffffffffffffffffffffffff1614159050919050565b5f6102fb8261025b565b61033a576040517f08c379a00000000000000000000000000000000000000000000000000000000081526004016103319061139b565b60405180910390fd5b5f60015f8473ffffffffffffffffffffffffffffffffffffffff1673ffffffffffffffffffffffffffffffffffffffff1681526020019081526020015f208054806020026020016040519081016040528092919081815260200182805480156103c057602002820191905f5260205f20905b8154815260200190600101908083116103ac575b505050505090508051915050919050565b6103da3361025b565b610419576040517f08c379a000000000000000000000000000000000000000000000000000000000815260040161041090611429565b60405180910390fd5b6104228561023c565b15610462576040517f08c379a0000000000000000000000000000000000000000000000000000000008152600401610459906114b7565b60405180910390fd5b5f33905060015f8273ffffffffffffffffffffffffffffffffffffffff1673ffffffffffffffffffffffffffffffffffffffff1681526020019081526020015f2086908060018154018082558091505060019003905f5260205f20015f90919091909150556040518060c001604052808781526020018681526020018273ffffffffffffffffffffffffffffffffffffffff16815260200185600281111561050d5761050c610f5e565b5b815260200184815260200183600381111561052b5761052a610f5e565b5b81525060025f8881526020019081526020015f205f820151815f0155602082015181600101556040820151816002015f6101000a81548173ffffffffffffffffffffffffffffffffffffffff021916908373ffffffffffffffffffffffffffffffffffffffff16021790555060608201518160020160146101000a81548160ff021916908360028111156105c2576105c1610f5e565b5b02179055506080820151816003015560a0820151816004015f6101000a81548160ff021916908360038111156105fb576105fa610f5e565b5b0217905550905050505050505050565b5f805f805f8061061a8761023c565b610659576040517f08c379a000000000000000000000000000000000000000000000000000000000815260040161065090611545565b60405180910390fd5b86955060025f8781526020019081526020015f2060010154945060025f8781526020019081526020015f206002015f9054906101000a900473ffffffffffffffffffffffffffffffffffffffff16935060025f8781526020019081526020015f2060020160149054906101000a900460ff16925060025f8781526020019081526020015f2060030154915060025f8781526020019081526020015f206004015f9054906101000a900460ff16905091939550919395565b606061071b8261025b565b61075a576040517f08c379a00000000000000000000000000000000000000000000000000000000081526004016107519061139b565b60405180910390fd5b60015f8373ffffffffffffffffffffffffffffffffffffffff1673ffffffffffffffffffffffffffffffffffffffff1681526020019081526020015f208054806020026020016040519081016040528092919081815260200182805480156107df57602002820191905f5260205f20905b8154815260200190600101908083116107cb575b50505050509050919050565b5f8054905090565b5f806060806108018561025b565b610840576040517f08c379a00000000000000000000000000000000000000000000000000000000081526004016108379061139b565b60405180910390fd5b84935060035f8673ffffffffffffffffffffffffffffffffffffffff1673ffffffffffffffffffffffffffffffffffffffff1681526020019081526020015f2060010154925060035f8673ffffffffffffffffffffffffffffffffffffffff1673ffffffffffffffffffffffffffffffffffffffff1681526020019081526020015f2060020180546108d190611590565b80601f01602080910402602001604051908101604052809291908181526020018280546108fd90611590565b80156109485780601f1061091f57610100808354040283529160200191610948565b820191905f5260205f20905b81548152906001019060200180831161092b57829003601f168201915b5050505050915060035f8673ffffffffffffffffffffffffffffffffffffffff1673ffffffffffffffffffffffffffffffffffffffff1681526020019081526020015f20600301805461099a90611590565b80601f01602080910402602001604051908101604052809291908181526020018280546109c690611590565b8015610a115780601f106109e857610100808354040283529160200191610a11565b820191905f5260205f20905b8154815290600101906020018083116109f457829003601f168201915b505050505090509193509193565b60045f9054906101000a900473ffffffffffffffffffffffffffffffffffffffff1673ffffffffffffffffffffffffffffffffffffffff163373ffffffffffffffffffffffffffffffffffffffff1614610aae576040517f08c379a0000000000000000000000000000000000000000000000000000000008152600401610aa590611630565b60405180910390fd5b610ab78661025b565b15610af7576040517f08c379a0000000000000000000000000000000000000000000000000000000008152600401610aee906116be565b60405180910390fd5b60405180608001604052808773ffffffffffffffffffffffffffffffffffffffff16815260200186815260200185858080601f0160208091040260200160405190810160405280939291908181526020018383808284375f81840152601f19601f82011690508083019250505050505050815260200183838080601f0160208091040260200160405190810160405280939291908181526020018383808284375f81840152601f19601f8201169050808301925050505050505081525060035f8873ffffffffffffffffffffffffffffffffffffffff1673ffffffffffffffffffffffffffffffffffffffff1681526020019081526020015f205f820151815f015f6101000a81548173ffffffffffffffffffffffffffffffffffffffff021916908373ffffffffffffffffffffffffffffffffffffffff160217905550602082015181600101556040820151816002019081610c5491906118a6565b506060820151816003019081610c6a91906118a6565b50905050610c76610ca3565b505050505050565b60045f9054906101000a900473ffffffffffffffffffffffffffffffffffffffff1681565b60045f9054906101000a900473ffffffffffffffffffffffffffffffffffffffff1673ffffffffffffffffffffffffffffffffffffffff163373ffffffffffffffffffffffffffffffffffffffff1614610d32576040517f08c379a0000000000000000000000000000000000000000000000000000000008152600401610d2990611630565b60405180910390fd5b60015f80828254610d4391906119a2565b92505081905550565b5f80fd5b5f80fd5b5f819050919050565b610d6681610d54565b8114610d70575f80fd5b50565b5f81359050610d8181610d5d565b92915050565b5f60208284031215610d9c57610d9b610d4c565b5b5f610da984828501610d73565b91505092915050565b5f8115159050919050565b610dc681610db2565b82525050565b5f602082019050610ddf5f830184610dbd565b92915050565b5f73ffffffffffffffffffffffffffffffffffffffff82169050919050565b5f610e0e82610de5565b9050919050565b610e1e81610e04565b8114610e28575f80fd5b50565b5f81359050610e3981610e15565b92915050565b5f60208284031215610e5457610e53610d4c565b5b5f610e6184828501610e2b565b91505092915050565b610e7381610d54565b82525050565b5f602082019050610e8c5f830184610e6a565b92915050565b60038110610e9e575f80fd5b50565b5f81359050610eaf81610e92565b92915050565b60048110610ec1575f80fd5b50565b5f81359050610ed281610eb5565b92915050565b5f805f805f60a08688031215610ef157610ef0610d4c565b5b5f610efe88828901610d73565b9550506020610f0f88828901610d73565b9450506040610f2088828901610ea1565b9350506060610f3188828901610d73565b9250506080610f4288828901610ec4565b9150509295509295909350565b610f5881610e04565b82525050565b7f4e487b71000000000000000000000000000000000000000000000000000000005f52602160045260245ffd5b60038110610f9c57610f9b610f5e565b5b50565b5f819050610fac82610f8b565b919050565b5f610fbb82610f9f565b9050919050565b610fcb81610fb1565b82525050565b60048110610fe257610fe1610f5e565b5b50565b5f819050610ff282610fd1565b919050565b5f61100182610fe5565b9050919050565b61101181610ff7565b82525050565b5f60c08201905061102a5f830189610e6a565b6110376020830188610e6a565b6110446040830187610f4f565b6110516060830186610fc2565b61105e6080830185610e6a565b61106b60a0830184611008565b979650505050505050565b5f81519050919050565b5f82825260208201905092915050565b5f819050602082019050919050565b6110a881610d54565b82525050565b5f6110b9838361109f565b60208301905092915050565b5f602082019050919050565b5f6110db82611076565b6110e58185611080565b93506110f083611090565b805f5b8381101561112057815161110788826110ae565b9750611112836110c5565b9250506001810190506110f3565b5085935050505092915050565b5f6020820190508181035f83015261114581846110d1565b905092915050565b5f81519050919050565b5f82825260208201905092915050565b8281835e5f83830152505050565b5f601f19601f8301169050919050565b5f61118f8261114d565b6111998185611157565b93506111a9818560208601611167565b6111b281611175565b840191505092915050565b5f6080820190506111d05f830187610f4f565b6111dd6020830186610e6a565b81810360408301526111ef8185611185565b905081810360608301526112038184611185565b905095945050505050565b5f80fd5b5f80fd5b5f80fd5b5f8083601f84011261122f5761122e61120e565b5b8235905067ffffffffffffffff81111561124c5761124b611212565b5b60208301915083600182028301111561126857611267611216565b5b9250929050565b5f805f805f806080878903121561128957611288610d4c565b5b5f61129689828a01610e2b565b96505060206112a789828a01610d73565b955050604087013567ffffffffffffffff8111156112c8576112c7610d50565b5b6112d489828a0161121a565b9450945050606087013567ffffffffffffffff8111156112f7576112f6610d50565b5b61130389828a0161121a565b92509250509295509295509295565b5f6020820190506113255f830184610f4f565b92915050565b7f4661726d6572206e6f7420726567697374657265642120526576657274696e675f8201527f2e2e2e0000000000000000000000000000000000000000000000000000000000602082015250565b5f611385602383611157565b91506113908261132b565b604082019050919050565b5f6020820190508181035f8301526113b281611379565b9050919050565b7f4f6e6c79207468652072656769737465726564206661726d65727320617265205f8201527f617574686f726973656420666f72207468697320616374696f6e000000000000602082015250565b5f611413603a83611157565b915061141e826113b9565b604082019050919050565b5f6020820190508181035f83015261144081611407565b9050919050565b7f50726f6475637420616c726561647920726567697374657265642120526576655f8201527f7274696e672e2e2e000000000000000000000000000000000000000000000000602082015250565b5f6114a1602883611157565b91506114ac82611447565b604082019050919050565b5f6020820190508181035f8301526114ce81611495565b9050919050565b7f50726f64756374206e6f7420726567697374657265642120526576657274696e5f8201527f672e2e2e00000000000000000000000000000000000000000000000000000000602082015250565b5f61152f602483611157565b915061153a826114d5565b604082019050919050565b5f6020820190508181035f83015261155c81611523565b9050919050565b7f4e487b71000000000000000000000000000000000000000000000000000000005f52602260045260245ffd5b5f60028204905060018216806115a757607f821691505b6020821081036115ba576115b9611563565b5b50919050565b7f4f6e6c79207468652053797374656d2041646d696e20697320617574686f72695f8201527f73656420666f72207468697320616374696f6e00000000000000000000000000602082015250565b5f61161a603383611157565b9150611625826115c0565b604082019050919050565b5f6020820190508181035f8301526116478161160e565b9050919050565b7f4661726d657220616c72656164792072656769737465726564212052657665725f8201527f74696e672e2e2e00000000000000000000000000000000000000000000000000602082015250565b5f6116a8602783611157565b91506116b38261164e565b604082019050919050565b5f6020820190508181035f8301526116d58161169c565b9050919050565b7f4e487b71000000000000000000000000000000000000000000000000000000005f52604160045260245ffd5b5f819050815f5260205f209050919050565b5f6020601f8301049050919050565b5f82821b905092915050565b5f600883026117657fffffffffffffffffffffffffffffffffffffffffffffffffffffffffffffffff8261172a565b61176f868361172a565b95508019841693508086168417925050509392505050565b5f819050919050565b5f6117aa6117a56117a084610d54565b611787565b610d54565b9050919050565b5f819050919050565b6117c383611790565b6117d76117cf826117b1565b848454611736565b825550505050565b5f90565b6117eb6117df565b6117f68184846117ba565b505050565b5b818110156118195761180e5f826117e3565b6001810190506117fc565b5050565b601f82111561185e5761182f81611709565b6118388461171b565b81016020851015611847578190505b61185b6118538561171b565b8301826117fb565b50505b505050565b5f82821c905092915050565b5f61187e5f1984600802611863565b1980831691505092915050565b5f611896838361186f565b9150826002028217905092915050565b6118af8261114d565b67ffffffffffffffff8111156118c8576118c76116dc565b5b6118d28254611590565b6118dd82828561181d565b5f60209050601f83116001811461190e575f84156118fc578287015190505b611906858261188b565b86555061196d565b601f19841661191c86611709565b5f5b828110156119435784890151825560018201915060208501945060208101905061191e565b86831015611960578489015161195c601f89168261186f565b8355505b6001600288020188555050505b505050505050565b7f4e487b71000000000000000000000000000000000000000000000000000000005f52601160045260245ffd5b5f6119ac82610d54565b91506119b783610d54565b92508282019050808211156119cf576119ce611975565b5b9291505056fea2646970667358221220f5f731f13f3fb660f6db4ba9c276bed53c008337c46393bce162198d98794d3864736f6c634300081a0033",
					"opcodes": "PUSH1 0x80 PUSH1 0x40 MSTORE PUSH0 DUP1 SSTORE CALLER PUSH1 0x4 PUSH0 PUSH2 0x100 EXP DUP2 SLOAD DUP2 PUSH20 0xFFFFFFFFFFFFFFFFFFFFFFFFFFFFFFFFFFFFFFFF MUL NOT AND SWAP1 DUP4 PUSH20 0xFFFFFFFFFFFFFFFFFFFFFFFFFFFFFFFFFFFFFFFF AND MUL OR SWAP1 SSTORE POP CALLVALUE DUP1 ISZERO PUSH1 0x51 JUMPI PUSH0 DUP1 REVERT JUMPDEST POP PUSH2 0x1A0B DUP1 PUSH2 0x5F PUSH0 CODECOPY PUSH0 RETURN INVALID PUSH1 0x80 PUSH1 0x40 MSTORE CALLVALUE DUP1 ISZERO PUSH2 0xF JUMPI PUSH0 DUP1 REVERT JUMPDEST POP PUSH1 0x4 CALLDATASIZE LT PUSH2 0x9C JUMPI PUSH0 CALLDATALOAD PUSH1 0xE0 SHR DUP1 PUSH4 0xBC125012 GT PUSH2 0x64 JUMPI DUP1 PUSH4 0xBC125012 EQ PUSH2 0x181 JUMPI DUP1 PUSH4 0xC4A8B5D5 EQ PUSH2 0x1B1 JUMPI DUP1 PUSH4 0xD335CCFA EQ PUSH2 0x1CF JUMPI DUP1 PUSH4 0xE86CE709 EQ PUSH2 0x202 JUMPI DUP1 PUSH4 0xF851A440 EQ PUSH2 0x21E JUMPI PUSH2 0x9C JUMP JUMPDEST DUP1 PUSH4 0x1584FD05 EQ PUSH2 0xA0 JUMPI DUP1 PUSH4 0x4E5D37A9 EQ PUSH2 0xD0 JUMPI DUP1 PUSH4 0x50208EEE EQ PUSH2 0x100 JUMPI DUP1 PUSH4 0x5524A0B7 EQ PUSH2 0x130 JUMPI DUP1 PUSH4 0x6813B53B EQ PUSH2 0x14C JUMPI JUMPDEST PUSH0 DUP1 REVERT JUMPDEST PUSH2 0xBA PUSH1 0x4 DUP1 CALLDATASIZE SUB DUP2 ADD SWAP1 PUSH2 0xB5 SWAP2 SWAP1 PUSH2 0xD87 JUMP JUMPDEST PUSH2 0x23C JUMP JUMPDEST PUSH1 0x40 MLOAD PUSH2 0xC7 SWAP2 SWAP1 PUSH2 0xDCC JUMP JUMPDEST PUSH1 0x40 MLOAD DUP1 SWAP2 SUB SWAP1 RETURN JUMPDEST PUSH2 0xEA PUSH1 0x4 DUP1 CALLDATASIZE SUB DUP2 ADD SWAP1 PUSH2 0xE5 SWAP2 SWAP1 PUSH2 0xE3F JUMP JUMPDEST PUSH2 0x25B JUMP JUMPDEST PUSH1 0x40 MLOAD PUSH2 0xF7 SWAP2 SWAP1 PUSH2 0xDCC JUMP JUMPDEST PUSH1 0x40 MLOAD DUP1 SWAP2 SUB SWAP1 RETURN JUMPDEST PUSH2 0x11A PUSH1 0x4 DUP1 CALLDATASIZE SUB DUP2 ADD SWAP1 PUSH2 0x115 SWAP2 SWAP1 PUSH2 0xE3F JUMP JUMPDEST PUSH2 0x2F1 JUMP JUMPDEST PUSH1 0x40 MLOAD PUSH2 0x127 SWAP2 SWAP1 PUSH2 0xE79 JUMP JUMPDEST PUSH1 0x40 MLOAD DUP1 SWAP2 SUB SWAP1 RETURN JUMPDEST PUSH2 0x14A PUSH1 0x4 DUP1 CALLDATASIZE SUB DUP2 ADD SWAP1 PUSH2 0x145 SWAP2 SWAP1 PUSH2 0xED8 JUMP JUMPDEST PUSH2 0x3D1 JUMP JUMPDEST STOP JUMPDEST PUSH2 0x166 PUSH1 0x4 DUP1 CALLDATASIZE SUB DUP2 ADD SWAP1 PUSH2 0x161 SWAP2 SWAP1 PUSH2 0xD87 JUMP JUMPDEST PUSH2 0x60B JUMP JUMPDEST PUSH1 0x40 MLOAD PUSH2 0x178 SWAP7 SWAP6 SWAP5 SWAP4 SWAP3 SWAP2 SWAP1 PUSH2 0x1017 JUMP JUMPDEST PUSH1 0x40 MLOAD DUP1 SWAP2 SUB SWAP1 RETURN JUMPDEST PUSH2 0x19B PUSH1 0x4 DUP1 CALLDATASIZE SUB DUP2 ADD SWAP1 PUSH2 0x196 SWAP2 SWAP1 PUSH2 0xE3F JUMP JUMPDEST PUSH2 0x710 JUMP JUMPDEST PUSH1 0x40 MLOAD PUSH2 0x1A8 SWAP2 SWAP1 PUSH2 0x112D JUMP JUMPDEST PUSH1 0x40 MLOAD DUP1 SWAP2 SUB SWAP1 RETURN JUMPDEST PUSH2 0x1B9 PUSH2 0x7EB JUMP JUMPDEST PUSH1 0x40 MLOAD PUSH2 0x1C6 SWAP2 SWAP1 PUSH2 0xE79 JUMP JUMPDEST PUSH1 0x40 MLOAD DUP1 SWAP2 SUB SWAP1 RETURN JUMPDEST PUSH2 0x1E9 PUSH1 0x4 DUP1 CALLDATASIZE SUB DUP2 ADD SWAP1 PUSH2 0x1E4 SWAP2 SWAP1 PUSH2 0xE3F JUMP JUMPDEST PUSH2 0x7F3 JUMP JUMPDEST PUSH1 0x40 MLOAD PUSH2 0x1F9 SWAP5 SWAP4 SWAP3 SWAP2 SWAP1 PUSH2 0x11BD JUMP JUMPDEST PUSH1 0x40 MLOAD DUP1 SWAP2 SUB SWAP1 RETURN JUMPDEST PUSH2 0x21C PUSH1 0x4 DUP1 CALLDATASIZE SUB DUP2 ADD SWAP1 PUSH2 0x217 SWAP2 SWAP1 PUSH2 0x126F JUMP JUMPDEST PUSH2 0xA1F JUMP JUMPDEST STOP JUMPDEST PUSH2 0x226 PUSH2 0xC7E JUMP JUMPDEST PUSH1 0x40 MLOAD PUSH2 0x233 SWAP2 SWAP1 PUSH2 0x1312 JUMP JUMPDEST PUSH1 0x40 MLOAD DUP1 SWAP2 SUB SWAP1 RETURN JUMPDEST PUSH0 DUP1 PUSH1 0x2 PUSH0 DUP5 DUP2 MSTORE PUSH1 0x20 ADD SWAP1 DUP2 MSTORE PUSH1 0x20 ADD PUSH0 KECCAK256 PUSH0 ADD SLOAD EQ ISZERO SWAP1 POP SWAP2 SWAP1 POP JUMP JUMPDEST PUSH0 DUP1 PUSH20 0xFFFFFFFFFFFFFFFFFFFFFFFFFFFFFFFFFFFFFFFF AND PUSH1 0x3 PUSH0 DUP5 PUSH20 0xFFFFFFFFFFFFFFFFFFFFFFFFFFFFFFFFFFFFFFFF AND PUSH20 0xFFFFFFFFFFFFFFFFFFFFFFFFFFFFFFFFFFFFFFFF AND DUP2 MSTORE PUSH1 0x20 ADD SWAP1 DUP2 MSTORE PUSH1 0x20 ADD PUSH0 KECCAK256 PUSH0 ADD PUSH0 SWAP1 SLOAD SWAP1 PUSH2 0x100 EXP SWAP1 DIV PUSH20 0xFFFFFFFFFFFFFFFFFFFFFFFFFFFFFFFFFFFFFFFF AND PUSH20 0xFFFFFFFFFFFFFFFFFFFFFFFFFFFFFFFFFFFFFFFF AND EQ ISZERO SWAP1 POP SWAP2 SWAP1 POP JUMP JUMPDEST PUSH0 PUSH2 0x2FB DUP3 PUSH2 0x25B JUMP JUMPDEST PUSH2 0x33A JUMPI PUSH1 0x40 MLOAD PUSH32 0x8C379A000000000000000000000000000000000000000000000000000000000 DUP2 MSTORE PUSH1 0x4 ADD PUSH2 0x331 SWAP1 PUSH2 0x139B JUMP JUMPDEST PUSH1 0x40 MLOAD DUP1 SWAP2 SUB SWAP1 REVERT JUMPDEST PUSH0 PUSH1 0x1 PUSH0 DUP5 PUSH20 0xFFFFFFFFFFFFFFFFFFFFFFFFFFFFFFFFFFFFFFFF AND PUSH20 0xFFFFFFFFFFFFFFFFFFFFFFFFFFFFFFFFFFFFFFFF AND DUP2 MSTORE PUSH1 0x20 ADD SWAP1 DUP2 MSTORE PUSH1 0x20 ADD PUSH0 KECCAK256 DUP1 SLOAD DUP1 PUSH1 0x20 MUL PUSH1 0x20 ADD PUSH1 0x40 MLOAD SWAP1 DUP2 ADD PUSH1 0x40 MSTORE DUP1 SWAP3 SWAP2 SWAP1 DUP2 DUP2 MSTORE PUSH1 0x20 ADD DUP3 DUP1 SLOAD DUP1 ISZERO PUSH2 0x3C0 JUMPI PUSH1 0x20 MUL DUP3 ADD SWAP2 SWAP1 PUSH0 MSTORE PUSH1 0x20 PUSH0 KECCAK256 SWAP1 JUMPDEST DUP2 SLOAD DUP2 MSTORE PUSH1 0x20 ADD SWAP1 PUSH1 0x1 ADD SWAP1 DUP1 DUP4 GT PUSH2 0x3AC JUMPI JUMPDEST POP POP POP POP POP SWAP1 POP DUP1 MLOAD SWAP2 POP POP SWAP2 SWAP1 POP JUMP JUMPDEST PUSH2 0x3DA CALLER PUSH2 0x25B JUMP JUMPDEST PUSH2 0x419 JUMPI PUSH1 0x40 MLOAD PUSH32 0x8C379A000000000000000000000000000000000000000000000000000000000 DUP2 MSTORE PUSH1 0x4 ADD PUSH2 0x410 SWAP1 PUSH2 0x1429 JUMP JUMPDEST PUSH1 0x40 MLOAD DUP1 SWAP2 SUB SWAP1 REVERT JUMPDEST PUSH2 0x422 DUP6 PUSH2 0x23C JUMP JUMPDEST ISZERO PUSH2 0x462 JUMPI PUSH1 0x40 MLOAD PUSH32 0x8C379A000000000000000000000000000000000000000000000000000000000 DUP2 MSTORE PUSH1 0x4 ADD PUSH2 0x459 SWAP1 PUSH2 0x14B7 JUMP JUMPDEST PUSH1 0x40 MLOAD DUP1 SWAP2 SUB SWAP1 REVERT JUMPDEST PUSH0 CALLER SWAP1 POP PUSH1 0x1 PUSH0 DUP3 PUSH20 0xFFFFFFFFFFFFFFFFFFFFFFFFFFFFFFFFFFFFFFFF AND PUSH20 0xFFFFFFFFFFFFFFFFFFFFFFFFFFFFFFFFFFFFFFFF AND DUP2 MSTORE PUSH1 0x20 ADD SWAP1 DUP2 MSTORE PUSH1 0x20 ADD PUSH0 KECCAK256 DUP7 SWAP1 DUP1 PUSH1 0x1 DUP2 SLOAD ADD DUP1 DUP3 SSTORE DUP1 SWAP2 POP POP PUSH1 0x1 SWAP1 SUB SWAP1 PUSH0 MSTORE PUSH1 0x20 PUSH0 KECCAK256 ADD PUSH0 SWAP1 SWAP2 SWAP1 SWAP2 SWAP1 SWAP2 POP SSTORE PUSH1 0x40 MLOAD DUP1 PUSH1 0xC0 ADD PUSH1 0x40 MSTORE DUP1 DUP8 DUP2 MSTORE PUSH1 0x20 ADD DUP7 DUP2 MSTORE PUSH1 0x20 ADD DUP3 PUSH20 0xFFFFFFFFFFFFFFFFFFFFFFFFFFFFFFFFFFFFFFFF AND DUP2 MSTORE PUSH1 0x20 ADD DUP6 PUSH1 0x2 DUP2 GT ISZERO PUSH2 0x50D JUMPI PUSH2 0x50C PUSH2 0xF5E JUMP JUMPDEST JUMPDEST DUP2 MSTORE PUSH1 0x20 ADD DUP5 DUP2 MSTORE PUSH1 0x20 ADD DUP4 PUSH1 0x3 DUP2 GT ISZERO PUSH2 0x52B JUMPI PUSH2 0x52A PUSH2 0xF5E JUMP JUMPDEST JUMPDEST DUP2 MSTORE POP PUSH1 0x2 PUSH0 DUP9 DUP2 MSTORE PUSH1 0x20 ADD SWAP1 DUP2 MSTORE PUSH1 0x20 ADD PUSH0 KECCAK256 PUSH0 DUP3 ADD MLOAD DUP2 PUSH0 ADD SSTORE PUSH1 0x20 DUP3 ADD MLOAD DUP2 PUSH1 0x1 ADD SSTORE PUSH1 0x40 DUP3 ADD MLOAD DUP2 PUSH1 0x2 ADD PUSH0 PUSH2 0x100 EXP DUP2 SLOAD DUP2 PUSH20 0xFFFFFFFFFFFFFFFFFFFFFFFFFFFFFFFFFFFFFFFF MUL NOT AND SWAP1 DUP4 PUSH20 0xFFFFFFFFFFFFFFFFFFFFFFFFFFFFFFFFFFFFFFFF AND MUL OR SWAP1 SSTORE POP PUSH1 0x60 DUP3 ADD MLOAD DUP2 PUSH1 0x2 ADD PUSH1 0x14 PUSH2 0x100 EXP DUP2 SLOAD DUP2 PUSH1 0xFF MUL NOT AND SWAP1 DUP4 PUSH1 0x2 DUP2 GT ISZERO PUSH2 0x5C2 JUMPI PUSH2 0x5C1 PUSH2 0xF5E JUMP JUMPDEST JUMPDEST MUL OR SWAP1 SSTORE POP PUSH1 0x80 DUP3 ADD MLOAD DUP2 PUSH1 0x3 ADD SSTORE PUSH1 0xA0 DUP3 ADD MLOAD DUP2 PUSH1 0x4 ADD PUSH0 PUSH2 0x100 EXP DUP2 SLOAD DUP2 PUSH1 0xFF MUL NOT AND SWAP1 DUP4 PUSH1 0x3 DUP2 GT ISZERO PUSH2 0x5FB JUMPI PUSH2 0x5FA PUSH2 0xF5E JUMP JUMPDEST JUMPDEST MUL OR SWAP1 SSTORE POP SWAP1 POP POP POP POP POP POP POP POP JUMP JUMPDEST PUSH0 DUP1 PUSH0 DUP1 PUSH0 DUP1 PUSH2 0x61A DUP8 PUSH2 0x23C JUMP JUMPDEST PUSH2 0x659 JUMPI PUSH1 0x40 MLOAD PUSH32 0x8C379A000000000000000000000000000000000000000000000000000000000 DUP2 MSTORE PUSH1 0x4 ADD PUSH2 0x650 SWAP1 PUSH2 0x1545 JUMP JUMPDEST PUSH1 0x40 MLOAD DUP1 SWAP2 SUB SWAP1 REVERT JUMPDEST DUP7 SWAP6 POP PUSH1 0x2 PUSH0 DUP8 DUP2 MSTORE PUSH1 0x20 ADD SWAP1 DUP2 MSTORE PUSH1 0x20 ADD PUSH0 KECCAK256 PUSH1 0x1 ADD SLOAD SWAP5 POP PUSH1 0x2 PUSH0 DUP8 DUP2 MSTORE PUSH1 0x20 ADD SWAP1 DUP2 MSTORE PUSH1 0x20 ADD PUSH0 KECCAK256 PUSH1 0x2 ADD PUSH0 SWAP1 SLOAD SWAP1 PUSH2 0x100 EXP SWAP1 DIV PUSH20 0xFFFFFFFFFFFFFFFFFFFFFFFFFFFFFFFFFFFFFFFF AND SWAP4 POP PUSH1 0x2 PUSH0 DUP8 DUP2 MSTORE PUSH1 0x20 ADD SWAP1 DUP2 MSTORE PUSH1 0x20 ADD PUSH0 KECCAK256 PUSH1 0x2 ADD PUSH1 0x14 SWAP1 SLOAD SWAP1 PUSH2 0x100 EXP SWAP1 DIV PUSH1 0xFF AND SWAP3 POP PUSH1 0x2 PUSH0 DUP8 DUP2 MSTORE PUSH1 0x20 ADD SWAP1 DUP2 MSTORE PUSH1 0x20 ADD PUSH0 KECCAK256 PUSH1 0x3 ADD SLOAD SWAP2 POP PUSH1 0x2 PUSH0 DUP8 DUP2 MSTORE PUSH1 0x20 ADD SWAP1 DUP2 MSTORE PUSH1 0x20 ADD PUSH0 KECCAK256 PUSH1 0x4 ADD PUSH0 SWAP1 SLOAD SWAP1 PUSH2 0x100 EXP SWAP1 DIV PUSH1 0xFF AND SWAP1 POP SWAP2 SWAP4 SWAP6 POP SWAP2 SWAP4 SWAP6 JUMP JUMPDEST PUSH1 0x60 PUSH2 0x71B DUP3 PUSH2 0x25B JUMP JUMPDEST PUSH2 0x75A JUMPI PUSH1 0x40 MLOAD PUSH32 0x8C379A000000000000000000000000000000000000000000000000000000000 DUP2 MSTORE PUSH1 0x4 ADD PUSH2 0x751 SWAP1 PUSH2 0x139B JUMP JUMPDEST PUSH1 0x40 MLOAD DUP1 SWAP2 SUB SWAP1 REVERT JUMPDEST PUSH1 0x1 PUSH0 DUP4 PUSH20 0xFFFFFFFFFFFFFFFFFFFFFFFFFFFFFFFFFFFFFFFF AND PUSH20 0xFFFFFFFFFFFFFFFFFFFFFFFFFFFFFFFFFFFFFFFF AND DUP2 MSTORE PUSH1 0x20 ADD SWAP1 DUP2 MSTORE PUSH1 0x20 ADD PUSH0 KECCAK256 DUP1 SLOAD DUP1 PUSH1 0x20 MUL PUSH1 0x20 ADD PUSH1 0x40 MLOAD SWAP1 DUP2 ADD PUSH1 0x40 MSTORE DUP1 SWAP3 SWAP2 SWAP1 DUP2 DUP2 MSTORE PUSH1 0x20 ADD DUP3 DUP1 SLOAD DUP1 ISZERO PUSH2 0x7DF JUMPI PUSH1 0x20 MUL DUP3 ADD SWAP2 SWAP1 PUSH0 MSTORE PUSH1 0x20 PUSH0 KECCAK256 SWAP1 JUMPDEST DUP2 SLOAD DUP2 MSTORE PUSH1 0x20 ADD SWAP1 PUSH1 0x1 ADD SWAP1 DUP1 DUP4 GT PUSH2 0x7CB JUMPI JUMPDEST POP POP POP POP POP SWAP1 POP SWAP2 SWAP1 POP JUMP JUMPDEST PUSH0 DUP1 SLOAD SWAP1 POP SWAP1 JUMP JUMPDEST PUSH0 DUP1 PUSH1 0x60 DUP1 PUSH2 0x801 DUP6 PUSH2 0x25B JUMP JUMPDEST PUSH2 0x840 JUMPI PUSH1 0x40 MLOAD PUSH32 0x8C379A000000000000000000000000000000000000000000000000000000000 DUP2 MSTORE PUSH1 0x4 ADD PUSH2 0x837 SWAP1 PUSH2 0x139B JUMP JUMPDEST PUSH1 0x40 MLOAD DUP1 SWAP2 SUB SWAP1 REVERT JUMPDEST DUP5 SWAP4 POP PUSH1 0x3 PUSH0 DUP7 PUSH20 0xFFFFFFFFFFFFFFFFFFFFFFFFFFFFFFFFFFFFFFFF AND PUSH20 0xFFFFFFFFFFFFFFFFFFFFFFFFFFFFFFFFFFFFFFFF AND DUP2 MSTORE PUSH1 0x20 ADD SWAP1 DUP2 MSTORE PUSH1 0x20 ADD PUSH0 KECCAK256 PUSH1 0x1 ADD SLOAD SWAP3 POP PUSH1 0x3 PUSH0 DUP7 PUSH20 0xFFFFFFFFFFFFFFFFFFFFFFFFFFFFFFFFFFFFFFFF AND PUSH20 0xFFFFFFFFFFFFFFFFFFFFFFFFFFFFFFFFFFFFFFFF AND DUP2 MSTORE PUSH1 0x20 ADD SWAP1 DUP2 MSTORE PUSH1 0x20 ADD PUSH0 KECCAK256 PUSH1 0x2 ADD DUP1 SLOAD PUSH2 0x8D1 SWAP1 PUSH2 0x1590 JUMP JUMPDEST DUP1 PUSH1 0x1F ADD PUSH1 0x20 DUP1 SWAP2 DIV MUL PUSH1 0x20 ADD PUSH1 0x40 MLOAD SWAP1 DUP2 ADD PUSH1 0x40 MSTORE DUP1 SWAP3 SWAP2 SWAP1 DUP2 DUP2 MSTORE PUSH1 0x20 ADD DUP3 DUP1 SLOAD PUSH2 0x8FD SWAP1 PUSH2 0x1590 JUMP JUMPDEST DUP1 ISZERO PUSH2 0x948 JUMPI DUP1 PUSH1 0x1F LT PUSH2 0x91F JUMPI PUSH2 0x100 DUP1 DUP4 SLOAD DIV MUL DUP4 MSTORE SWAP2 PUSH1 0x20 ADD SWAP2 PUSH2 0x948 JUMP JUMPDEST DUP3 ADD SWAP2 SWAP1 PUSH0 MSTORE PUSH1 0x20 PUSH0 KECCAK256 SWAP1 JUMPDEST DUP2 SLOAD DUP2 MSTORE SWAP1 PUSH1 0x1 ADD SWAP1 PUSH1 0x20 ADD DUP1 DUP4 GT PUSH2 0x92B JUMPI DUP3 SWAP1 SUB PUSH1 0x1F AND DUP3 ADD SWAP2 JUMPDEST POP POP POP POP POP SWAP2 POP PUSH1 0x3 PUSH0 DUP7 PUSH20 0xFFFFFFFFFFFFFFFFFFFFFFFFFFFFFFFFFFFFFFFF AND PUSH20 0xFFFFFFFFFFFFFFFFFFFFFFFFFFFFFFFFFFFFFFFF AND DUP2 MSTORE PUSH1 0x20 ADD SWAP1 DUP2 MSTORE PUSH1 0x20 ADD PUSH0 KECCAK256 PUSH1 0x3 ADD DUP1 SLOAD PUSH2 0x99A SWAP1 PUSH2 0x1590 JUMP JUMPDEST DUP1 PUSH1 0x1F ADD PUSH1 0x20 DUP1 SWAP2 DIV MUL PUSH1 0x20 ADD PUSH1 0x40 MLOAD SWAP1 DUP2 ADD PUSH1 0x40 MSTORE DUP1 SWAP3 SWAP2 SWAP1 DUP2 DUP2 MSTORE PUSH1 0x20 ADD DUP3 DUP1 SLOAD PUSH2 0x9C6 SWAP1 PUSH2 0x1590 JUMP JUMPDEST DUP1 ISZERO PUSH2 0xA11 JUMPI DUP1 PUSH1 0x1F LT PUSH2 0x9E8 JUMPI PUSH2 0x100 DUP1 DUP4 SLOAD DIV MUL DUP4 MSTORE SWAP2 PUSH1 0x20 ADD SWAP2 PUSH2 0xA11 JUMP JUMPDEST DUP3 ADD SWAP2 SWAP1 PUSH0 MSTORE PUSH1 0x20 PUSH0 KECCAK256 SWAP1 JUMPDEST DUP2 SLOAD DUP2 MSTORE SWAP1 PUSH1 0x1 ADD SWAP1 PUSH1 0x20 ADD DUP1 DUP4 GT PUSH2 0x9F4 JUMPI DUP3 SWAP1 SUB PUSH1 0x1F AND DUP3 ADD SWAP2 JUMPDEST POP POP POP POP POP SWAP1 POP SWAP2 SWAP4 POP SWAP2 SWAP4 JUMP JUMPDEST PUSH1 0x4 PUSH0 SWAP1 SLOAD SWAP1 PUSH2 0x100 EXP SWAP1 DIV PUSH20 0xFFFFFFFFFFFFFFFFFFFFFFFFFFFFFFFFFFFFFFFF AND PUSH20 0xFFFFFFFFFFFFFFFFFFFFFFFFFFFFFFFFFFFFFFFF AND CALLER PUSH20 0xFFFFFFFFFFFFFFFFFFFFFFFFFFFFFFFFFFFFFFFF AND EQ PUSH2 0xAAE JUMPI PUSH1 0x40 MLOAD PUSH32 0x8C379A000000000000000000000000000000000000000000000000000000000 DUP2 MSTORE PUSH1 0x4 ADD PUSH2 0xAA5 SWAP1 PUSH2 0x1630 JUMP JUMPDEST PUSH1 0x40 MLOAD DUP1 SWAP2 SUB SWAP1 REVERT JUMPDEST PUSH2 0xAB7 DUP7 PUSH2 0x25B JUMP JUMPDEST ISZERO PUSH2 0xAF7 JUMPI PUSH1 0x40 MLOAD PUSH32 0x8C379A000000000000000000000000000000000000000000000000000000000 DUP2 MSTORE PUSH1 0x4 ADD PUSH2 0xAEE SWAP1 PUSH2 0x16BE JUMP JUMPDEST PUSH1 0x40 MLOAD DUP1 SWAP2 SUB SWAP1 REVERT JUMPDEST PUSH1 0x40 MLOAD DUP1 PUSH1 0x80 ADD PUSH1 0x40 MSTORE DUP1 DUP8 PUSH20 0xFFFFFFFFFFFFFFFFFFFFFFFFFFFFFFFFFFFFFFFF AND DUP2 MSTORE PUSH1 0x20 ADD DUP7 DUP2 MSTORE PUSH1 0x20 ADD DUP6 DUP6 DUP1 DUP1 PUSH1 0x1F ADD PUSH1 0x20 DUP1 SWAP2 DIV MUL PUSH1 0x20 ADD PUSH1 0x40 MLOAD SWAP1 DUP2 ADD PUSH1 0x40 MSTORE DUP1 SWAP4 SWAP3 SWAP2 SWAP1 DUP2 DUP2 MSTORE PUSH1 0x20 ADD DUP4 DUP4 DUP1 DUP3 DUP5 CALLDATACOPY PUSH0 DUP2 DUP5 ADD MSTORE PUSH1 0x1F NOT PUSH1 0x1F DUP3 ADD AND SWAP1 POP DUP1 DUP4 ADD SWAP3 POP POP POP POP POP POP POP DUP2 MSTORE PUSH1 0x20 ADD DUP4 DUP4 DUP1 DUP1 PUSH1 0x1F ADD PUSH1 0x20 DUP1 SWAP2 DIV MUL PUSH1 0x20 ADD PUSH1 0x40 MLOAD SWAP1 DUP2 ADD PUSH1 0x40 MSTORE DUP1 SWAP4 SWAP3 SWAP2 SWAP1 DUP2 DUP2 MSTORE PUSH1 0x20 ADD DUP4 DUP4 DUP1 DUP3 DUP5 CALLDATACOPY PUSH0 DUP2 DUP5 ADD MSTORE PUSH1 0x1F NOT PUSH1 0x1F DUP3 ADD AND SWAP1 POP DUP1 DUP4 ADD SWAP3 POP POP POP POP POP POP POP DUP2 MSTORE POP PUSH1 0x3 PUSH0 DUP9 PUSH20 0xFFFFFFFFFFFFFFFFFFFFFFFFFFFFFFFFFFFFFFFF AND PUSH20 0xFFFFFFFFFFFFFFFFFFFFFFFFFFFFFFFFFFFFFFFF AND DUP2 MSTORE PUSH1 0x20 ADD SWAP1 DUP2 MSTORE PUSH1 0x20 ADD PUSH0 KECCAK256 PUSH0 DUP3 ADD MLOAD DUP2 PUSH0 ADD PUSH0 PUSH2 0x100 EXP DUP2 SLOAD DUP2 PUSH20 0xFFFFFFFFFFFFFFFFFFFFFFFFFFFFFFFFFFFFFFFF MUL NOT AND SWAP1 DUP4 PUSH20 0xFFFFFFFFFFFFFFFFFFFFFFFFFFFFFFFFFFFFFFFF AND MUL OR SWAP1 SSTORE POP PUSH1 0x20 DUP3 ADD MLOAD DUP2 PUSH1 0x1 ADD SSTORE PUSH1 0x40 DUP3 ADD MLOAD DUP2 PUSH1 0x2 ADD SWAP1 DUP2 PUSH2 0xC54 SWAP2 SWAP1 PUSH2 0x18A6 JUMP JUMPDEST POP PUSH1 0x60 DUP3 ADD MLOAD DUP2 PUSH1 0x3 ADD SWAP1 DUP2 PUSH2 0xC6A SWAP2 SWAP1 PUSH2 0x18A6 JUMP JUMPDEST POP SWAP1 POP POP PUSH2 0xC76 PUSH2 0xCA3 JUMP JUMPDEST POP POP POP POP POP POP JUMP JUMPDEST PUSH1 0x4 PUSH0 SWAP1 SLOAD SWAP1 PUSH2 0x100 EXP SWAP1 DIV PUSH20 0xFFFFFFFFFFFFFFFFFFFFFFFFFFFFFFFFFFFFFFFF AND DUP2 JUMP JUMPDEST PUSH1 0x4 PUSH0 SWAP1 SLOAD SWAP1 PUSH2 0x100 EXP SWAP1 DIV PUSH20 0xFFFFFFFFFFFFFFFFFFFFFFFFFFFFFFFFFFFFFFFF AND PUSH20 0xFFFFFFFFFFFFFFFFFFFFFFFFFFFFFFFFFFFFFFFF AND CALLER PUSH20 0xFFFFFFFFFFFFFFFFFFFFFFFFFFFFFFFFFFFFFFFF AND EQ PUSH2 0xD32 JUMPI PUSH1 0x40 MLOAD PUSH32 0x8C379A000000000000000000000000000000000000000000000000000000000 DUP2 MSTORE PUSH1 0x4 ADD PUSH2 0xD29 SWAP1 PUSH2 0x1630 JUMP JUMPDEST PUSH1 0x40 MLOAD DUP1 SWAP2 SUB SWAP1 REVERT JUMPDEST PUSH1 0x1 PUSH0 DUP1 DUP3 DUP3 SLOAD PUSH2 0xD43 SWAP2 SWAP1 PUSH2 0x19A2 JUMP JUMPDEST SWAP3 POP POP DUP2 SWAP1 SSTORE POP JUMP JUMPDEST PUSH0 DUP1 REVERT JUMPDEST PUSH0 DUP1 REVERT JUMPDEST PUSH0 DUP2 SWAP1 POP SWAP2 SWAP1 POP JUMP JUMPDEST PUSH2 0xD66 DUP2 PUSH2 0xD54 JUMP JUMPDEST DUP2 EQ PUSH2 0xD70 JUMPI PUSH0 DUP1 REVERT JUMPDEST POP JUMP JUMPDEST PUSH0 DUP2 CALLDATALOAD SWAP1 POP PUSH2 0xD81 DUP2 PUSH2 0xD5D JUMP JUMPDEST SWAP3 SWAP2 POP POP JUMP JUMPDEST PUSH0 PUSH1 0x20 DUP3 DUP5 SUB SLT ISZERO PUSH2 0xD9C JUMPI PUSH2 0xD9B PUSH2 0xD4C JUMP JUMPDEST JUMPDEST PUSH0 PUSH2 0xDA9 DUP5 DUP3 DUP6 ADD PUSH2 0xD73 JUMP JUMPDEST SWAP2 POP POP SWAP3 SWAP2 POP POP JUMP JUMPDEST PUSH0 DUP2 ISZERO ISZERO SWAP1 POP SWAP2 SWAP1 POP JUMP JUMPDEST PUSH2 0xDC6 DUP2 PUSH2 0xDB2 JUMP JUMPDEST DUP3 MSTORE POP POP JUMP JUMPDEST PUSH0 PUSH1 0x20 DUP3 ADD SWAP1 POP PUSH2 0xDDF PUSH0 DUP4 ADD DUP5 PUSH2 0xDBD JUMP JUMPDEST SWAP3 SWAP2 POP POP JUMP JUMPDEST PUSH0 PUSH20 0xFFFFFFFFFFFFFFFFFFFFFFFFFFFFFFFFFFFFFFFF DUP3 AND SWAP1 POP SWAP2 SWAP1 POP JUMP JUMPDEST PUSH0 PUSH2 0xE0E DUP3 PUSH2 0xDE5 JUMP JUMPDEST SWAP1 POP SWAP2 SWAP1 POP JUMP JUMPDEST PUSH2 0xE1E DUP2 PUSH2 0xE04 JUMP JUMPDEST DUP2 EQ PUSH2 0xE28 JUMPI PUSH0 DUP1 REVERT JUMPDEST POP JUMP JUMPDEST PUSH0 DUP2 CALLDATALOAD SWAP1 POP PUSH2 0xE39 DUP2 PUSH2 0xE15 JUMP JUMPDEST SWAP3 SWAP2 POP POP JUMP JUMPDEST PUSH0 PUSH1 0x20 DUP3 DUP5 SUB SLT ISZERO PUSH2 0xE54 JUMPI PUSH2 0xE53 PUSH2 0xD4C JUMP JUMPDEST JUMPDEST PUSH0 PUSH2 0xE61 DUP5 DUP3 DUP6 ADD PUSH2 0xE2B JUMP JUMPDEST SWAP2 POP POP SWAP3 SWAP2 POP POP JUMP JUMPDEST PUSH2 0xE73 DUP2 PUSH2 0xD54 JUMP JUMPDEST DUP3 MSTORE POP POP JUMP JUMPDEST PUSH0 PUSH1 0x20 DUP3 ADD SWAP1 POP PUSH2 0xE8C PUSH0 DUP4 ADD DUP5 PUSH2 0xE6A JUMP JUMPDEST SWAP3 SWAP2 POP POP JUMP JUMPDEST PUSH1 0x3 DUP2 LT PUSH2 0xE9E JUMPI PUSH0 DUP1 REVERT JUMPDEST POP JUMP JUMPDEST PUSH0 DUP2 CALLDATALOAD SWAP1 POP PUSH2 0xEAF DUP2 PUSH2 0xE92 JUMP JUMPDEST SWAP3 SWAP2 POP POP JUMP JUMPDEST PUSH1 0x4 DUP2 LT PUSH2 0xEC1 JUMPI PUSH0 DUP1 REVERT JUMPDEST POP JUMP JUMPDEST PUSH0 DUP2 CALLDATALOAD SWAP1 POP PUSH2 0xED2 DUP2 PUSH2 0xEB5 JUMP JUMPDEST SWAP3 SWAP2 POP POP JUMP JUMPDEST PUSH0 DUP1 PUSH0 DUP1 PUSH0 PUSH1 0xA0 DUP7 DUP9 SUB SLT ISZERO PUSH2 0xEF1 JUMPI PUSH2 0xEF0 PUSH2 0xD4C JUMP JUMPDEST JUMPDEST PUSH0 PUSH2 0xEFE DUP9 DUP3 DUP10 ADD PUSH2 0xD73 JUMP JUMPDEST SWAP6 POP POP PUSH1 0x20 PUSH2 0xF0F DUP9 DUP3 DUP10 ADD PUSH2 0xD73 JUMP JUMPDEST SWAP5 POP POP PUSH1 0x40 PUSH2 0xF20 DUP9 DUP3 DUP10 ADD PUSH2 0xEA1 JUMP JUMPDEST SWAP4 POP POP PUSH1 0x60 PUSH2 0xF31 DUP9 DUP3 DUP10 ADD PUSH2 0xD73 JUMP JUMPDEST SWAP3 POP POP PUSH1 0x80 PUSH2 0xF42 DUP9 DUP3 DUP10 ADD PUSH2 0xEC4 JUMP JUMPDEST SWAP2 POP POP SWAP3 SWAP6 POP SWAP3 SWAP6 SWAP1 SWAP4 POP JUMP JUMPDEST PUSH2 0xF58 DUP2 PUSH2 0xE04 JUMP JUMPDEST DUP3 MSTORE POP POP JUMP JUMPDEST PUSH32 0x4E487B7100000000000000000000000000000000000000000000000000000000 PUSH0 MSTORE PUSH1 0x21 PUSH1 0x4 MSTORE PUSH1 0x24 PUSH0 REVERT JUMPDEST PUSH1 0x3 DUP2 LT PUSH2 0xF9C JUMPI PUSH2 0xF9B PUSH2 0xF5E JUMP JUMPDEST JUMPDEST POP JUMP JUMPDEST PUSH0 DUP2 SWAP1 POP PUSH2 0xFAC DUP3 PUSH2 0xF8B JUMP JUMPDEST SWAP2 SWAP1 POP JUMP JUMPDEST PUSH0 PUSH2 0xFBB DUP3 PUSH2 0xF9F JUMP JUMPDEST SWAP1 POP SWAP2 SWAP1 POP JUMP JUMPDEST PUSH2 0xFCB DUP2 PUSH2 0xFB1 JUMP JUMPDEST DUP3 MSTORE POP POP JUMP JUMPDEST PUSH1 0x4 DUP2 LT PUSH2 0xFE2 JUMPI PUSH2 0xFE1 PUSH2 0xF5E JUMP JUMPDEST JUMPDEST POP JUMP JUMPDEST PUSH0 DUP2 SWAP1 POP PUSH2 0xFF2 DUP3 PUSH2 0xFD1 JUMP JUMPDEST SWAP2 SWAP1 POP JUMP JUMPDEST PUSH0 PUSH2 0x1001 DUP3 PUSH2 0xFE5 JUMP JUMPDEST SWAP1 POP SWAP2 SWAP1 POP JUMP JUMPDEST PUSH2 0x1011 DUP2 PUSH2 0xFF7 JUMP JUMPDEST DUP3 MSTORE POP POP JUMP JUMPDEST PUSH0 PUSH1 0xC0 DUP3 ADD SWAP1 POP PUSH2 0x102A PUSH0 DUP4 ADD DUP10 PUSH2 0xE6A JUMP JUMPDEST PUSH2 0x1037 PUSH1 0x20 DUP4 ADD DUP9 PUSH2 0xE6A JUMP JUMPDEST PUSH2 0x1044 PUSH1 0x40 DUP4 ADD DUP8 PUSH2 0xF4F JUMP JUMPDEST PUSH2 0x1051 PUSH1 0x60 DUP4 ADD DUP7 PUSH2 0xFC2 JUMP JUMPDEST PUSH2 0x105E PUSH1 0x80 DUP4 ADD DUP6 PUSH2 0xE6A JUMP JUMPDEST PUSH2 0x106B PUSH1 0xA0 DUP4 ADD DUP5 PUSH2 0x1008 JUMP JUMPDEST SWAP8 SWAP7 POP POP POP POP POP POP POP JUMP JUMPDEST PUSH0 DUP2 MLOAD SWAP1 POP SWAP2 SWAP1 POP JUMP JUMPDEST PUSH0 DUP3 DUP3 MSTORE PUSH1 0x20 DUP3 ADD SWAP1 POP SWAP3 SWAP2 POP POP JUMP JUMPDEST PUSH0 DUP2 SWAP1 POP PUSH1 0x20 DUP3 ADD SWAP1 POP SWAP2 SWAP1 POP JUMP JUMPDEST PUSH2 0x10A8 DUP2 PUSH2 0xD54 JUMP JUMPDEST DUP3 MSTORE POP POP JUMP JUMPDEST PUSH0 PUSH2 0x10B9 DUP4 DUP4 PUSH2 0x109F JUMP JUMPDEST PUSH1 0x20 DUP4 ADD SWAP1 POP SWAP3 SWAP2 POP POP JUMP JUMPDEST PUSH0 PUSH1 0x20 DUP3 ADD SWAP1 POP SWAP2 SWAP1 POP JUMP JUMPDEST PUSH0 PUSH2 0x10DB DUP3 PUSH2 0x1076 JUMP JUMPDEST PUSH2 0x10E5 DUP2 DUP6 PUSH2 0x1080 JUMP JUMPDEST SWAP4 POP PUSH2 0x10F0 DUP4 PUSH2 0x1090 JUMP JUMPDEST DUP1 PUSH0 JUMPDEST DUP4 DUP2 LT ISZERO PUSH2 0x1120 JUMPI DUP2 MLOAD PUSH2 0x1107 DUP9 DUP3 PUSH2 0x10AE JUMP JUMPDEST SWAP8 POP PUSH2 0x1112 DUP4 PUSH2 0x10C5 JUMP JUMPDEST SWAP3 POP POP PUSH1 0x1 DUP2 ADD SWAP1 POP PUSH2 0x10F3 JUMP JUMPDEST POP DUP6 SWAP4 POP POP POP POP SWAP3 SWAP2 POP POP JUMP JUMPDEST PUSH0 PUSH1 0x20 DUP3 ADD SWAP1 POP DUP2 DUP2 SUB PUSH0 DUP4 ADD MSTORE PUSH2 0x1145 DUP2 DUP5 PUSH2 0x10D1 JUMP JUMPDEST SWAP1 POP SWAP3 SWAP2 POP POP JUMP JUMPDEST PUSH0 DUP2 MLOAD SWAP1 POP SWAP2 SWAP1 POP JUMP JUMPDEST PUSH0 DUP3 DUP3 MSTORE PUSH1 0x20 DUP3 ADD SWAP1 POP SWAP3 SWAP2 POP POP JUMP JUMPDEST DUP3 DUP2 DUP4 MCOPY PUSH0 DUP4 DUP4 ADD MSTORE POP POP POP JUMP JUMPDEST PUSH0 PUSH1 0x1F NOT PUSH1 0x1F DUP4 ADD AND SWAP1 POP SWAP2 SWAP1 POP JUMP JUMPDEST PUSH0 PUSH2 0x118F DUP3 PUSH2 0x114D JUMP JUMPDEST PUSH2 0x1199 DUP2 DUP6 PUSH2 0x1157 JUMP JUMPDEST SWAP4 POP PUSH2 0x11A9 DUP2 DUP6 PUSH1 0x20 DUP7 ADD PUSH2 0x1167 JUMP JUMPDEST PUSH2 0x11B2 DUP2 PUSH2 0x1175 JUMP JUMPDEST DUP5 ADD SWAP2 POP POP SWAP3 SWAP2 POP POP JUMP JUMPDEST PUSH0 PUSH1 0x80 DUP3 ADD SWAP1 POP PUSH2 0x11D0 PUSH0 DUP4 ADD DUP8 PUSH2 0xF4F JUMP JUMPDEST PUSH2 0x11DD PUSH1 0x20 DUP4 ADD DUP7 PUSH2 0xE6A JUMP JUMPDEST DUP2 DUP2 SUB PUSH1 0x40 DUP4 ADD MSTORE PUSH2 0x11EF DUP2 DUP6 PUSH2 0x1185 JUMP JUMPDEST SWAP1 POP DUP2 DUP2 SUB PUSH1 0x60 DUP4 ADD MSTORE PUSH2 0x1203 DUP2 DUP5 PUSH2 0x1185 JUMP JUMPDEST SWAP1 POP SWAP6 SWAP5 POP POP POP POP POP JUMP JUMPDEST PUSH0 DUP1 REVERT JUMPDEST PUSH0 DUP1 REVERT JUMPDEST PUSH0 DUP1 REVERT JUMPDEST PUSH0 DUP1 DUP4 PUSH1 0x1F DUP5 ADD SLT PUSH2 0x122F JUMPI PUSH2 0x122E PUSH2 0x120E JUMP JUMPDEST JUMPDEST DUP3 CALLDATALOAD SWAP1 POP PUSH8 0xFFFFFFFFFFFFFFFF DUP2 GT ISZERO PUSH2 0x124C JUMPI PUSH2 0x124B PUSH2 0x1212 JUMP JUMPDEST JUMPDEST PUSH1 0x20 DUP4 ADD SWAP2 POP DUP4 PUSH1 0x1 DUP3 MUL DUP4 ADD GT ISZERO PUSH2 0x1268 JUMPI PUSH2 0x1267 PUSH2 0x1216 JUMP JUMPDEST JUMPDEST SWAP3 POP SWAP3 SWAP1 POP JUMP JUMPDEST PUSH0 DUP1 PUSH0 DUP1 PUSH0 DUP1 PUSH1 0x80 DUP8 DUP10 SUB SLT ISZERO PUSH2 0x1289 JUMPI PUSH2 0x1288 PUSH2 0xD4C JUMP JUMPDEST JUMPDEST PUSH0 PUSH2 0x1296 DUP10 DUP3 DUP11 ADD PUSH2 0xE2B JUMP JUMPDEST SWAP7 POP POP PUSH1 0x20 PUSH2 0x12A7 DUP10 DUP3 DUP11 ADD PUSH2 0xD73 JUMP JUMPDEST SWAP6 POP POP PUSH1 0x40 DUP8 ADD CALLDATALOAD PUSH8 0xFFFFFFFFFFFFFFFF DUP2 GT ISZERO PUSH2 0x12C8 JUMPI PUSH2 0x12C7 PUSH2 0xD50 JUMP JUMPDEST JUMPDEST PUSH2 0x12D4 DUP10 DUP3 DUP11 ADD PUSH2 0x121A JUMP JUMPDEST SWAP5 POP SWAP5 POP POP PUSH1 0x60 DUP8 ADD CALLDATALOAD PUSH8 0xFFFFFFFFFFFFFFFF DUP2 GT ISZERO PUSH2 0x12F7 JUMPI PUSH2 0x12F6 PUSH2 0xD50 JUMP JUMPDEST JUMPDEST PUSH2 0x1303 DUP10 DUP3 DUP11 ADD PUSH2 0x121A JUMP JUMPDEST SWAP3 POP SWAP3 POP POP SWAP3 SWAP6 POP SWAP3 SWAP6 POP SWAP3 SWAP6 JUMP JUMPDEST PUSH0 PUSH1 0x20 DUP3 ADD SWAP1 POP PUSH2 0x1325 PUSH0 DUP4 ADD DUP5 PUSH2 0xF4F JUMP JUMPDEST SWAP3 SWAP2 POP POP JUMP JUMPDEST PUSH32 0x4661726D6572206E6F7420726567697374657265642120526576657274696E67 PUSH0 DUP3 ADD MSTORE PUSH32 0x2E2E2E0000000000000000000000000000000000000000000000000000000000 PUSH1 0x20 DUP3 ADD MSTORE POP JUMP JUMPDEST PUSH0 PUSH2 0x1385 PUSH1 0x23 DUP4 PUSH2 0x1157 JUMP JUMPDEST SWAP2 POP PUSH2 0x1390 DUP3 PUSH2 0x132B JUMP JUMPDEST PUSH1 0x40 DUP3 ADD SWAP1 POP SWAP2 SWAP1 POP JUMP JUMPDEST PUSH0 PUSH1 0x20 DUP3 ADD SWAP1 POP DUP2 DUP2 SUB PUSH0 DUP4 ADD MSTORE PUSH2 0x13B2 DUP2 PUSH2 0x1379 JUMP JUMPDEST SWAP1 POP SWAP2 SWAP1 POP JUMP JUMPDEST PUSH32 0x4F6E6C79207468652072656769737465726564206661726D6572732061726520 PUSH0 DUP3 ADD MSTORE PUSH32 0x617574686F726973656420666F72207468697320616374696F6E000000000000 PUSH1 0x20 DUP3 ADD MSTORE POP JUMP JUMPDEST PUSH0 PUSH2 0x1413 PUSH1 0x3A DUP4 PUSH2 0x1157 JUMP JUMPDEST SWAP2 POP PUSH2 0x141E DUP3 PUSH2 0x13B9 JUMP JUMPDEST PUSH1 0x40 DUP3 ADD SWAP1 POP SWAP2 SWAP1 POP JUMP JUMPDEST PUSH0 PUSH1 0x20 DUP3 ADD SWAP1 POP DUP2 DUP2 SUB PUSH0 DUP4 ADD MSTORE PUSH2 0x1440 DUP2 PUSH2 0x1407 JUMP JUMPDEST SWAP1 POP SWAP2 SWAP1 POP JUMP JUMPDEST PUSH32 0x50726F6475637420616C72656164792072656769737465726564212052657665 PUSH0 DUP3 ADD MSTORE PUSH32 0x7274696E672E2E2E000000000000000000000000000000000000000000000000 PUSH1 0x20 DUP3 ADD MSTORE POP JUMP JUMPDEST PUSH0 PUSH2 0x14A1 PUSH1 0x28 DUP4 PUSH2 0x1157 JUMP JUMPDEST SWAP2 POP PUSH2 0x14AC DUP3 PUSH2 0x1447 JUMP JUMPDEST PUSH1 0x40 DUP3 ADD SWAP1 POP SWAP2 SWAP1 POP JUMP JUMPDEST PUSH0 PUSH1 0x20 DUP3 ADD SWAP1 POP DUP2 DUP2 SUB PUSH0 DUP4 ADD MSTORE PUSH2 0x14CE DUP2 PUSH2 0x1495 JUMP JUMPDEST SWAP1 POP SWAP2 SWAP1 POP JUMP JUMPDEST PUSH32 0x50726F64756374206E6F7420726567697374657265642120526576657274696E PUSH0 DUP3 ADD MSTORE PUSH32 0x672E2E2E00000000000000000000000000000000000000000000000000000000 PUSH1 0x20 DUP3 ADD MSTORE POP JUMP JUMPDEST PUSH0 PUSH2 0x152F PUSH1 0x24 DUP4 PUSH2 0x1157 JUMP JUMPDEST SWAP2 POP PUSH2 0x153A DUP3 PUSH2 0x14D5 JUMP JUMPDEST PUSH1 0x40 DUP3 ADD SWAP1 POP SWAP2 SWAP1 POP JUMP JUMPDEST PUSH0 PUSH1 0x20 DUP3 ADD SWAP1 POP DUP2 DUP2 SUB PUSH0 DUP4 ADD MSTORE PUSH2 0x155C DUP2 PUSH2 0x1523 JUMP JUMPDEST SWAP1 POP SWAP2 SWAP1 POP JUMP JUMPDEST PUSH32 0x4E487B7100000000000000000000000000000000000000000000000000000000 PUSH0 MSTORE PUSH1 0x22 PUSH1 0x4 MSTORE PUSH1 0x24 PUSH0 REVERT JUMPDEST PUSH0 PUSH1 0x2 DUP3 DIV SWAP1 POP PUSH1 0x1 DUP3 AND DUP1 PUSH2 0x15A7 JUMPI PUSH1 0x7F DUP3 AND SWAP2 POP JUMPDEST PUSH1 0x20 DUP3 LT DUP2 SUB PUSH2 0x15BA JUMPI PUSH2 0x15B9 PUSH2 0x1563 JUMP JUMPDEST JUMPDEST POP SWAP2 SWAP1 POP JUMP JUMPDEST PUSH32 0x4F6E6C79207468652053797374656D2041646D696E20697320617574686F7269 PUSH0 DUP3 ADD MSTORE PUSH32 0x73656420666F72207468697320616374696F6E00000000000000000000000000 PUSH1 0x20 DUP3 ADD MSTORE POP JUMP JUMPDEST PUSH0 PUSH2 0x161A PUSH1 0x33 DUP4 PUSH2 0x1157 JUMP JUMPDEST SWAP2 POP PUSH2 0x1625 DUP3 PUSH2 0x15C0 JUMP JUMPDEST PUSH1 0x40 DUP3 ADD SWAP1 POP SWAP2 SWAP1 POP JUMP JUMPDEST PUSH0 PUSH1 0x20 DUP3 ADD SWAP1 POP DUP2 DUP2 SUB PUSH0 DUP4 ADD MSTORE PUSH2 0x1647 DUP2 PUSH2 0x160E JUMP JUMPDEST SWAP1 POP SWAP2 SWAP1 POP JUMP JUMPDEST PUSH32 0x4661726D657220616C7265616479207265676973746572656421205265766572 PUSH0 DUP3 ADD MSTORE PUSH32 0x74696E672E2E2E00000000000000000000000000000000000000000000000000 PUSH1 0x20 DUP3 ADD MSTORE POP JUMP JUMPDEST PUSH0 PUSH2 0x16A8 PUSH1 0x27 DUP4 PUSH2 0x1157 JUMP JUMPDEST SWAP2 POP PUSH2 0x16B3 DUP3 PUSH2 0x164E JUMP JUMPDEST PUSH1 0x40 DUP3 ADD SWAP1 POP SWAP2 SWAP1 POP JUMP JUMPDEST PUSH0 PUSH1 0x20 DUP3 ADD SWAP1 POP DUP2 DUP2 SUB PUSH0 DUP4 ADD MSTORE PUSH2 0x16D5 DUP2 PUSH2 0x169C JUMP JUMPDEST SWAP1 POP SWAP2 SWAP1 POP JUMP JUMPDEST PUSH32 0x4E487B7100000000000000000000000000000000000000000000000000000000 PUSH0 MSTORE PUSH1 0x41 PUSH1 0x4 MSTORE PUSH1 0x24 PUSH0 REVERT JUMPDEST PUSH0 DUP2 SWAP1 POP DUP2 PUSH0 MSTORE PUSH1 0x20 PUSH0 KECCAK256 SWAP1 POP SWAP2 SWAP1 POP JUMP JUMPDEST PUSH0 PUSH1 0x20 PUSH1 0x1F DUP4 ADD DIV SWAP1 POP SWAP2 SWAP1 POP JUMP JUMPDEST PUSH0 DUP3 DUP3 SHL SWAP1 POP SWAP3 SWAP2 POP POP JUMP JUMPDEST PUSH0 PUSH1 0x8 DUP4 MUL PUSH2 0x1765 PUSH32 0xFFFFFFFFFFFFFFFFFFFFFFFFFFFFFFFFFFFFFFFFFFFFFFFFFFFFFFFFFFFFFFFF DUP3 PUSH2 0x172A JUMP JUMPDEST PUSH2 0x176F DUP7 DUP4 PUSH2 0x172A JUMP JUMPDEST SWAP6 POP DUP1 NOT DUP5 AND SWAP4 POP DUP1 DUP7 AND DUP5 OR SWAP3 POP POP POP SWAP4 SWAP3 POP POP POP JUMP JUMPDEST PUSH0 DUP2 SWAP1 POP SWAP2 SWAP1 POP JUMP JUMPDEST PUSH0 PUSH2 0x17AA PUSH2 0x17A5 PUSH2 0x17A0 DUP5 PUSH2 0xD54 JUMP JUMPDEST PUSH2 0x1787 JUMP JUMPDEST PUSH2 0xD54 JUMP JUMPDEST SWAP1 POP SWAP2 SWAP1 POP JUMP JUMPDEST PUSH0 DUP2 SWAP1 POP SWAP2 SWAP1 POP JUMP JUMPDEST PUSH2 0x17C3 DUP4 PUSH2 0x1790 JUMP JUMPDEST PUSH2 0x17D7 PUSH2 0x17CF DUP3 PUSH2 0x17B1 JUMP JUMPDEST DUP5 DUP5 SLOAD PUSH2 0x1736 JUMP JUMPDEST DUP3 SSTORE POP POP POP POP JUMP JUMPDEST PUSH0 SWAP1 JUMP JUMPDEST PUSH2 0x17EB PUSH2 0x17DF JUMP JUMPDEST PUSH2 0x17F6 DUP2 DUP5 DUP5 PUSH2 0x17BA JUMP JUMPDEST POP POP POP JUMP JUMPDEST JUMPDEST DUP2 DUP2 LT ISZERO PUSH2 0x1819 JUMPI PUSH2 0x180E PUSH0 DUP3 PUSH2 0x17E3 JUMP JUMPDEST PUSH1 0x1 DUP2 ADD SWAP1 POP PUSH2 0x17FC JUMP JUMPDEST POP POP JUMP JUMPDEST PUSH1 0x1F DUP3 GT ISZERO PUSH2 0x185E JUMPI PUSH2 0x182F DUP2 PUSH2 0x1709 JUMP JUMPDEST PUSH2 0x1838 DUP5 PUSH2 0x171B JUMP JUMPDEST DUP2 ADD PUSH1 0x20 DUP6 LT ISZERO PUSH2 0x1847 JUMPI DUP2 SWAP1 POP JUMPDEST PUSH2 0x185B PUSH2 0x1853 DUP6 PUSH2 0x171B JUMP JUMPDEST DUP4 ADD DUP3 PUSH2 0x17FB JUMP JUMPDEST POP POP JUMPDEST POP POP POP JUMP JUMPDEST PUSH0 DUP3 DUP3 SHR SWAP1 POP SWAP3 SWAP2 POP POP JUMP JUMPDEST PUSH0 PUSH2 0x187E PUSH0 NOT DUP5 PUSH1 0x8 MUL PUSH2 0x1863 JUMP JUMPDEST NOT DUP1 DUP4 AND SWAP2 POP POP SWAP3 SWAP2 POP POP JUMP JUMPDEST PUSH0 PUSH2 0x1896 DUP4 DUP4 PUSH2 0x186F JUMP JUMPDEST SWAP2 POP DUP3 PUSH1 0x2 MUL DUP3 OR SWAP1 POP SWAP3 SWAP2 POP POP JUMP JUMPDEST PUSH2 0x18AF DUP3 PUSH2 0x114D JUMP JUMPDEST PUSH8 0xFFFFFFFFFFFFFFFF DUP2 GT ISZERO PUSH2 0x18C8 JUMPI PUSH2 0x18C7 PUSH2 0x16DC JUMP JUMPDEST JUMPDEST PUSH2 0x18D2 DUP3 SLOAD PUSH2 0x1590 JUMP JUMPDEST PUSH2 0x18DD DUP3 DUP3 DUP6 PUSH2 0x181D JUMP JUMPDEST PUSH0 PUSH1 0x20 SWAP1 POP PUSH1 0x1F DUP4 GT PUSH1 0x1 DUP2 EQ PUSH2 0x190E JUMPI PUSH0 DUP5 ISZERO PUSH2 0x18FC JUMPI DUP3 DUP8 ADD MLOAD SWAP1 POP JUMPDEST PUSH2 0x1906 DUP6 DUP3 PUSH2 0x188B JUMP JUMPDEST DUP7 SSTORE POP PUSH2 0x196D JUMP JUMPDEST PUSH1 0x1F NOT DUP5 AND PUSH2 0x191C DUP7 PUSH2 0x1709 JUMP JUMPDEST PUSH0 JUMPDEST DUP3 DUP2 LT ISZERO PUSH2 0x1943 JUMPI DUP5 DUP10 ADD MLOAD DUP3 SSTORE PUSH1 0x1 DUP3 ADD SWAP2 POP PUSH1 0x20 DUP6 ADD SWAP5 POP PUSH1 0x20 DUP2 ADD SWAP1 POP PUSH2 0x191E JUMP JUMPDEST DUP7 DUP4 LT ISZERO PUSH2 0x1960 JUMPI DUP5 DUP10 ADD MLOAD PUSH2 0x195C PUSH1 0x1F DUP10 AND DUP3 PUSH2 0x186F JUMP JUMPDEST DUP4 SSTORE POP JUMPDEST PUSH1 0x1 PUSH1 0x2 DUP9 MUL ADD DUP9 SSTORE POP POP POP JUMPDEST POP POP POP POP POP POP JUMP JUMPDEST PUSH32 0x4E487B7100000000000000000000000000000000000000000000000000000000 PUSH0 MSTORE PUSH1 0x11 PUSH1 0x4 MSTORE PUSH1 0x24 PUSH0 REVERT JUMPDEST PUSH0 PUSH2 0x19AC DUP3 PUSH2 0xD54 JUMP JUMPDEST SWAP2 POP PUSH2 0x19B7 DUP4 PUSH2 0xD54 JUMP JUMPDEST SWAP3 POP DUP3 DUP3 ADD SWAP1 POP DUP1 DUP3 GT ISZERO PUSH2 0x19CF JUMPI PUSH2 0x19CE PUSH2 0x1975 JUMP JUMPDEST JUMPDEST SWAP3 SWAP2 POP POP JUMP INVALID LOG2 PUSH5 0x6970667358 0x22 SLT KECCAK256 CREATE2 0xF7 BALANCE CALL EXTCODEHASH EXTCODEHASH 0xB6 PUSH1 0xF6 0xDB 0x4B 0xA9 0xC2 PUSH23 0xBED53C008337C46393BCE162198D98794D3864736F6C63 NUMBER STOP ADDMOD BYTE STOP CALLER "
				},
				"gasEstimates": {
					"creation": {
						"codeDepositCost": "1333400",
						"executionCost": "30658",
						"totalCost": "1364058"
					},
					"external": {
						"addFarmer(address,uint256,string,string)": "infinite",
						"addProduct(uint256,uint256,uint8,uint256,uint8)": "infinite",
						"admin()": "2596",
						"getFarmerCount()": "2454",
						"getFarmerDetails(address)": "infinite",
						"getProductCount(address)": "infinite",
						"getProductDetails(uint256)": "infinite",
						"getProductList(address)": "infinite",
						"isRegisteredFarmer(address)": "2919",
						"isRegisteredProduct(uint256)": "2790"
					},
					"internal": {
						"updateFarmerCount()": "infinite"
					}
				},
				"methodIdentifiers": {
					"addFarmer(address,uint256,string,string)": "e86ce709",
					"addProduct(uint256,uint256,uint8,uint256,uint8)": "5524a0b7",
					"admin()": "f851a440",
					"getFarmerCount()": "c4a8b5d5",
					"getFarmerDetails(address)": "d335ccfa",
					"getProductCount(address)": "50208eee",
					"getProductDetails(uint256)": "6813b53b",
					"getProductList(address)": "bc125012",
					"isRegisteredFarmer(address)": "4e5d37a9",
					"isRegisteredProduct(uint256)": "1584fd05"
				}
			},
			"storageLayout": {
				"storage": [
					{
						"astId": 38,
						"contract": "contracts/Admin.sol:Admin",
						"label": "farmerCount",
						"offset": 0,
						"slot": "0",
						"type": "t_uint256"
					},
					{
						"astId": 43,
						"contract": "contracts/Admin.sol:Admin",
						"label": "farmerProductIDList",
						"offset": 0,
						"slot": "1",
						"type": "t_mapping(t_address,t_array(t_uint256)dyn_storage)"
					},
					{
						"astId": 48,
						"contract": "contracts/Admin.sol:Admin",
						"label": "productList",
						"offset": 0,
						"slot": "2",
						"type": "t_mapping(t_uint256,t_struct(Product)34_storage)"
					},
					{
						"astId": 53,
						"contract": "contracts/Admin.sol:Admin",
						"label": "farmerList",
						"offset": 0,
						"slot": "3",
						"type": "t_mapping(t_address,t_struct(Farmer)10_storage)"
					},
					{
						"astId": 57,
						"contract": "contracts/Admin.sol:Admin",
						"label": "admin",
						"offset": 0,
						"slot": "4",
						"type": "t_address"
					}
				],
				"types": {
					"t_address": {
						"encoding": "inplace",
						"label": "address",
						"numberOfBytes": "20"
					},
					"t_array(t_uint256)dyn_storage": {
						"base": "t_uint256",
						"encoding": "dynamic_array",
						"label": "uint256[]",
						"numberOfBytes": "32"
					},
					"t_enum(CoffeeType)14": {
						"encoding": "inplace",
						"label": "enum stakeholders.CoffeeType",
						"numberOfBytes": "1"
					},
					"t_enum(ProcessingMethod)19": {
						"encoding": "inplace",
						"label": "enum stakeholders.ProcessingMethod",
						"numberOfBytes": "1"
					},
					"t_mapping(t_address,t_array(t_uint256)dyn_storage)": {
						"encoding": "mapping",
						"key": "t_address",
						"label": "mapping(address => uint256[])",
						"numberOfBytes": "32",
						"value": "t_array(t_uint256)dyn_storage"
					},
					"t_mapping(t_address,t_struct(Farmer)10_storage)": {
						"encoding": "mapping",
						"key": "t_address",
						"label": "mapping(address => struct stakeholders.Farmer)",
						"numberOfBytes": "32",
						"value": "t_struct(Farmer)10_storage"
					},
					"t_mapping(t_uint256,t_struct(Product)34_storage)": {
						"encoding": "mapping",
						"key": "t_uint256",
						"label": "mapping(uint256 => struct stakeholders.Product)",
						"numberOfBytes": "32",
						"value": "t_struct(Product)34_storage"
					},
					"t_string_storage": {
						"encoding": "bytes",
						"label": "string",
						"numberOfBytes": "32"
					},
					"t_struct(Farmer)10_storage": {
						"encoding": "inplace",
						"label": "struct stakeholders.Farmer",
						"members": [
							{
								"astId": 3,
								"contract": "contracts/Admin.sol:Admin",
								"label": "farmerAddress",
								"offset": 0,
								"slot": "0",
								"type": "t_address"
							},
							{
								"astId": 5,
								"contract": "contracts/Admin.sol:Admin",
								"label": "farmerID",
								"offset": 0,
								"slot": "1",
								"type": "t_uint256"
							},
							{
								"astId": 7,
								"contract": "contracts/Admin.sol:Admin",
								"label": "farmerName",
								"offset": 0,
								"slot": "2",
								"type": "t_string_storage"
							},
							{
								"astId": 9,
								"contract": "contracts/Admin.sol:Admin",
								"label": "estateName",
								"offset": 0,
								"slot": "3",
								"type": "t_string_storage"
							}
						],
						"numberOfBytes": "128"
					},
					"t_struct(Product)34_storage": {
						"encoding": "inplace",
						"label": "struct stakeholders.Product",
						"members": [
							{
								"astId": 21,
								"contract": "contracts/Admin.sol:Admin",
								"label": "productID",
								"offset": 0,
								"slot": "0",
								"type": "t_uint256"
							},
							{
								"astId": 23,
								"contract": "contracts/Admin.sol:Admin",
								"label": "pluckingDate",
								"offset": 0,
								"slot": "1",
								"type": "t_uint256"
							},
							{
								"astId": 25,
								"contract": "contracts/Admin.sol:Admin",
								"label": "registeredBy",
								"offset": 0,
								"slot": "2",
								"type": "t_address"
							},
							{
								"astId": 28,
								"contract": "contracts/Admin.sol:Admin",
								"label": "coffeeType",
								"offset": 20,
								"slot": "2",
								"type": "t_enum(CoffeeType)14"
							},
							{
								"astId": 30,
								"contract": "contracts/Admin.sol:Admin",
								"label": "harvestAmtKg",
								"offset": 0,
								"slot": "3",
								"type": "t_uint256"
							},
							{
								"astId": 33,
								"contract": "contracts/Admin.sol:Admin",
								"label": "processingMethod",
								"offset": 0,
								"slot": "4",
								"type": "t_enum(ProcessingMethod)19"
							}
						],
						"numberOfBytes": "160"
					},
					"t_uint256": {
						"encoding": "inplace",
						"label": "uint256",
						"numberOfBytes": "32"
					}
				}
			},
			"userdoc": {
				"kind": "user",
				"methods": {},
				"version": 1
			}
		}
	}
}