{
  "contracts/Admin.sol": {
    "Admin": {
      "abi": [
        {
          "inputs": [],
          "stateMutability": "nonpayable",
          "type": "constructor"
        },
        {
          "inputs": [
            {
              "internalType": "address",
              "name": "_farmerAddress",
              "type": "address"
            },
            {
              "internalType": "uint256",
              "name": "_farmerID",
              "type": "uint256"
            },
            {
              "internalType": "string",
              "name": "_farmerName",
              "type": "string"
            },
            {
              "internalType": "string",
              "name": "_estateName",
              "type": "string"
            }
          ],
          "name": "addFarmer",
          "outputs": [],
          "stateMutability": "nonpayable",
          "type": "function"
        },
        {
          "inputs": [
            {
              "internalType": "uint256",
              "name": "_productID",
              "type": "uint256"
            },
            {
              "internalType": "uint256",
              "name": "_pluckingDate",
              "type": "uint256"
            },
            {
              "internalType": "enum stakeholders.CoffeeType",
              "name": "_coffeeType",
              "type": "uint8"
            },
            {
              "internalType": "uint256",
              "name": "_harvestAmtKg",
              "type": "uint256"
            },
            {
              "internalType": "enum stakeholders.ProcessingMethod",
              "name": "_processingMethod",
              "type": "uint8"
            }
          ],
          "name": "addProduct",
          "outputs": [],
          "stateMutability": "nonpayable",
          "type": "function"
        },
        {
          "inputs": [],
          "name": "admin",
          "outputs": [
            {
              "internalType": "address",
              "name": "",
              "type": "address"
            }
          ],
          "stateMutability": "view",
          "type": "function"
        },
        {
          "inputs": [],
          "name": "getFarmerCount",
          "outputs": [
            {
              "internalType": "uint256",
              "name": "",
              "type": "uint256"
            }
          ],
          "stateMutability": "view",
          "type": "function"
        },
        {
          "inputs": [
            {
              "internalType": "address",
              "name": "_farmerAddress",
              "type": "address"
            }
          ],
          "name": "getFarmerDetails",
          "outputs": [
            {
              "internalType": "address",
              "name": "__farmerAddress",
              "type": "address"
            },
            {
              "internalType": "uint256",
              "name": "_farmerID",
              "type": "uint256"
            },
            {
              "internalType": "string",
              "name": "_farmerName",
              "type": "string"
            },
            {
              "internalType": "string",
              "name": "_estateName",
              "type": "string"
            }
          ],
          "stateMutability": "view",
          "type": "function"
        },
        {
          "inputs": [
            {
              "internalType": "address",
              "name": "_farmerAddress",
              "type": "address"
            }
          ],
          "name": "getProductCount",
          "outputs": [
            {
              "internalType": "uint256",
              "name": "productCount",
              "type": "uint256"
            }
          ],
          "stateMutability": "view",
          "type": "function"
        },
        {
          "inputs": [
            {
              "internalType": "uint256",
              "name": "_productID",
              "type": "uint256"
            }
          ],
          "name": "getProductDetails",
          "outputs": [
            {
              "internalType": "uint256",
              "name": "productID",
              "type": "uint256"
            },
            {
              "internalType": "uint256",
              "name": "pluckingDate",
              "type": "uint256"
            },
            {
              "internalType": "address",
              "name": "registeredBy",
              "type": "address"
            },
            {
              "internalType": "enum stakeholders.CoffeeType",
              "name": "coffeeType",
              "type": "uint8"
            },
            {
              "internalType": "uint256",
              "name": "harvestAmtKg",
              "type": "uint256"
            },
            {
              "internalType": "enum stakeholders.ProcessingMethod",
              "name": "processingMethod",
              "type": "uint8"
            }
          ],
          "stateMutability": "view",
          "type": "function"
        },
        {
          "inputs": [
            {
              "internalType": "address",
              "name": "_farmerAddress",
              "type": "address"
            }
          ],
          "name": "getProductList",
          "outputs": [
            {
              "internalType": "uint256[]",
              "name": "productIDList",
              "type": "uint256[]"
            }
          ],
          "stateMutability": "view",
          "type": "function"
        },
        {
          "inputs": [
            {
              "internalType": "address",
              "name": "_farmerAddress",
              "type": "address"
            }
          ],
          "name": "isRegisteredFarmer",
          "outputs": [
            {
              "internalType": "bool",
              "name": "",
              "type": "bool"
            }
          ],
          "stateMutability": "view",
          "type": "function"
        },
        {
          "inputs": [
            {
              "internalType": "uint256",
              "name": "_productID",
              "type": "uint256"
            }
          ],
          "name": "isRegisteredProduct",
          "outputs": [
            {
              "internalType": "bool",
              "name": "",
              "type": "bool"
            }
          ],
          "stateMutability": "view",
          "type": "function"
        }
      ],
      "evm": {
        "bytecode": {
          "linkReferences": {},
          "object": "608060405260008055348015601357600080fd5b5033600460006101000a81548173ffffffffffffffffffffffffffffffffffffffff021916908373ffffffffffffffffffffffffffffffffffffffff160217905550611adc806100646000396000f3fe608060405234801561001057600080fd5b506004361061009e5760003560e01c8063bc12501211610066578063bc12501214610184578063c4a8b5d5146101b4578063d335ccfa146101d2578063e86ce70914610205578063f851a440146102215761009e565b80631584fd05146100a35780634e5d37a9146100d357806350208eee146101035780635524a0b7146101335780636813b53b1461014f575b600080fd5b6100bd60048036038101906100b89190610dd4565b61023f565b6040516100ca9190610e1c565b60405180910390f35b6100ed60048036038101906100e89190610e95565b610262565b6040516100fa9190610e1c565b60405180910390f35b61011d60048036038101906101189190610e95565b6102fd565b60405161012a9190610ed1565b60405180910390f35b61014d60048036038101906101489190610f36565b6103e3565b005b61016960048036038101906101649190610dd4565b610629565b60405161017b9695949392919061107f565b60405180910390f35b61019e60048036038101906101999190610e95565b61073d565b6040516101ab919061119e565b60405180910390f35b6101bc61081c565b6040516101c99190610ed1565b60405180910390f35b6101ec60048036038101906101e79190610e95565b610825565b6040516101fc9493929190611250565b60405180910390f35b61021f600480360381019061021a9190611308565b610a5c565b005b610229610cc3565b60405161023691906113af565b60405180910390f35b600080600260008481526020019081526020016000206000015414159050919050565b60008073ffffffffffffffffffffffffffffffffffffffff16600360008473ffffffffffffffffffffffffffffffffffffffff1673ffffffffffffffffffffffffffffffffffffffff16815260200190815260200160002060000160009054906101000a900473ffffffffffffffffffffffffffffffffffffffff1673ffffffffffffffffffffffffffffffffffffffff1614159050919050565b600061030882610262565b610347576040517f08c379a000000000000000000000000000000000000000000000000000000000815260040161033e9061143c565b60405180910390fd5b6000600160008473ffffffffffffffffffffffffffffffffffffffff1673ffffffffffffffffffffffffffffffffffffffff1681526020019081526020016000208054806020026020016040519081016040528092919081815260200182805480156103d257602002820191906000526020600020905b8154815260200190600101908083116103be575b505050505090508051915050919050565b6103ec33610262565b61042b576040517f08c379a0000000000000000000000000000000000000000000000000000000008152600401610422906114ce565b60405180910390fd5b6104348561023f565b15610474576040517f08c379a000000000000000000000000000000000000000000000000000000000815260040161046b90611560565b60405180910390fd5b6000339050600160008273ffffffffffffffffffffffffffffffffffffffff1673ffffffffffffffffffffffffffffffffffffffff1681526020019081526020016000208690806001815401808255809150506001900390600052602060002001600090919091909150556040518060c001604052808781526020018681526020018273ffffffffffffffffffffffffffffffffffffffff16815260200185600281111561052557610524610fc0565b5b815260200184815260200183600381111561054357610542610fc0565b5b81525060026000888152602001908152602001600020600082015181600001556020820151816001015560408201518160020160006101000a81548173ffffffffffffffffffffffffffffffffffffffff021916908373ffffffffffffffffffffffffffffffffffffffff16021790555060608201518160020160146101000a81548160ff021916908360028111156105df576105de610fc0565b5b02179055506080820151816003015560a08201518160040160006101000a81548160ff0219169083600381111561061957610618610fc0565b5b0217905550905050505050505050565b60008060008060008061063b8761023f565b61067a576040517f08c379a0000000000000000000000000000000000000000000000000000000008152600401610671906115f2565b60405180910390fd5b869550600260008781526020019081526020016000206001015494506002600087815260200190815260200160002060020160009054906101000a900473ffffffffffffffffffffffffffffffffffffffff1693506002600087815260200190815260200160002060020160149054906101000a900460ff169250600260008781526020019081526020016000206003015491506002600087815260200190815260200160002060040160009054906101000a900460ff16905091939550919395565b606061074882610262565b610787576040517f08c379a000000000000000000000000000000000000000000000000000000000815260040161077e9061143c565b60405180910390fd5b600160008373ffffffffffffffffffffffffffffffffffffffff1673ffffffffffffffffffffffffffffffffffffffff16815260200190815260200160002080548060200260200160405190810160405280929190818152602001828054801561081057602002820191906000526020600020905b8154815260200190600101908083116107fc575b50505050509050919050565b60008054905090565b60008060608061083485610262565b610873576040517f08c379a000000000000000000000000000000000000000000000000000000000815260040161086a9061143c565b60405180910390fd5b849350600360008673ffffffffffffffffffffffffffffffffffffffff1673ffffffffffffffffffffffffffffffffffffffff168152602001908152602001600020600101549250600360008673ffffffffffffffffffffffffffffffffffffffff1673ffffffffffffffffffffffffffffffffffffffff168152602001908152602001600020600201805461090890611641565b80601f016020809104026020016040519081016040528092919081815260200182805461093490611641565b80156109815780601f1061095657610100808354040283529160200191610981565b820191906000526020600020905b81548152906001019060200180831161096457829003601f168201915b50505050509150600360008673ffffffffffffffffffffffffffffffffffffffff1673ffffffffffffffffffffffffffffffffffffffff16815260200190815260200160002060030180546109d590611641565b80601f0160208091040260200160405190810160405280929190818152602001828054610a0190611641565b8015610a4e5780601f10610a2357610100808354040283529160200191610a4e565b820191906000526020600020905b815481529060010190602001808311610a3157829003601f168201915b505050505090509193509193565b600460009054906101000a900473ffffffffffffffffffffffffffffffffffffffff1673ffffffffffffffffffffffffffffffffffffffff163373ffffffffffffffffffffffffffffffffffffffff1614610aec576040517f08c379a0000000000000000000000000000000000000000000000000000000008152600401610ae3906116e4565b60405180910390fd5b610af586610262565b15610b35576040517f08c379a0000000000000000000000000000000000000000000000000000000008152600401610b2c90611776565b60405180910390fd5b60405180608001604052808773ffffffffffffffffffffffffffffffffffffffff16815260200186815260200185858080601f016020809104026020016040519081016040528093929190818152602001838380828437600081840152601f19601f82011690508083019250505050505050815260200183838080601f016020809104026020016040519081016040528093929190818152602001838380828437600081840152601f19601f82011690508083019250505050505050815250600360008873ffffffffffffffffffffffffffffffffffffffff1673ffffffffffffffffffffffffffffffffffffffff16815260200190815260200160002060008201518160000160006101000a81548173ffffffffffffffffffffffffffffffffffffffff021916908373ffffffffffffffffffffffffffffffffffffffff160217905550602082015181600101556040820151816002019081610c999190611971565b506060820151816003019081610caf9190611971565b50905050610cbb610ce9565b505050505050565b600460009054906101000a900473ffffffffffffffffffffffffffffffffffffffff1681565b600460009054906101000a900473ffffffffffffffffffffffffffffffffffffffff1673ffffffffffffffffffffffffffffffffffffffff163373ffffffffffffffffffffffffffffffffffffffff1614610d79576040517f08c379a0000000000000000000000000000000000000000000000000000000008152600401610d70906116e4565b60405180910390fd5b6001600080828254610d8b9190611a72565b92505081905550565b600080fd5b600080fd5b6000819050919050565b610db181610d9e565b8114610dbc57600080fd5b50565b600081359050610dce81610da8565b92915050565b600060208284031215610dea57610de9610d94565b5b6000610df884828501610dbf565b91505092915050565b60008115159050919050565b610e1681610e01565b82525050565b6000602082019050610e316000830184610e0d565b92915050565b600073ffffffffffffffffffffffffffffffffffffffff82169050919050565b6000610e6282610e37565b9050919050565b610e7281610e57565b8114610e7d57600080fd5b50565b600081359050610e8f81610e69565b92915050565b600060208284031215610eab57610eaa610d94565b5b6000610eb984828501610e80565b91505092915050565b610ecb81610d9e565b82525050565b6000602082019050610ee66000830184610ec2565b92915050565b60038110610ef957600080fd5b50565b600081359050610f0b81610eec565b92915050565b60048110610f1e57600080fd5b50565b600081359050610f3081610f11565b92915050565b600080600080600060a08688031215610f5257610f51610d94565b5b6000610f6088828901610dbf565b9550506020610f7188828901610dbf565b9450506040610f8288828901610efc565b9350506060610f9388828901610dbf565b9250506080610fa488828901610f21565b9150509295509295909350565b610fba81610e57565b82525050565b7f4e487b7100000000000000000000000000000000000000000000000000000000600052602160045260246000fd5b6003811061100057610fff610fc0565b5b50565b600081905061101182610fef565b919050565b600061102182611003565b9050919050565b61103181611016565b82525050565b6004811061104857611047610fc0565b5b50565b600081905061105982611037565b919050565b60006110698261104b565b9050919050565b6110798161105e565b82525050565b600060c0820190506110946000830189610ec2565b6110a16020830188610ec2565b6110ae6040830187610fb1565b6110bb6060830186611028565b6110c86080830185610ec2565b6110d560a0830184611070565b979650505050505050565b600081519050919050565b600082825260208201905092915050565b6000819050602082019050919050565b61111581610d9e565b82525050565b6000611127838361110c565b60208301905092915050565b6000602082019050919050565b600061114b826110e0565b61115581856110eb565b9350611160836110fc565b8060005b83811015611191578151611178888261111b565b975061118383611133565b925050600181019050611164565b5085935050505092915050565b600060208201905081810360008301526111b88184611140565b905092915050565b600081519050919050565b600082825260208201905092915050565b60005b838110156111fa5780820151818401526020810190506111df565b60008484015250505050565b6000601f19601f8301169050919050565b6000611222826111c0565b61122c81856111cb565b935061123c8185602086016111dc565b61124581611206565b840191505092915050565b60006080820190506112656000830187610fb1565b6112726020830186610ec2565b81810360408301526112848185611217565b905081810360608301526112988184611217565b905095945050505050565b600080fd5b600080fd5b600080fd5b60008083601f8401126112c8576112c76112a3565b5b8235905067ffffffffffffffff8111156112e5576112e46112a8565b5b602083019150836001820283011115611301576113006112ad565b5b9250929050565b6000806000806000806080878903121561132557611324610d94565b5b600061133389828a01610e80565b965050602061134489828a01610dbf565b955050604087013567ffffffffffffffff81111561136557611364610d99565b5b61137189828a016112b2565b9450945050606087013567ffffffffffffffff81111561139457611393610d99565b5b6113a089828a016112b2565b92509250509295509295509295565b60006020820190506113c46000830184610fb1565b92915050565b7f4661726d6572206e6f7420726567697374657265642120526576657274696e6760008201527f2e2e2e0000000000000000000000000000000000000000000000000000000000602082015250565b60006114266023836111cb565b9150611431826113ca565b604082019050919050565b6000602082019050818103600083015261145581611419565b9050919050565b7f4f6e6c79207468652072656769737465726564206661726d657273206172652060008201527f617574686f726973656420666f72207468697320616374696f6e000000000000602082015250565b60006114b8603a836111cb565b91506114c38261145c565b604082019050919050565b600060208201905081810360008301526114e7816114ab565b9050919050565b7f50726f6475637420616c7265616479207265676973746572656421205265766560008201527f7274696e672e2e2e000000000000000000000000000000000000000000000000602082015250565b600061154a6028836111cb565b9150611555826114ee565b604082019050919050565b600060208201905081810360008301526115798161153d565b9050919050565b7f50726f64756374206e6f7420726567697374657265642120526576657274696e60008201527f672e2e2e00000000000000000000000000000000000000000000000000000000602082015250565b60006115dc6024836111cb565b91506115e782611580565b604082019050919050565b6000602082019050818103600083015261160b816115cf565b9050919050565b7f4e487b7100000000000000000000000000000000000000000000000000000000600052602260045260246000fd5b6000600282049050600182168061165957607f821691505b60208210810361166c5761166b611612565b5b50919050565b7f4f6e6c79207468652053797374656d2041646d696e20697320617574686f726960008201527f73656420666f72207468697320616374696f6e00000000000000000000000000602082015250565b60006116ce6033836111cb565b91506116d982611672565b604082019050919050565b600060208201905081810360008301526116fd816116c1565b9050919050565b7f4661726d657220616c726561647920726567697374657265642120526576657260008201527f74696e672e2e2e00000000000000000000000000000000000000000000000000602082015250565b60006117606027836111cb565b915061176b82611704565b604082019050919050565b6000602082019050818103600083015261178f81611753565b9050919050565b7f4e487b7100000000000000000000000000000000000000000000000000000000600052604160045260246000fd5b60008190508160005260206000209050919050565b60006020601f8301049050919050565b600082821b905092915050565b6000600883026118277fffffffffffffffffffffffffffffffffffffffffffffffffffffffffffffffff826117ea565b61183186836117ea565b95508019841693508086168417925050509392505050565b6000819050919050565b600061186e61186961186484610d9e565b611849565b610d9e565b9050919050565b6000819050919050565b61188883611853565b61189c61189482611875565b8484546117f7565b825550505050565b600090565b6118b16118a4565b6118bc81848461187f565b505050565b5b818110156118e0576118d56000826118a9565b6001810190506118c2565b5050565b601f821115611925576118f6816117c5565b6118ff846117da565b8101602085101561190e578190505b61192261191a856117da565b8301826118c1565b50505b505050565b600082821c905092915050565b60006119486000198460080261192a565b1980831691505092915050565b60006119618383611937565b9150826002028217905092915050565b61197a826111c0565b67ffffffffffffffff81111561199357611992611796565b5b61199d8254611641565b6119a88282856118e4565b600060209050601f8311600181146119db57600084156119c9578287015190505b6119d38582611955565b865550611a3b565b601f1984166119e9866117c5565b60005b82811015611a11578489015182556001820191506020850194506020810190506119ec565b86831015611a2e5784890151611a2a601f891682611937565b8355505b6001600288020188555050505b505050505050565b7f4e487b7100000000000000000000000000000000000000000000000000000000600052601160045260246000fd5b6000611a7d82610d9e565b9150611a8883610d9e565b9250828201905080821115611aa057611a9f611a43565b5b9291505056fea2646970667358221220f2b08b770fcb2cacb464dc219d39c57bd836ca3edeef5344d87e2591fd1791f864736f6c634300081c0033",
          "opcodes": "PUSH1 0x80 PUSH1 0x40 MSTORE PUSH1 0x0 DUP1 SSTORE CALLVALUE DUP1 ISZERO PUSH1 0x13 JUMPI PUSH1 0x0 DUP1 REVERT JUMPDEST POP CALLER PUSH1 0x4 PUSH1 0x0 PUSH2 0x100 EXP DUP2 SLOAD DUP2 PUSH20 0xFFFFFFFFFFFFFFFFFFFFFFFFFFFFFFFFFFFFFFFF MUL NOT AND SWAP1 DUP4 PUSH20 0xFFFFFFFFFFFFFFFFFFFFFFFFFFFFFFFFFFFFFFFF AND MUL OR SWAP1 SSTORE POP PUSH2 0x1ADC DUP1 PUSH2 0x64 PUSH1 0x0 CODECOPY PUSH1 0x0 RETURN INVALID PUSH1 0x80 PUSH1 0x40 MSTORE CALLVALUE DUP1 ISZERO PUSH2 0x10 JUMPI PUSH1 0x0 DUP1 REVERT JUMPDEST POP PUSH1 0x4 CALLDATASIZE LT PUSH2 0x9E JUMPI PUSH1 0x0 CALLDATALOAD PUSH1 0xE0 SHR DUP1 PUSH4 0xBC125012 GT PUSH2 0x66 JUMPI DUP1 PUSH4 0xBC125012 EQ PUSH2 0x184 JUMPI DUP1 PUSH4 0xC4A8B5D5 EQ PUSH2 0x1B4 JUMPI DUP1 PUSH4 0xD335CCFA EQ PUSH2 0x1D2 JUMPI DUP1 PUSH4 0xE86CE709 EQ PUSH2 0x205 JUMPI DUP1 PUSH4 0xF851A440 EQ PUSH2 0x221 JUMPI PUSH2 0x9E JUMP JUMPDEST DUP1 PUSH4 0x1584FD05 EQ PUSH2 0xA3 JUMPI DUP1 PUSH4 0x4E5D37A9 EQ PUSH2 0xD3 JUMPI DUP1 PUSH4 0x50208EEE EQ PUSH2 0x103 JUMPI DUP1 PUSH4 0x5524A0B7 EQ PUSH2 0x133 JUMPI DUP1 PUSH4 0x6813B53B EQ PUSH2 0x14F JUMPI JUMPDEST PUSH1 0x0 DUP1 REVERT JUMPDEST PUSH2 0xBD PUSH1 0x4 DUP1 CALLDATASIZE SUB DUP2 ADD SWAP1 PUSH2 0xB8 SWAP2 SWAP1 PUSH2 0xDD4 JUMP JUMPDEST PUSH2 0x23F JUMP JUMPDEST PUSH1 0x40 MLOAD PUSH2 0xCA SWAP2 SWAP1 PUSH2 0xE1C JUMP JUMPDEST PUSH1 0x40 MLOAD DUP1 SWAP2 SUB SWAP1 RETURN JUMPDEST PUSH2 0xED PUSH1 0x4 DUP1 CALLDATASIZE SUB DUP2 ADD SWAP1 PUSH2 0xE8 SWAP2 SWAP1 PUSH2 0xE95 JUMP JUMPDEST PUSH2 0x262 JUMP JUMPDEST PUSH1 0x40 MLOAD PUSH2 0xFA SWAP2 SWAP1 PUSH2 0xE1C JUMP JUMPDEST PUSH1 0x40 MLOAD DUP1 SWAP2 SUB SWAP1 RETURN JUMPDEST PUSH2 0x11D PUSH1 0x4 DUP1 CALLDATASIZE SUB DUP2 ADD SWAP1 PUSH2 0x118 SWAP2 SWAP1 PUSH2 0xE95 JUMP JUMPDEST PUSH2 0x2FD JUMP JUMPDEST PUSH1 0x40 MLOAD PUSH2 0x12A SWAP2 SWAP1 PUSH2 0xED1 JUMP JUMPDEST PUSH1 0x40 MLOAD DUP1 SWAP2 SUB SWAP1 RETURN JUMPDEST PUSH2 0x14D PUSH1 0x4 DUP1 CALLDATASIZE SUB DUP2 ADD SWAP1 PUSH2 0x148 SWAP2 SWAP1 PUSH2 0xF36 JUMP JUMPDEST PUSH2 0x3E3 JUMP JUMPDEST STOP JUMPDEST PUSH2 0x169 PUSH1 0x4 DUP1 CALLDATASIZE SUB DUP2 ADD SWAP1 PUSH2 0x164 SWAP2 SWAP1 PUSH2 0xDD4 JUMP JUMPDEST PUSH2 0x629 JUMP JUMPDEST PUSH1 0x40 MLOAD PUSH2 0x17B SWAP7 SWAP6 SWAP5 SWAP4 SWAP3 SWAP2 SWAP1 PUSH2 0x107F JUMP JUMPDEST PUSH1 0x40 MLOAD DUP1 SWAP2 SUB SWAP1 RETURN JUMPDEST PUSH2 0x19E PUSH1 0x4 DUP1 CALLDATASIZE SUB DUP2 ADD SWAP1 PUSH2 0x199 SWAP2 SWAP1 PUSH2 0xE95 JUMP JUMPDEST PUSH2 0x73D JUMP JUMPDEST PUSH1 0x40 MLOAD PUSH2 0x1AB SWAP2 SWAP1 PUSH2 0x119E JUMP JUMPDEST PUSH1 0x40 MLOAD DUP1 SWAP2 SUB SWAP1 RETURN JUMPDEST PUSH2 0x1BC PUSH2 0x81C JUMP JUMPDEST PUSH1 0x40 MLOAD PUSH2 0x1C9 SWAP2 SWAP1 PUSH2 0xED1 JUMP JUMPDEST PUSH1 0x40 MLOAD DUP1 SWAP2 SUB SWAP1 RETURN JUMPDEST PUSH2 0x1EC PUSH1 0x4 DUP1 CALLDATASIZE SUB DUP2 ADD SWAP1 PUSH2 0x1E7 SWAP2 SWAP1 PUSH2 0xE95 JUMP JUMPDEST PUSH2 0x825 JUMP JUMPDEST PUSH1 0x40 MLOAD PUSH2 0x1FC SWAP5 SWAP4 SWAP3 SWAP2 SWAP1 PUSH2 0x1250 JUMP JUMPDEST PUSH1 0x40 MLOAD DUP1 SWAP2 SUB SWAP1 RETURN JUMPDEST PUSH2 0x21F PUSH1 0x4 DUP1 CALLDATASIZE SUB DUP2 ADD SWAP1 PUSH2 0x21A SWAP2 SWAP1 PUSH2 0x1308 JUMP JUMPDEST PUSH2 0xA5C JUMP JUMPDEST STOP JUMPDEST PUSH2 0x229 PUSH2 0xCC3 JUMP JUMPDEST PUSH1 0x40 MLOAD PUSH2 0x236 SWAP2 SWAP1 PUSH2 0x13AF JUMP JUMPDEST PUSH1 0x40 MLOAD DUP1 SWAP2 SUB SWAP1 RETURN JUMPDEST PUSH1 0x0 DUP1 PUSH1 0x2 PUSH1 0x0 DUP5 DUP2 MSTORE PUSH1 0x20 ADD SWAP1 DUP2 MSTORE PUSH1 0x20 ADD PUSH1 0x0 KECCAK256 PUSH1 0x0 ADD SLOAD EQ ISZERO SWAP1 POP SWAP2 SWAP1 POP JUMP JUMPDEST PUSH1 0x0 DUP1 PUSH20 0xFFFFFFFFFFFFFFFFFFFFFFFFFFFFFFFFFFFFFFFF AND PUSH1 0x3 PUSH1 0x0 DUP5 PUSH20 0xFFFFFFFFFFFFFFFFFFFFFFFFFFFFFFFFFFFFFFFF AND PUSH20 0xFFFFFFFFFFFFFFFFFFFFFFFFFFFFFFFFFFFFFFFF AND DUP2 MSTORE PUSH1 0x20 ADD SWAP1 DUP2 MSTORE PUSH1 0x20 ADD PUSH1 0x0 KECCAK256 PUSH1 0x0 ADD PUSH1 0x0 SWAP1 SLOAD SWAP1 PUSH2 0x100 EXP SWAP1 DIV PUSH20 0xFFFFFFFFFFFFFFFFFFFFFFFFFFFFFFFFFFFFFFFF AND PUSH20 0xFFFFFFFFFFFFFFFFFFFFFFFFFFFFFFFFFFFFFFFF AND EQ ISZERO SWAP1 POP SWAP2 SWAP1 POP JUMP JUMPDEST PUSH1 0x0 PUSH2 0x308 DUP3 PUSH2 0x262 JUMP JUMPDEST PUSH2 0x347 JUMPI PUSH1 0x40 MLOAD PUSH32 0x8C379A000000000000000000000000000000000000000000000000000000000 DUP2 MSTORE PUSH1 0x4 ADD PUSH2 0x33E SWAP1 PUSH2 0x143C JUMP JUMPDEST PUSH1 0x40 MLOAD DUP1 SWAP2 SUB SWAP1 REVERT JUMPDEST PUSH1 0x0 PUSH1 0x1 PUSH1 0x0 DUP5 PUSH20 0xFFFFFFFFFFFFFFFFFFFFFFFFFFFFFFFFFFFFFFFF AND PUSH20 0xFFFFFFFFFFFFFFFFFFFFFFFFFFFFFFFFFFFFFFFF AND DUP2 MSTORE PUSH1 0x20 ADD SWAP1 DUP2 MSTORE PUSH1 0x20 ADD PUSH1 0x0 KECCAK256 DUP1 SLOAD DUP1 PUSH1 0x20 MUL PUSH1 0x20 ADD PUSH1 0x40 MLOAD SWAP1 DUP2 ADD PUSH1 0x40 MSTORE DUP1 SWAP3 SWAP2 SWAP1 DUP2 DUP2 MSTORE PUSH1 0x20 ADD DUP3 DUP1 SLOAD DUP1 ISZERO PUSH2 0x3D2 JUMPI PUSH1 0x20 MUL DUP3 ADD SWAP2 SWAP1 PUSH1 0x0 MSTORE PUSH1 0x20 PUSH1 0x0 KECCAK256 SWAP1 JUMPDEST DUP2 SLOAD DUP2 MSTORE PUSH1 0x20 ADD SWAP1 PUSH1 0x1 ADD SWAP1 DUP1 DUP4 GT PUSH2 0x3BE JUMPI JUMPDEST POP POP POP POP POP SWAP1 POP DUP1 MLOAD SWAP2 POP POP SWAP2 SWAP1 POP JUMP JUMPDEST PUSH2 0x3EC CALLER PUSH2 0x262 JUMP JUMPDEST PUSH2 0x42B JUMPI PUSH1 0x40 MLOAD PUSH32 0x8C379A000000000000000000000000000000000000000000000000000000000 DUP2 MSTORE PUSH1 0x4 ADD PUSH2 0x422 SWAP1 PUSH2 0x14CE JUMP JUMPDEST PUSH1 0x40 MLOAD DUP1 SWAP2 SUB SWAP1 REVERT JUMPDEST PUSH2 0x434 DUP6 PUSH2 0x23F JUMP JUMPDEST ISZERO PUSH2 0x474 JUMPI PUSH1 0x40 MLOAD PUSH32 0x8C379A000000000000000000000000000000000000000000000000000000000 DUP2 MSTORE PUSH1 0x4 ADD PUSH2 0x46B SWAP1 PUSH2 0x1560 JUMP JUMPDEST PUSH1 0x40 MLOAD DUP1 SWAP2 SUB SWAP1 REVERT JUMPDEST PUSH1 0x0 CALLER SWAP1 POP PUSH1 0x1 PUSH1 0x0 DUP3 PUSH20 0xFFFFFFFFFFFFFFFFFFFFFFFFFFFFFFFFFFFFFFFF AND PUSH20 0xFFFFFFFFFFFFFFFFFFFFFFFFFFFFFFFFFFFFFFFF AND DUP2 MSTORE PUSH1 0x20 ADD SWAP1 DUP2 MSTORE PUSH1 0x20 ADD PUSH1 0x0 KECCAK256 DUP7 SWAP1 DUP1 PUSH1 0x1 DUP2 SLOAD ADD DUP1 DUP3 SSTORE DUP1 SWAP2 POP POP PUSH1 0x1 SWAP1 SUB SWAP1 PUSH1 0x0 MSTORE PUSH1 0x20 PUSH1 0x0 KECCAK256 ADD PUSH1 0x0 SWAP1 SWAP2 SWAP1 SWAP2 SWAP1 SWAP2 POP SSTORE PUSH1 0x40 MLOAD DUP1 PUSH1 0xC0 ADD PUSH1 0x40 MSTORE DUP1 DUP8 DUP2 MSTORE PUSH1 0x20 ADD DUP7 DUP2 MSTORE PUSH1 0x20 ADD DUP3 PUSH20 0xFFFFFFFFFFFFFFFFFFFFFFFFFFFFFFFFFFFFFFFF AND DUP2 MSTORE PUSH1 0x20 ADD DUP6 PUSH1 0x2 DUP2 GT ISZERO PUSH2 0x525 JUMPI PUSH2 0x524 PUSH2 0xFC0 JUMP JUMPDEST JUMPDEST DUP2 MSTORE PUSH1 0x20 ADD DUP5 DUP2 MSTORE PUSH1 0x20 ADD DUP4 PUSH1 0x3 DUP2 GT ISZERO PUSH2 0x543 JUMPI PUSH2 0x542 PUSH2 0xFC0 JUMP JUMPDEST JUMPDEST DUP2 MSTORE POP PUSH1 0x2 PUSH1 0x0 DUP9 DUP2 MSTORE PUSH1 0x20 ADD SWAP1 DUP2 MSTORE PUSH1 0x20 ADD PUSH1 0x0 KECCAK256 PUSH1 0x0 DUP3 ADD MLOAD DUP2 PUSH1 0x0 ADD SSTORE PUSH1 0x20 DUP3 ADD MLOAD DUP2 PUSH1 0x1 ADD SSTORE PUSH1 0x40 DUP3 ADD MLOAD DUP2 PUSH1 0x2 ADD PUSH1 0x0 PUSH2 0x100 EXP DUP2 SLOAD DUP2 PUSH20 0xFFFFFFFFFFFFFFFFFFFFFFFFFFFFFFFFFFFFFFFF MUL NOT AND SWAP1 DUP4 PUSH20 0xFFFFFFFFFFFFFFFFFFFFFFFFFFFFFFFFFFFFFFFF AND MUL OR SWAP1 SSTORE POP PUSH1 0x60 DUP3 ADD MLOAD DUP2 PUSH1 0x2 ADD PUSH1 0x14 PUSH2 0x100 EXP DUP2 SLOAD DUP2 PUSH1 0xFF MUL NOT AND SWAP1 DUP4 PUSH1 0x2 DUP2 GT ISZERO PUSH2 0x5DF JUMPI PUSH2 0x5DE PUSH2 0xFC0 JUMP JUMPDEST JUMPDEST MUL OR SWAP1 SSTORE POP PUSH1 0x80 DUP3 ADD MLOAD DUP2 PUSH1 0x3 ADD SSTORE PUSH1 0xA0 DUP3 ADD MLOAD DUP2 PUSH1 0x4 ADD PUSH1 0x0 PUSH2 0x100 EXP DUP2 SLOAD DUP2 PUSH1 0xFF MUL NOT AND SWAP1 DUP4 PUSH1 0x3 DUP2 GT ISZERO PUSH2 0x619 JUMPI PUSH2 0x618 PUSH2 0xFC0 JUMP JUMPDEST JUMPDEST MUL OR SWAP1 SSTORE POP SWAP1 POP POP POP POP POP POP POP POP JUMP JUMPDEST PUSH1 0x0 DUP1 PUSH1 0x0 DUP1 PUSH1 0x0 DUP1 PUSH2 0x63B DUP8 PUSH2 0x23F JUMP JUMPDEST PUSH2 0x67A JUMPI PUSH1 0x40 MLOAD PUSH32 0x8C379A000000000000000000000000000000000000000000000000000000000 DUP2 MSTORE PUSH1 0x4 ADD PUSH2 0x671 SWAP1 PUSH2 0x15F2 JUMP JUMPDEST PUSH1 0x40 MLOAD DUP1 SWAP2 SUB SWAP1 REVERT JUMPDEST DUP7 SWAP6 POP PUSH1 0x2 PUSH1 0x0 DUP8 DUP2 MSTORE PUSH1 0x20 ADD SWAP1 DUP2 MSTORE PUSH1 0x20 ADD PUSH1 0x0 KECCAK256 PUSH1 0x1 ADD SLOAD SWAP5 POP PUSH1 0x2 PUSH1 0x0 DUP8 DUP2 MSTORE PUSH1 0x20 ADD SWAP1 DUP2 MSTORE PUSH1 0x20 ADD PUSH1 0x0 KECCAK256 PUSH1 0x2 ADD PUSH1 0x0 SWAP1 SLOAD SWAP1 PUSH2 0x100 EXP SWAP1 DIV PUSH20 0xFFFFFFFFFFFFFFFFFFFFFFFFFFFFFFFFFFFFFFFF AND SWAP4 POP PUSH1 0x2 PUSH1 0x0 DUP8 DUP2 MSTORE PUSH1 0x20 ADD SWAP1 DUP2 MSTORE PUSH1 0x20 ADD PUSH1 0x0 KECCAK256 PUSH1 0x2 ADD PUSH1 0x14 SWAP1 SLOAD SWAP1 PUSH2 0x100 EXP SWAP1 DIV PUSH1 0xFF AND SWAP3 POP PUSH1 0x2 PUSH1 0x0 DUP8 DUP2 MSTORE PUSH1 0x20 ADD SWAP1 DUP2 MSTORE PUSH1 0x20 ADD PUSH1 0x0 KECCAK256 PUSH1 0x3 ADD SLOAD SWAP2 POP PUSH1 0x2 PUSH1 0x0 DUP8 DUP2 MSTORE PUSH1 0x20 ADD SWAP1 DUP2 MSTORE PUSH1 0x20 ADD PUSH1 0x0 KECCAK256 PUSH1 0x4 ADD PUSH1 0x0 SWAP1 SLOAD SWAP1 PUSH2 0x100 EXP SWAP1 DIV PUSH1 0xFF AND SWAP1 POP SWAP2 SWAP4 SWAP6 POP SWAP2 SWAP4 SWAP6 JUMP JUMPDEST PUSH1 0x60 PUSH2 0x748 DUP3 PUSH2 0x262 JUMP JUMPDEST PUSH2 0x787 JUMPI PUSH1 0x40 MLOAD PUSH32 0x8C379A000000000000000000000000000000000000000000000000000000000 DUP2 MSTORE PUSH1 0x4 ADD PUSH2 0x77E SWAP1 PUSH2 0x143C JUMP JUMPDEST PUSH1 0x40 MLOAD DUP1 SWAP2 SUB SWAP1 REVERT JUMPDEST PUSH1 0x1 PUSH1 0x0 DUP4 PUSH20 0xFFFFFFFFFFFFFFFFFFFFFFFFFFFFFFFFFFFFFFFF AND PUSH20 0xFFFFFFFFFFFFFFFFFFFFFFFFFFFFFFFFFFFFFFFF AND DUP2 MSTORE PUSH1 0x20 ADD SWAP1 DUP2 MSTORE PUSH1 0x20 ADD PUSH1 0x0 KECCAK256 DUP1 SLOAD DUP1 PUSH1 0x20 MUL PUSH1 0x20 ADD PUSH1 0x40 MLOAD SWAP1 DUP2 ADD PUSH1 0x40 MSTORE DUP1 SWAP3 SWAP2 SWAP1 DUP2 DUP2 MSTORE PUSH1 0x20 ADD DUP3 DUP1 SLOAD DUP1 ISZERO PUSH2 0x810 JUMPI PUSH1 0x20 MUL DUP3 ADD SWAP2 SWAP1 PUSH1 0x0 MSTORE PUSH1 0x20 PUSH1 0x0 KECCAK256 SWAP1 JUMPDEST DUP2 SLOAD DUP2 MSTORE PUSH1 0x20 ADD SWAP1 PUSH1 0x1 ADD SWAP1 DUP1 DUP4 GT PUSH2 0x7FC JUMPI JUMPDEST POP POP POP POP POP SWAP1 POP SWAP2 SWAP1 POP JUMP JUMPDEST PUSH1 0x0 DUP1 SLOAD SWAP1 POP SWAP1 JUMP JUMPDEST PUSH1 0x0 DUP1 PUSH1 0x60 DUP1 PUSH2 0x834 DUP6 PUSH2 0x262 JUMP JUMPDEST PUSH2 0x873 JUMPI PUSH1 0x40 MLOAD PUSH32 0x8C379A000000000000000000000000000000000000000000000000000000000 DUP2 MSTORE PUSH1 0x4 ADD PUSH2 0x86A SWAP1 PUSH2 0x143C JUMP JUMPDEST PUSH1 0x40 MLOAD DUP1 SWAP2 SUB SWAP1 REVERT JUMPDEST DUP5 SWAP4 POP PUSH1 0x3 PUSH1 0x0 DUP7 PUSH20 0xFFFFFFFFFFFFFFFFFFFFFFFFFFFFFFFFFFFFFFFF AND PUSH20 0xFFFFFFFFFFFFFFFFFFFFFFFFFFFFFFFFFFFFFFFF AND DUP2 MSTORE PUSH1 0x20 ADD SWAP1 DUP2 MSTORE PUSH1 0x20 ADD PUSH1 0x0 KECCAK256 PUSH1 0x1 ADD SLOAD SWAP3 POP PUSH1 0x3 PUSH1 0x0 DUP7 PUSH20 0xFFFFFFFFFFFFFFFFFFFFFFFFFFFFFFFFFFFFFFFF AND PUSH20 0xFFFFFFFFFFFFFFFFFFFFFFFFFFFFFFFFFFFFFFFF AND DUP2 MSTORE PUSH1 0x20 ADD SWAP1 DUP2 MSTORE PUSH1 0x20 ADD PUSH1 0x0 KECCAK256 PUSH1 0x2 ADD DUP1 SLOAD PUSH2 0x908 SWAP1 PUSH2 0x1641 JUMP JUMPDEST DUP1 PUSH1 0x1F ADD PUSH1 0x20 DUP1 SWAP2 DIV MUL PUSH1 0x20 ADD PUSH1 0x40 MLOAD SWAP1 DUP2 ADD PUSH1 0x40 MSTORE DUP1 SWAP3 SWAP2 SWAP1 DUP2 DUP2 MSTORE PUSH1 0x20 ADD DUP3 DUP1 SLOAD PUSH2 0x934 SWAP1 PUSH2 0x1641 JUMP JUMPDEST DUP1 ISZERO PUSH2 0x981 JUMPI DUP1 PUSH1 0x1F LT PUSH2 0x956 JUMPI PUSH2 0x100 DUP1 DUP4 SLOAD DIV MUL DUP4 MSTORE SWAP2 PUSH1 0x20 ADD SWAP2 PUSH2 0x981 JUMP JUMPDEST DUP3 ADD SWAP2 SWAP1 PUSH1 0x0 MSTORE PUSH1 0x20 PUSH1 0x0 KECCAK256 SWAP1 JUMPDEST DUP2 SLOAD DUP2 MSTORE SWAP1 PUSH1 0x1 ADD SWAP1 PUSH1 0x20 ADD DUP1 DUP4 GT PUSH2 0x964 JUMPI DUP3 SWAP1 SUB PUSH1 0x1F AND DUP3 ADD SWAP2 JUMPDEST POP POP POP POP POP SWAP2 POP PUSH1 0x3 PUSH1 0x0 DUP7 PUSH20 0xFFFFFFFFFFFFFFFFFFFFFFFFFFFFFFFFFFFFFFFF AND PUSH20 0xFFFFFFFFFFFFFFFFFFFFFFFFFFFFFFFFFFFFFFFF AND DUP2 MSTORE PUSH1 0x20 ADD SWAP1 DUP2 MSTORE PUSH1 0x20 ADD PUSH1 0x0 KECCAK256 PUSH1 0x3 ADD DUP1 SLOAD PUSH2 0x9D5 SWAP1 PUSH2 0x1641 JUMP JUMPDEST DUP1 PUSH1 0x1F ADD PUSH1 0x20 DUP1 SWAP2 DIV MUL PUSH1 0x20 ADD PUSH1 0x40 MLOAD SWAP1 DUP2 ADD PUSH1 0x40 MSTORE DUP1 SWAP3 SWAP2 SWAP1 DUP2 DUP2 MSTORE PUSH1 0x20 ADD DUP3 DUP1 SLOAD PUSH2 0xA01 SWAP1 PUSH2 0x1641 JUMP JUMPDEST DUP1 ISZERO PUSH2 0xA4E JUMPI DUP1 PUSH1 0x1F LT PUSH2 0xA23 JUMPI PUSH2 0x100 DUP1 DUP4 SLOAD DIV MUL DUP4 MSTORE SWAP2 PUSH1 0x20 ADD SWAP2 PUSH2 0xA4E JUMP JUMPDEST DUP3 ADD SWAP2 SWAP1 PUSH1 0x0 MSTORE PUSH1 0x20 PUSH1 0x0 KECCAK256 SWAP1 JUMPDEST DUP2 SLOAD DUP2 MSTORE SWAP1 PUSH1 0x1 ADD SWAP1 PUSH1 0x20 ADD DUP1 DUP4 GT PUSH2 0xA31 JUMPI DUP3 SWAP1 SUB PUSH1 0x1F AND DUP3 ADD SWAP2 JUMPDEST POP POP POP POP POP SWAP1 POP SWAP2 SWAP4 POP SWAP2 SWAP4 JUMP JUMPDEST PUSH1 0x4 PUSH1 0x0 SWAP1 SLOAD SWAP1 PUSH2 0x100 EXP SWAP1 DIV PUSH20 0xFFFFFFFFFFFFFFFFFFFFFFFFFFFFFFFFFFFFFFFF AND PUSH20 0xFFFFFFFFFFFFFFFFFFFFFFFFFFFFFFFFFFFFFFFF AND CALLER PUSH20 0xFFFFFFFFFFFFFFFFFFFFFFFFFFFFFFFFFFFFFFFF AND EQ PUSH2 0xAEC JUMPI PUSH1 0x40 MLOAD PUSH32 0x8C379A000000000000000000000000000000000000000000000000000000000 DUP2 MSTORE PUSH1 0x4 ADD PUSH2 0xAE3 SWAP1 PUSH2 0x16E4 JUMP JUMPDEST PUSH1 0x40 MLOAD DUP1 SWAP2 SUB SWAP1 REVERT JUMPDEST PUSH2 0xAF5 DUP7 PUSH2 0x262 JUMP JUMPDEST ISZERO PUSH2 0xB35 JUMPI PUSH1 0x40 MLOAD PUSH32 0x8C379A000000000000000000000000000000000000000000000000000000000 DUP2 MSTORE PUSH1 0x4 ADD PUSH2 0xB2C SWAP1 PUSH2 0x1776 JUMP JUMPDEST PUSH1 0x40 MLOAD DUP1 SWAP2 SUB SWAP1 REVERT JUMPDEST PUSH1 0x40 MLOAD DUP1 PUSH1 0x80 ADD PUSH1 0x40 MSTORE DUP1 DUP8 PUSH20 0xFFFFFFFFFFFFFFFFFFFFFFFFFFFFFFFFFFFFFFFF AND DUP2 MSTORE PUSH1 0x20 ADD DUP7 DUP2 MSTORE PUSH1 0x20 ADD DUP6 DUP6 DUP1 DUP1 PUSH1 0x1F ADD PUSH1 0x20 DUP1 SWAP2 DIV MUL PUSH1 0x20 ADD PUSH1 0x40 MLOAD SWAP1 DUP2 ADD PUSH1 0x40 MSTORE DUP1 SWAP4 SWAP3 SWAP2 SWAP1 DUP2 DUP2 MSTORE PUSH1 0x20 ADD DUP4 DUP4 DUP1 DUP3 DUP5 CALLDATACOPY PUSH1 0x0 DUP2 DUP5 ADD MSTORE PUSH1 0x1F NOT PUSH1 0x1F DUP3 ADD AND SWAP1 POP DUP1 DUP4 ADD SWAP3 POP POP POP POP POP POP POP DUP2 MSTORE PUSH1 0x20 ADD DUP4 DUP4 DUP1 DUP1 PUSH1 0x1F ADD PUSH1 0x20 DUP1 SWAP2 DIV MUL PUSH1 0x20 ADD PUSH1 0x40 MLOAD SWAP1 DUP2 ADD PUSH1 0x40 MSTORE DUP1 SWAP4 SWAP3 SWAP2 SWAP1 DUP2 DUP2 MSTORE PUSH1 0x20 ADD DUP4 DUP4 DUP1 DUP3 DUP5 CALLDATACOPY PUSH1 0x0 DUP2 DUP5 ADD MSTORE PUSH1 0x1F NOT PUSH1 0x1F DUP3 ADD AND SWAP1 POP DUP1 DUP4 ADD SWAP3 POP POP POP POP POP POP POP DUP2 MSTORE POP PUSH1 0x3 PUSH1 0x0 DUP9 PUSH20 0xFFFFFFFFFFFFFFFFFFFFFFFFFFFFFFFFFFFFFFFF AND PUSH20 0xFFFFFFFFFFFFFFFFFFFFFFFFFFFFFFFFFFFFFFFF AND DUP2 MSTORE PUSH1 0x20 ADD SWAP1 DUP2 MSTORE PUSH1 0x20 ADD PUSH1 0x0 KECCAK256 PUSH1 0x0 DUP3 ADD MLOAD DUP2 PUSH1 0x0 ADD PUSH1 0x0 PUSH2 0x100 EXP DUP2 SLOAD DUP2 PUSH20 0xFFFFFFFFFFFFFFFFFFFFFFFFFFFFFFFFFFFFFFFF MUL NOT AND SWAP1 DUP4 PUSH20 0xFFFFFFFFFFFFFFFFFFFFFFFFFFFFFFFFFFFFFFFF AND MUL OR SWAP1 SSTORE POP PUSH1 0x20 DUP3 ADD MLOAD DUP2 PUSH1 0x1 ADD SSTORE PUSH1 0x40 DUP3 ADD MLOAD DUP2 PUSH1 0x2 ADD SWAP1 DUP2 PUSH2 0xC99 SWAP2 SWAP1 PUSH2 0x1971 JUMP JUMPDEST POP PUSH1 0x60 DUP3 ADD MLOAD DUP2 PUSH1 0x3 ADD SWAP1 DUP2 PUSH2 0xCAF SWAP2 SWAP1 PUSH2 0x1971 JUMP JUMPDEST POP SWAP1 POP POP PUSH2 0xCBB PUSH2 0xCE9 JUMP JUMPDEST POP POP POP POP POP POP JUMP JUMPDEST PUSH1 0x4 PUSH1 0x0 SWAP1 SLOAD SWAP1 PUSH2 0x100 EXP SWAP1 DIV PUSH20 0xFFFFFFFFFFFFFFFFFFFFFFFFFFFFFFFFFFFFFFFF AND DUP2 JUMP JUMPDEST PUSH1 0x4 PUSH1 0x0 SWAP1 SLOAD SWAP1 PUSH2 0x100 EXP SWAP1 DIV PUSH20 0xFFFFFFFFFFFFFFFFFFFFFFFFFFFFFFFFFFFFFFFF AND PUSH20 0xFFFFFFFFFFFFFFFFFFFFFFFFFFFFFFFFFFFFFFFF AND CALLER PUSH20 0xFFFFFFFFFFFFFFFFFFFFFFFFFFFFFFFFFFFFFFFF AND EQ PUSH2 0xD79 JUMPI PUSH1 0x40 MLOAD PUSH32 0x8C379A000000000000000000000000000000000000000000000000000000000 DUP2 MSTORE PUSH1 0x4 ADD PUSH2 0xD70 SWAP1 PUSH2 0x16E4 JUMP JUMPDEST PUSH1 0x40 MLOAD DUP1 SWAP2 SUB SWAP1 REVERT JUMPDEST PUSH1 0x1 PUSH1 0x0 DUP1 DUP3 DUP3 SLOAD PUSH2 0xD8B SWAP2 SWAP1 PUSH2 0x1A72 JUMP JUMPDEST SWAP3 POP POP DUP2 SWAP1 SSTORE POP JUMP JUMPDEST PUSH1 0x0 DUP1 REVERT JUMPDEST PUSH1 0x0 DUP1 REVERT JUMPDEST PUSH1 0x0 DUP2 SWAP1 POP SWAP2 SWAP1 POP JUMP JUMPDEST PUSH2 0xDB1 DUP2 PUSH2 0xD9E JUMP JUMPDEST DUP2 EQ PUSH2 0xDBC JUMPI PUSH1 0x0 DUP1 REVERT JUMPDEST POP JUMP JUMPDEST PUSH1 0x0 DUP2 CALLDATALOAD SWAP1 POP PUSH2 0xDCE DUP2 PUSH2 0xDA8 JUMP JUMPDEST SWAP3 SWAP2 POP POP JUMP JUMPDEST PUSH1 0x0 PUSH1 0x20 DUP3 DUP5 SUB SLT ISZERO PUSH2 0xDEA JUMPI PUSH2 0xDE9 PUSH2 0xD94 JUMP JUMPDEST JUMPDEST PUSH1 0x0 PUSH2 0xDF8 DUP5 DUP3 DUP6 ADD PUSH2 0xDBF JUMP JUMPDEST SWAP2 POP POP SWAP3 SWAP2 POP POP JUMP JUMPDEST PUSH1 0x0 DUP2 ISZERO ISZERO SWAP1 POP SWAP2 SWAP1 POP JUMP JUMPDEST PUSH2 0xE16 DUP2 PUSH2 0xE01 JUMP JUMPDEST DUP3 MSTORE POP POP JUMP JUMPDEST PUSH1 0x0 PUSH1 0x20 DUP3 ADD SWAP1 POP PUSH2 0xE31 PUSH1 0x0 DUP4 ADD DUP5 PUSH2 0xE0D JUMP JUMPDEST SWAP3 SWAP2 POP POP JUMP JUMPDEST PUSH1 0x0 PUSH20 0xFFFFFFFFFFFFFFFFFFFFFFFFFFFFFFFFFFFFFFFF DUP3 AND SWAP1 POP SWAP2 SWAP1 POP JUMP JUMPDEST PUSH1 0x0 PUSH2 0xE62 DUP3 PUSH2 0xE37 JUMP JUMPDEST SWAP1 POP SWAP2 SWAP1 POP JUMP JUMPDEST PUSH2 0xE72 DUP2 PUSH2 0xE57 JUMP JUMPDEST DUP2 EQ PUSH2 0xE7D JUMPI PUSH1 0x0 DUP1 REVERT JUMPDEST POP JUMP JUMPDEST PUSH1 0x0 DUP2 CALLDATALOAD SWAP1 POP PUSH2 0xE8F DUP2 PUSH2 0xE69 JUMP JUMPDEST SWAP3 SWAP2 POP POP JUMP JUMPDEST PUSH1 0x0 PUSH1 0x20 DUP3 DUP5 SUB SLT ISZERO PUSH2 0xEAB JUMPI PUSH2 0xEAA PUSH2 0xD94 JUMP JUMPDEST JUMPDEST PUSH1 0x0 PUSH2 0xEB9 DUP5 DUP3 DUP6 ADD PUSH2 0xE80 JUMP JUMPDEST SWAP2 POP POP SWAP3 SWAP2 POP POP JUMP JUMPDEST PUSH2 0xECB DUP2 PUSH2 0xD9E JUMP JUMPDEST DUP3 MSTORE POP POP JUMP JUMPDEST PUSH1 0x0 PUSH1 0x20 DUP3 ADD SWAP1 POP PUSH2 0xEE6 PUSH1 0x0 DUP4 ADD DUP5 PUSH2 0xEC2 JUMP JUMPDEST SWAP3 SWAP2 POP POP JUMP JUMPDEST PUSH1 0x3 DUP2 LT PUSH2 0xEF9 JUMPI PUSH1 0x0 DUP1 REVERT JUMPDEST POP JUMP JUMPDEST PUSH1 0x0 DUP2 CALLDATALOAD SWAP1 POP PUSH2 0xF0B DUP2 PUSH2 0xEEC JUMP JUMPDEST SWAP3 SWAP2 POP POP JUMP JUMPDEST PUSH1 0x4 DUP2 LT PUSH2 0xF1E JUMPI PUSH1 0x0 DUP1 REVERT JUMPDEST POP JUMP JUMPDEST PUSH1 0x0 DUP2 CALLDATALOAD SWAP1 POP PUSH2 0xF30 DUP2 PUSH2 0xF11 JUMP JUMPDEST SWAP3 SWAP2 POP POP JUMP JUMPDEST PUSH1 0x0 DUP1 PUSH1 0x0 DUP1 PUSH1 0x0 PUSH1 0xA0 DUP7 DUP9 SUB SLT ISZERO PUSH2 0xF52 JUMPI PUSH2 0xF51 PUSH2 0xD94 JUMP JUMPDEST JUMPDEST PUSH1 0x0 PUSH2 0xF60 DUP9 DUP3 DUP10 ADD PUSH2 0xDBF JUMP JUMPDEST SWAP6 POP POP PUSH1 0x20 PUSH2 0xF71 DUP9 DUP3 DUP10 ADD PUSH2 0xDBF JUMP JUMPDEST SWAP5 POP POP PUSH1 0x40 PUSH2 0xF82 DUP9 DUP3 DUP10 ADD PUSH2 0xEFC JUMP JUMPDEST SWAP4 POP POP PUSH1 0x60 PUSH2 0xF93 DUP9 DUP3 DUP10 ADD PUSH2 0xDBF JUMP JUMPDEST SWAP3 POP POP PUSH1 0x80 PUSH2 0xFA4 DUP9 DUP3 DUP10 ADD PUSH2 0xF21 JUMP JUMPDEST SWAP2 POP POP SWAP3 SWAP6 POP SWAP3 SWAP6 SWAP1 SWAP4 POP JUMP JUMPDEST PUSH2 0xFBA DUP2 PUSH2 0xE57 JUMP JUMPDEST DUP3 MSTORE POP POP JUMP JUMPDEST PUSH32 0x4E487B7100000000000000000000000000000000000000000000000000000000 PUSH1 0x0 MSTORE PUSH1 0x21 PUSH1 0x4 MSTORE PUSH1 0x24 PUSH1 0x0 REVERT JUMPDEST PUSH1 0x3 DUP2 LT PUSH2 0x1000 JUMPI PUSH2 0xFFF PUSH2 0xFC0 JUMP JUMPDEST JUMPDEST POP JUMP JUMPDEST PUSH1 0x0 DUP2 SWAP1 POP PUSH2 0x1011 DUP3 PUSH2 0xFEF JUMP JUMPDEST SWAP2 SWAP1 POP JUMP JUMPDEST PUSH1 0x0 PUSH2 0x1021 DUP3 PUSH2 0x1003 JUMP JUMPDEST SWAP1 POP SWAP2 SWAP1 POP JUMP JUMPDEST PUSH2 0x1031 DUP2 PUSH2 0x1016 JUMP JUMPDEST DUP3 MSTORE POP POP JUMP JUMPDEST PUSH1 0x4 DUP2 LT PUSH2 0x1048 JUMPI PUSH2 0x1047 PUSH2 0xFC0 JUMP JUMPDEST JUMPDEST POP JUMP JUMPDEST PUSH1 0x0 DUP2 SWAP1 POP PUSH2 0x1059 DUP3 PUSH2 0x1037 JUMP JUMPDEST SWAP2 SWAP1 POP JUMP JUMPDEST PUSH1 0x0 PUSH2 0x1069 DUP3 PUSH2 0x104B JUMP JUMPDEST SWAP1 POP SWAP2 SWAP1 POP JUMP JUMPDEST PUSH2 0x1079 DUP2 PUSH2 0x105E JUMP JUMPDEST DUP3 MSTORE POP POP JUMP JUMPDEST PUSH1 0x0 PUSH1 0xC0 DUP3 ADD SWAP1 POP PUSH2 0x1094 PUSH1 0x0 DUP4 ADD DUP10 PUSH2 0xEC2 JUMP JUMPDEST PUSH2 0x10A1 PUSH1 0x20 DUP4 ADD DUP9 PUSH2 0xEC2 JUMP JUMPDEST PUSH2 0x10AE PUSH1 0x40 DUP4 ADD DUP8 PUSH2 0xFB1 JUMP JUMPDEST PUSH2 0x10BB PUSH1 0x60 DUP4 ADD DUP7 PUSH2 0x1028 JUMP JUMPDEST PUSH2 0x10C8 PUSH1 0x80 DUP4 ADD DUP6 PUSH2 0xEC2 JUMP JUMPDEST PUSH2 0x10D5 PUSH1 0xA0 DUP4 ADD DUP5 PUSH2 0x1070 JUMP JUMPDEST SWAP8 SWAP7 POP POP POP POP POP POP POP JUMP JUMPDEST PUSH1 0x0 DUP2 MLOAD SWAP1 POP SWAP2 SWAP1 POP JUMP JUMPDEST PUSH1 0x0 DUP3 DUP3 MSTORE PUSH1 0x20 DUP3 ADD SWAP1 POP SWAP3 SWAP2 POP POP JUMP JUMPDEST PUSH1 0x0 DUP2 SWAP1 POP PUSH1 0x20 DUP3 ADD SWAP1 POP SWAP2 SWAP1 POP JUMP JUMPDEST PUSH2 0x1115 DUP2 PUSH2 0xD9E JUMP JUMPDEST DUP3 MSTORE POP POP JUMP JUMPDEST PUSH1 0x0 PUSH2 0x1127 DUP4 DUP4 PUSH2 0x110C JUMP JUMPDEST PUSH1 0x20 DUP4 ADD SWAP1 POP SWAP3 SWAP2 POP POP JUMP JUMPDEST PUSH1 0x0 PUSH1 0x20 DUP3 ADD SWAP1 POP SWAP2 SWAP1 POP JUMP JUMPDEST PUSH1 0x0 PUSH2 0x114B DUP3 PUSH2 0x10E0 JUMP JUMPDEST PUSH2 0x1155 DUP2 DUP6 PUSH2 0x10EB JUMP JUMPDEST SWAP4 POP PUSH2 0x1160 DUP4 PUSH2 0x10FC JUMP JUMPDEST DUP1 PUSH1 0x0 JUMPDEST DUP4 DUP2 LT ISZERO PUSH2 0x1191 JUMPI DUP2 MLOAD PUSH2 0x1178 DUP9 DUP3 PUSH2 0x111B JUMP JUMPDEST SWAP8 POP PUSH2 0x1183 DUP4 PUSH2 0x1133 JUMP JUMPDEST SWAP3 POP POP PUSH1 0x1 DUP2 ADD SWAP1 POP PUSH2 0x1164 JUMP JUMPDEST POP DUP6 SWAP4 POP POP POP POP SWAP3 SWAP2 POP POP JUMP JUMPDEST PUSH1 0x0 PUSH1 0x20 DUP3 ADD SWAP1 POP DUP2 DUP2 SUB PUSH1 0x0 DUP4 ADD MSTORE PUSH2 0x11B8 DUP2 DUP5 PUSH2 0x1140 JUMP JUMPDEST SWAP1 POP SWAP3 SWAP2 POP POP JUMP JUMPDEST PUSH1 0x0 DUP2 MLOAD SWAP1 POP SWAP2 SWAP1 POP JUMP JUMPDEST PUSH1 0x0 DUP3 DUP3 MSTORE PUSH1 0x20 DUP3 ADD SWAP1 POP SWAP3 SWAP2 POP POP JUMP JUMPDEST PUSH1 0x0 JUMPDEST DUP4 DUP2 LT ISZERO PUSH2 0x11FA JUMPI DUP1 DUP3 ADD MLOAD DUP2 DUP5 ADD MSTORE PUSH1 0x20 DUP2 ADD SWAP1 POP PUSH2 0x11DF JUMP JUMPDEST PUSH1 0x0 DUP5 DUP5 ADD MSTORE POP POP POP POP JUMP JUMPDEST PUSH1 0x0 PUSH1 0x1F NOT PUSH1 0x1F DUP4 ADD AND SWAP1 POP SWAP2 SWAP1 POP JUMP JUMPDEST PUSH1 0x0 PUSH2 0x1222 DUP3 PUSH2 0x11C0 JUMP JUMPDEST PUSH2 0x122C DUP2 DUP6 PUSH2 0x11CB JUMP JUMPDEST SWAP4 POP PUSH2 0x123C DUP2 DUP6 PUSH1 0x20 DUP7 ADD PUSH2 0x11DC JUMP JUMPDEST PUSH2 0x1245 DUP2 PUSH2 0x1206 JUMP JUMPDEST DUP5 ADD SWAP2 POP POP SWAP3 SWAP2 POP POP JUMP JUMPDEST PUSH1 0x0 PUSH1 0x80 DUP3 ADD SWAP1 POP PUSH2 0x1265 PUSH1 0x0 DUP4 ADD DUP8 PUSH2 0xFB1 JUMP JUMPDEST PUSH2 0x1272 PUSH1 0x20 DUP4 ADD DUP7 PUSH2 0xEC2 JUMP JUMPDEST DUP2 DUP2 SUB PUSH1 0x40 DUP4 ADD MSTORE PUSH2 0x1284 DUP2 DUP6 PUSH2 0x1217 JUMP JUMPDEST SWAP1 POP DUP2 DUP2 SUB PUSH1 0x60 DUP4 ADD MSTORE PUSH2 0x1298 DUP2 DUP5 PUSH2 0x1217 JUMP JUMPDEST SWAP1 POP SWAP6 SWAP5 POP POP POP POP POP JUMP JUMPDEST PUSH1 0x0 DUP1 REVERT JUMPDEST PUSH1 0x0 DUP1 REVERT JUMPDEST PUSH1 0x0 DUP1 REVERT JUMPDEST PUSH1 0x0 DUP1 DUP4 PUSH1 0x1F DUP5 ADD SLT PUSH2 0x12C8 JUMPI PUSH2 0x12C7 PUSH2 0x12A3 JUMP JUMPDEST JUMPDEST DUP3 CALLDATALOAD SWAP1 POP PUSH8 0xFFFFFFFFFFFFFFFF DUP2 GT ISZERO PUSH2 0x12E5 JUMPI PUSH2 0x12E4 PUSH2 0x12A8 JUMP JUMPDEST JUMPDEST PUSH1 0x20 DUP4 ADD SWAP2 POP DUP4 PUSH1 0x1 DUP3 MUL DUP4 ADD GT ISZERO PUSH2 0x1301 JUMPI PUSH2 0x1300 PUSH2 0x12AD JUMP JUMPDEST JUMPDEST SWAP3 POP SWAP3 SWAP1 POP JUMP JUMPDEST PUSH1 0x0 DUP1 PUSH1 0x0 DUP1 PUSH1 0x0 DUP1 PUSH1 0x80 DUP8 DUP10 SUB SLT ISZERO PUSH2 0x1325 JUMPI PUSH2 0x1324 PUSH2 0xD94 JUMP JUMPDEST JUMPDEST PUSH1 0x0 PUSH2 0x1333 DUP10 DUP3 DUP11 ADD PUSH2 0xE80 JUMP JUMPDEST SWAP7 POP POP PUSH1 0x20 PUSH2 0x1344 DUP10 DUP3 DUP11 ADD PUSH2 0xDBF JUMP JUMPDEST SWAP6 POP POP PUSH1 0x40 DUP8 ADD CALLDATALOAD PUSH8 0xFFFFFFFFFFFFFFFF DUP2 GT ISZERO PUSH2 0x1365 JUMPI PUSH2 0x1364 PUSH2 0xD99 JUMP JUMPDEST JUMPDEST PUSH2 0x1371 DUP10 DUP3 DUP11 ADD PUSH2 0x12B2 JUMP JUMPDEST SWAP5 POP SWAP5 POP POP PUSH1 0x60 DUP8 ADD CALLDATALOAD PUSH8 0xFFFFFFFFFFFFFFFF DUP2 GT ISZERO PUSH2 0x1394 JUMPI PUSH2 0x1393 PUSH2 0xD99 JUMP JUMPDEST JUMPDEST PUSH2 0x13A0 DUP10 DUP3 DUP11 ADD PUSH2 0x12B2 JUMP JUMPDEST SWAP3 POP SWAP3 POP POP SWAP3 SWAP6 POP SWAP3 SWAP6 POP SWAP3 SWAP6 JUMP JUMPDEST PUSH1 0x0 PUSH1 0x20 DUP3 ADD SWAP1 POP PUSH2 0x13C4 PUSH1 0x0 DUP4 ADD DUP5 PUSH2 0xFB1 JUMP JUMPDEST SWAP3 SWAP2 POP POP JUMP JUMPDEST PUSH32 0x4661726D6572206E6F7420726567697374657265642120526576657274696E67 PUSH1 0x0 DUP3 ADD MSTORE PUSH32 0x2E2E2E0000000000000000000000000000000000000000000000000000000000 PUSH1 0x20 DUP3 ADD MSTORE POP JUMP JUMPDEST PUSH1 0x0 PUSH2 0x1426 PUSH1 0x23 DUP4 PUSH2 0x11CB JUMP JUMPDEST SWAP2 POP PUSH2 0x1431 DUP3 PUSH2 0x13CA JUMP JUMPDEST PUSH1 0x40 DUP3 ADD SWAP1 POP SWAP2 SWAP1 POP JUMP JUMPDEST PUSH1 0x0 PUSH1 0x20 DUP3 ADD SWAP1 POP DUP2 DUP2 SUB PUSH1 0x0 DUP4 ADD MSTORE PUSH2 0x1455 DUP2 PUSH2 0x1419 JUMP JUMPDEST SWAP1 POP SWAP2 SWAP1 POP JUMP JUMPDEST PUSH32 0x4F6E6C79207468652072656769737465726564206661726D6572732061726520 PUSH1 0x0 DUP3 ADD MSTORE PUSH32 0x617574686F726973656420666F72207468697320616374696F6E000000000000 PUSH1 0x20 DUP3 ADD MSTORE POP JUMP JUMPDEST PUSH1 0x0 PUSH2 0x14B8 PUSH1 0x3A DUP4 PUSH2 0x11CB JUMP JUMPDEST SWAP2 POP PUSH2 0x14C3 DUP3 PUSH2 0x145C JUMP JUMPDEST PUSH1 0x40 DUP3 ADD SWAP1 POP SWAP2 SWAP1 POP JUMP JUMPDEST PUSH1 0x0 PUSH1 0x20 DUP3 ADD SWAP1 POP DUP2 DUP2 SUB PUSH1 0x0 DUP4 ADD MSTORE PUSH2 0x14E7 DUP2 PUSH2 0x14AB JUMP JUMPDEST SWAP1 POP SWAP2 SWAP1 POP JUMP JUMPDEST PUSH32 0x50726F6475637420616C72656164792072656769737465726564212052657665 PUSH1 0x0 DUP3 ADD MSTORE PUSH32 0x7274696E672E2E2E000000000000000000000000000000000000000000000000 PUSH1 0x20 DUP3 ADD MSTORE POP JUMP JUMPDEST PUSH1 0x0 PUSH2 0x154A PUSH1 0x28 DUP4 PUSH2 0x11CB JUMP JUMPDEST SWAP2 POP PUSH2 0x1555 DUP3 PUSH2 0x14EE JUMP JUMPDEST PUSH1 0x40 DUP3 ADD SWAP1 POP SWAP2 SWAP1 POP JUMP JUMPDEST PUSH1 0x0 PUSH1 0x20 DUP3 ADD SWAP1 POP DUP2 DUP2 SUB PUSH1 0x0 DUP4 ADD MSTORE PUSH2 0x1579 DUP2 PUSH2 0x153D JUMP JUMPDEST SWAP1 POP SWAP2 SWAP1 POP JUMP JUMPDEST PUSH32 0x50726F64756374206E6F7420726567697374657265642120526576657274696E PUSH1 0x0 DUP3 ADD MSTORE PUSH32 0x672E2E2E00000000000000000000000000000000000000000000000000000000 PUSH1 0x20 DUP3 ADD MSTORE POP JUMP JUMPDEST PUSH1 0x0 PUSH2 0x15DC PUSH1 0x24 DUP4 PUSH2 0x11CB JUMP JUMPDEST SWAP2 POP PUSH2 0x15E7 DUP3 PUSH2 0x1580 JUMP JUMPDEST PUSH1 0x40 DUP3 ADD SWAP1 POP SWAP2 SWAP1 POP JUMP JUMPDEST PUSH1 0x0 PUSH1 0x20 DUP3 ADD SWAP1 POP DUP2 DUP2 SUB PUSH1 0x0 DUP4 ADD MSTORE PUSH2 0x160B DUP2 PUSH2 0x15CF JUMP JUMPDEST SWAP1 POP SWAP2 SWAP1 POP JUMP JUMPDEST PUSH32 0x4E487B7100000000000000000000000000000000000000000000000000000000 PUSH1 0x0 MSTORE PUSH1 0x22 PUSH1 0x4 MSTORE PUSH1 0x24 PUSH1 0x0 REVERT JUMPDEST PUSH1 0x0 PUSH1 0x2 DUP3 DIV SWAP1 POP PUSH1 0x1 DUP3 AND DUP1 PUSH2 0x1659 JUMPI PUSH1 0x7F DUP3 AND SWAP2 POP JUMPDEST PUSH1 0x20 DUP3 LT DUP2 SUB PUSH2 0x166C JUMPI PUSH2 0x166B PUSH2 0x1612 JUMP JUMPDEST JUMPDEST POP SWAP2 SWAP1 POP JUMP JUMPDEST PUSH32 0x4F6E6C79207468652053797374656D2041646D696E20697320617574686F7269 PUSH1 0x0 DUP3 ADD MSTORE PUSH32 0x73656420666F72207468697320616374696F6E00000000000000000000000000 PUSH1 0x20 DUP3 ADD MSTORE POP JUMP JUMPDEST PUSH1 0x0 PUSH2 0x16CE PUSH1 0x33 DUP4 PUSH2 0x11CB JUMP JUMPDEST SWAP2 POP PUSH2 0x16D9 DUP3 PUSH2 0x1672 JUMP JUMPDEST PUSH1 0x40 DUP3 ADD SWAP1 POP SWAP2 SWAP1 POP JUMP JUMPDEST PUSH1 0x0 PUSH1 0x20 DUP3 ADD SWAP1 POP DUP2 DUP2 SUB PUSH1 0x0 DUP4 ADD MSTORE PUSH2 0x16FD DUP2 PUSH2 0x16C1 JUMP JUMPDEST SWAP1 POP SWAP2 SWAP1 POP JUMP JUMPDEST PUSH32 0x4661726D657220616C7265616479207265676973746572656421205265766572 PUSH1 0x0 DUP3 ADD MSTORE PUSH32 0x74696E672E2E2E00000000000000000000000000000000000000000000000000 PUSH1 0x20 DUP3 ADD MSTORE POP JUMP JUMPDEST PUSH1 0x0 PUSH2 0x1760 PUSH1 0x27 DUP4 PUSH2 0x11CB JUMP JUMPDEST SWAP2 POP PUSH2 0x176B DUP3 PUSH2 0x1704 JUMP JUMPDEST PUSH1 0x40 DUP3 ADD SWAP1 POP SWAP2 SWAP1 POP JUMP JUMPDEST PUSH1 0x0 PUSH1 0x20 DUP3 ADD SWAP1 POP DUP2 DUP2 SUB PUSH1 0x0 DUP4 ADD MSTORE PUSH2 0x178F DUP2 PUSH2 0x1753 JUMP JUMPDEST SWAP1 POP SWAP2 SWAP1 POP JUMP JUMPDEST PUSH32 0x4E487B7100000000000000000000000000000000000000000000000000000000 PUSH1 0x0 MSTORE PUSH1 0x41 PUSH1 0x4 MSTORE PUSH1 0x24 PUSH1 0x0 REVERT JUMPDEST PUSH1 0x0 DUP2 SWAP1 POP DUP2 PUSH1 0x0 MSTORE PUSH1 0x20 PUSH1 0x0 KECCAK256 SWAP1 POP SWAP2 SWAP1 POP JUMP JUMPDEST PUSH1 0x0 PUSH1 0x20 PUSH1 0x1F DUP4 ADD DIV SWAP1 POP SWAP2 SWAP1 POP JUMP JUMPDEST PUSH1 0x0 DUP3 DUP3 SHL SWAP1 POP SWAP3 SWAP2 POP POP JUMP JUMPDEST PUSH1 0x0 PUSH1 0x8 DUP4 MUL PUSH2 0x1827 PUSH32 0xFFFFFFFFFFFFFFFFFFFFFFFFFFFFFFFFFFFFFFFFFFFFFFFFFFFFFFFFFFFFFFFF DUP3 PUSH2 0x17EA JUMP JUMPDEST PUSH2 0x1831 DUP7 DUP4 PUSH2 0x17EA JUMP JUMPDEST SWAP6 POP DUP1 NOT DUP5 AND SWAP4 POP DUP1 DUP7 AND DUP5 OR SWAP3 POP POP POP SWAP4 SWAP3 POP POP POP JUMP JUMPDEST PUSH1 0x0 DUP2 SWAP1 POP SWAP2 SWAP1 POP JUMP JUMPDEST PUSH1 0x0 PUSH2 0x186E PUSH2 0x1869 PUSH2 0x1864 DUP5 PUSH2 0xD9E JUMP JUMPDEST PUSH2 0x1849 JUMP JUMPDEST PUSH2 0xD9E JUMP JUMPDEST SWAP1 POP SWAP2 SWAP1 POP JUMP JUMPDEST PUSH1 0x0 DUP2 SWAP1 POP SWAP2 SWAP1 POP JUMP JUMPDEST PUSH2 0x1888 DUP4 PUSH2 0x1853 JUMP JUMPDEST PUSH2 0x189C PUSH2 0x1894 DUP3 PUSH2 0x1875 JUMP JUMPDEST DUP5 DUP5 SLOAD PUSH2 0x17F7 JUMP JUMPDEST DUP3 SSTORE POP POP POP POP JUMP JUMPDEST PUSH1 0x0 SWAP1 JUMP JUMPDEST PUSH2 0x18B1 PUSH2 0x18A4 JUMP JUMPDEST PUSH2 0x18BC DUP2 DUP5 DUP5 PUSH2 0x187F JUMP JUMPDEST POP POP POP JUMP JUMPDEST JUMPDEST DUP2 DUP2 LT ISZERO PUSH2 0x18E0 JUMPI PUSH2 0x18D5 PUSH1 0x0 DUP3 PUSH2 0x18A9 JUMP JUMPDEST PUSH1 0x1 DUP2 ADD SWAP1 POP PUSH2 0x18C2 JUMP JUMPDEST POP POP JUMP JUMPDEST PUSH1 0x1F DUP3 GT ISZERO PUSH2 0x1925 JUMPI PUSH2 0x18F6 DUP2 PUSH2 0x17C5 JUMP JUMPDEST PUSH2 0x18FF DUP5 PUSH2 0x17DA JUMP JUMPDEST DUP2 ADD PUSH1 0x20 DUP6 LT ISZERO PUSH2 0x190E JUMPI DUP2 SWAP1 POP JUMPDEST PUSH2 0x1922 PUSH2 0x191A DUP6 PUSH2 0x17DA JUMP JUMPDEST DUP4 ADD DUP3 PUSH2 0x18C1 JUMP JUMPDEST POP POP JUMPDEST POP POP POP JUMP JUMPDEST PUSH1 0x0 DUP3 DUP3 SHR SWAP1 POP SWAP3 SWAP2 POP POP JUMP JUMPDEST PUSH1 0x0 PUSH2 0x1948 PUSH1 0x0 NOT DUP5 PUSH1 0x8 MUL PUSH2 0x192A JUMP JUMPDEST NOT DUP1 DUP4 AND SWAP2 POP POP SWAP3 SWAP2 POP POP JUMP JUMPDEST PUSH1 0x0 PUSH2 0x1961 DUP4 DUP4 PUSH2 0x1937 JUMP JUMPDEST SWAP2 POP DUP3 PUSH1 0x2 MUL DUP3 OR SWAP1 POP SWAP3 SWAP2 POP POP JUMP JUMPDEST PUSH2 0x197A DUP3 PUSH2 0x11C0 JUMP JUMPDEST PUSH8 0xFFFFFFFFFFFFFFFF DUP2 GT ISZERO PUSH2 0x1993 JUMPI PUSH2 0x1992 PUSH2 0x1796 JUMP JUMPDEST JUMPDEST PUSH2 0x199D DUP3 SLOAD PUSH2 0x1641 JUMP JUMPDEST PUSH2 0x19A8 DUP3 DUP3 DUP6 PUSH2 0x18E4 JUMP JUMPDEST PUSH1 0x0 PUSH1 0x20 SWAP1 POP PUSH1 0x1F DUP4 GT PUSH1 0x1 DUP2 EQ PUSH2 0x19DB JUMPI PUSH1 0x0 DUP5 ISZERO PUSH2 0x19C9 JUMPI DUP3 DUP8 ADD MLOAD SWAP1 POP JUMPDEST PUSH2 0x19D3 DUP6 DUP3 PUSH2 0x1955 JUMP JUMPDEST DUP7 SSTORE POP PUSH2 0x1A3B JUMP JUMPDEST PUSH1 0x1F NOT DUP5 AND PUSH2 0x19E9 DUP7 PUSH2 0x17C5 JUMP JUMPDEST PUSH1 0x0 JUMPDEST DUP3 DUP2 LT ISZERO PUSH2 0x1A11 JUMPI DUP5 DUP10 ADD MLOAD DUP3 SSTORE PUSH1 0x1 DUP3 ADD SWAP2 POP PUSH1 0x20 DUP6 ADD SWAP5 POP PUSH1 0x20 DUP2 ADD SWAP1 POP PUSH2 0x19EC JUMP JUMPDEST DUP7 DUP4 LT ISZERO PUSH2 0x1A2E JUMPI DUP5 DUP10 ADD MLOAD PUSH2 0x1A2A PUSH1 0x1F DUP10 AND DUP3 PUSH2 0x1937 JUMP JUMPDEST DUP4 SSTORE POP JUMPDEST PUSH1 0x1 PUSH1 0x2 DUP9 MUL ADD DUP9 SSTORE POP POP POP JUMPDEST POP POP POP POP POP POP JUMP JUMPDEST PUSH32 0x4E487B7100000000000000000000000000000000000000000000000000000000 PUSH1 0x0 MSTORE PUSH1 0x11 PUSH1 0x4 MSTORE PUSH1 0x24 PUSH1 0x0 REVERT JUMPDEST PUSH1 0x0 PUSH2 0x1A7D DUP3 PUSH2 0xD9E JUMP JUMPDEST SWAP2 POP PUSH2 0x1A88 DUP4 PUSH2 0xD9E JUMP JUMPDEST SWAP3 POP DUP3 DUP3 ADD SWAP1 POP DUP1 DUP3 GT ISZERO PUSH2 0x1AA0 JUMPI PUSH2 0x1A9F PUSH2 0x1A43 JUMP JUMPDEST JUMPDEST SWAP3 SWAP2 POP POP JUMP INVALID LOG2 PUSH5 0x6970667358 0x22 SLT KECCAK256 CALLCODE 0xB0 DUP12 PUSH24 0xFCB2CACB464DC219D39C57BD836CA3EDEEF5344D87E2591 REVERT OR SWAP2 0xF8 PUSH5 0x736F6C6343 STOP ADDMOD SHR STOP CALLER "
        },
        "methodIdentifiers": {
          "addFarmer(address,uint256,string,string)": "e86ce709",
          "addProduct(uint256,uint256,uint8,uint256,uint8)": "5524a0b7",
          "admin()": "f851a440",
          "getFarmerCount()": "c4a8b5d5",
          "getFarmerDetails(address)": "d335ccfa",
          "getProductCount(address)": "50208eee",
          "getProductDetails(uint256)": "6813b53b",
          "getProductList(address)": "bc125012",
          "isRegisteredFarmer(address)": "4e5d37a9",
          "isRegisteredProduct(uint256)": "1584fd05"
        }
      }
    }
  }
}